:0400000007EF00F016
:100008007582E9ED0EF064EF12F06DEF04F0000E6A
:10001800516E000E0BEC11F0610E526E7E0E536E97
:10002800D1EC13F0000E516E010E0BEC11F0060E20
:10003800526E200E90EC14F0790E526E7F0E536EB5
:10004800D1EC13F022A22BEF00F02DEF00F032EFED
:1000580000F0000E226E000E216E192A22B037EF32
:1000680000F039EF00F040EF00F022A63EEF00F07C
:1000780040EF00F0AAEF04F0000E226E000E216E91
:10008800000E196E010EABEF04F0000E516E000E5B
:100098000BEC11F03F0E526E7E0E536ED1EC13F046
:1000A800000E516E010E0BEC11F0840E526E7F0E95
:1000B800536ED1EC13F0040E526E200E90EC14F037
:1000C8006EC053F0546A030E556E70EC0EF06E0E4F
:1000D800536E640E546E010E556EF3EC0DF022A4AF
:1000E80078EF00F07AEF00F092EF00F0000E216E4A
:1000F800000E226E0A0E6E18D8A485EF00F087EF66
:1001080000F08CEF00F00F0E6E6E192A92EF00F0DF
:100118000F0E6E6E000E196E46EF00F022A697EFD6
:1001280000F099EF00F0AAEF04F0000E226E000E26
:10013800216E0F0E6E6E000E196E46EF00F0000E67
:10014800516E000E0BEC11F0A90E526E7F0E536E1D
:10015800D1EC13F0010E526E200E90EC14F0DE0E6E
:10016800526E7F0E536ED1EC13F0030E526E200EBA
:1001780090EC14F0000E516E010E0BEC11F0060E0F
:10018800526E200E90EC14F0790E526E7F0E536E64
:10019800D1EC13F022A2D3EF00F0D5EF00F0DAEFA4
:1001A80000F0000E226E000E216E192A22A0DFEF49
:1001B80000F0E1EF00F0E7EF00F0000E226E000E15
:1001C800216E030E192622A6ECEF00F0EEEF00F0E8
:1001D800AAEF04F0000E226E000E216E0B0E196EAF
:1001E800AAEF04F0000E516E000E0BEC11F0A90EF0
:1001F800526E7F0E536ED1EC13F0010E526E200E2C
:1002080090EC14F02DC04BF02EC04CF0000E4E6E4A
:100218000A0E4D6E4AEC11F04BC0B0F04CC0B1F074
:10022800B0C053F0B1C054F0030E556E70EC0EF030
:100238002E0E65EC15F02DC04BF02EC04CF0000EC4
:100248004E6E0A0E4D6E97EC12F04BC0B2F04CC0D9
:10025800B3F0B2C053F0B3C054F0010E556E70EC59
:100268000EF0250E65EC15F0000E516E010E0BEC2C
:1002780011F0D80E526E7F0E536ED1EC13F03AC0C7
:1002880053F0546A040E556E70EC0EF0070E526E61
:10029800200E90EC14F03A0E576E3AEC14F0000968
:1002A800D8B459EF01F05BEF01F05CEF01F0192AC7
:1002B80022A661EF01F063EF01F0AAEF04F0EEEF80
:1002C80000F0000E516E000E0BEC11F0A90E526EEC
:1002D8007F0E536ED1EC13F0010E526E200E90EC8F
:1002E80014F02DC04BF02EC04CF0000E4E6E0A0ECE
:1002F8004D6E4AEC11F04BC0B0F04CC0B1F0B0C03C
:1003080053F0B1C054F0030E556E70EC0EF02E0E83
:1003180065EC15F02DC04BF02EC04CF0000E4E6E63
:100328000A0E4D6E97EC12F04BC0B2F04CC0B3F011
:10033800B2C053F0B3C054F0010E556E70EC0EF01D
:10034800250E65EC15F0000E516E010E0BEC11F048
:10035800D20E526E7F0E536ED1EC13F039C053F0AB
:10036800546A040E556E70EC0EF0070E526E200E95
:1003780090EC14F0390E576E3AEC14F00009D8B42A
:10038800C8EF01F0CAEF01F0CBEF01F0192A22A65D
:10039800D0EF01F0D2EF01F0AAEF04F0EEEF00F099
:1003A800000E516E000E0BEC11F0970E526E7F0E80
:1003B800536ED1EC13F0010E526E200E90EC14F037
:1003C800DE0E526E7F0E536ED1EC13F0030E526E9A
:1003D800200E90EC14F0000E516E010E0BEC11F093
:1003E800060E526E200E90EC14F0790E526E7F0EAF
:1003F800536ED1EC13F022A204EF02F006EF02F0E4
:100408000BEF02F0000E226E000E216E192A22A0B8
:1004180010EF02F012EF02F018EF02F0000E226E59
:10042800000E216E030E192622A61DEF02F01FEF03
:1004380002F0AAEF04F0EEEF00F0000E516E000E8D
:100448000BEC11F0970E526E7F0E536ED1EC13F039
:10045800010E526E200E90EC14F02BC04BF02CC005
:100468004CF0000E4E6E0A0E4D6E4AEC11F04BC069
:10047800B0F04CC0B1F0B0C053F0B1C054F0030EAE
:10048800556E70EC0EF02E0E65EC15F02BC04BF08F
:100498002CC04CF0000E4E6E0A0E4D6E97EC12F00A
:1004A8004BC0B2F04CC0B3F0B2C053F0B3C054F07C
:1004B800010E556E70EC0EF0250E65EC15F0000E71
:1004C800516E010E0BEC11F0D80E526E7F0E536E6A
:1004D800D1EC13F038C053F0546A040E556E70EC2A
:1004E8000EF0070E526E200E90EC14F0380E576E78
:1004F8003AEC14F00009D8B484EF02F086EF02F069
:1005080087EF02F0192A22A68CEF02F08EEF02F094
:10051800AAEF04F0EEEF00F0000E516E000E0BECA7
:1005280011F0970E526E7F0E536ED1EC13F0010E40
:10053800526E200E90EC14F02BC04BF02CC04CF0F7
:10054800000E4E6E0A0E4D6E4AEC11F04BC0B0F024
:100558004CC0B1F0B0C053F0B1C054F0030E556EAA
:1005680070EC0EF02E0E65EC15F02BC04BF02CC085
:100578004CF0000E4E6E0A0E4D6E97EC12F04BC00A
:10058800B2F04CC0B3F0B2C053F0B3C054F0010E97
:10059800556E70EC0EF0250E65EC15F0000E516EE0
:1005A800010E0BEC11F0D20E526E7F0E536ED1EC91
:1005B80013F037C053F0546A040E556E70EC0EF009
:1005C800070E526E200E90EC14F0370E576E3AEC70
:1005D80014F00009D8B4F3EF02F0F5EF02F0F6EFEB
:1005E80002F0192A22A6FBEF02F0FDEF02F0AAEFB3
:1005F80004F0EEEF00F0000E516E000E0BEC11F05F
:100608008E0E526E7F0E536ED1EC13F0010E526EA9
:10061800200E90EC14F0DE0E526E7F0E536ED1EC6D
:1006280013F0030E526E200E90EC14F0000E516E73
:10063800010E0BEC11F0060E526E200E90EC14F029
:10064800790E526E7F0E536ED1EC13F022A22FEF6B
:1006580003F031EF03F036EF03F0000E226E000EC8
:10066800216E192A22A03BEF03F03DEF03F043EF80
:1006780003F0000E226E000E216E030E192622A62C
:1006880048EF03F04AEF03F0AAEF04F0EEEF00F0B2
:10069800000E516E000E0BEC11F08E0E526E7F0E96
:1006A800536ED1EC13F0010E526E200E90EC14F044
:1006B80031C04BF032C04CF0000E4E6E0A0E4D6E3B
:1006C8004AEC11F04BC0B0F04CC0B1F0B0C053F0E0
:1006D800B1C054F0030E556E70EC0EF02E0E65ECA2
:1006E80015F031C04BF032C04CF0000E4E6E0A0EC1
:1006F8004D6E97EC12F04BC0B2F04CC0B3F0B2C0E4
:1007080053F0B3C054F0010E556E70EC0EF0250E88
:1007180065EC15F0000E516E010E0BEC11F0D80EC1
:10072800526E7F0E536ED1EC13F038C053F0546AFA
:10073800040E556E70EC0EF0070E526E200E90EC03
:1007480014F0380E576E3AEC14F00009D8B4AFEF35
:1007580003F0B1EF03F0B2EF03F0192A22A6B7EFC6
:1007680003F0B9EF03F0AAEF04F0EEEF00F0000E8B
:10077800516E000E0BEC11F0970E526E7F0E536EF9
:10078800D1EC13F0010E526E200E90EC14F031C033
:100798004BF032C04CF0000E4E6E0A0E4D6E4AEC15
:1007A80011F04BC0B0F04CC0B1F0B0C053F0B1C0C4
:1007B80054F0030E556E70EC0EF02E0E65EC15F02D
:1007C80031C04BF032C04CF0000E4E6E0A0E4D6E2A
:1007D80097EC12F04BC0B2F04CC0B3F0B2C053F07B
:1007E800B3C054F0010E556E70EC0EF0250E65EC9A
:1007F80015F0000E516E010E0BEC11F0D20E526E78
:100808007F0E536ED1EC13F037C053F0546A040EC8
:10081800556E70EC0EF0070E526E200E90EC14F030
:10082800370E576E3AEC14F00009D8B41EEF04F0F6
:1008380020EF04F021EF04F0192A22A626EF04F095
:1008480028EF04F0AAEF04F0EEEF00F0000E516E6E
:10085800000E0BEC11F0A50E526E7E0E536ED1EC0D
:1008680013F0000E516E010E0BEC11F0060E526ED5
:10087800200E90EC14F0790E526E7F0E536ED1EC70
:1008880013F022A24AEF04F04CEF04F052EF04F008
:10089800000E226E000E216E020E196E22A057EF76
:1008A80004F059EF04F0AAEF04F0000E226E000ED7
:1008B800216E000E196E370E4E6E020E4F6E060E2A
:1008C800506E4AEC13F046EF00F0000E196EAAEFD6
:1008D80004F019505E6E5F6A5F50000AD8B477EF73
:1008E80004F069EF04F05E50000AD8B40BEF00F092
:1008F800010AD8B449EF00F0030AD8B4A3EF00F016
:10090800010AD8B4F6EF00F0070AD8B465EF01F091
:10091800010AD8B4D4EF01F0030AD8B421EF02F0E9
:10092800010AD8B490EF02F00F0AD8B4FFEF02F032
:10093800010AD8B44CEF03F0030AD8B4BBEF03F0B4
:10094800010AD8B42AEF04F069EF04F0000E12008F
:1009580057EF06F0000E516E000E0BEC11F0500E22
:10096800526E7E0E536ED1EC13F0000E516E010ED6
:100978000BEC11F0060E526E200E90EC14F0790E6E
:10098800526E7F0E536ED1EC13F022A2CEEF04F01C
:10099800D0EF04F0D5EF04F0000E226E000E216EA9
:1009A8001A2A22B0DAEF04F0DCEF04F0E3EF04F0E7
:1009B80022A6E1EF04F0E3EF04F078EF06F0000E72
:1009C800226E000E216E000E1A6E010E79EF06F0EF
:1009D800000E516E000E0BEC11F0720E526E7E0E70
:1009E800536ED1EC13F0000E516E010E0BEC11F0AA
:1009F800840E526E7F0E536ED1EC13F0040E526EBD
:100A0800200E90EC14F06EC053F0546A030E556E2D
:100A180070EC0EF06E0E536E640E546E010E556E31
:100A2800F3EC0DF022A41BEF05F01DEF05F035EFF8
:100A380005F0000E216E000E226E0A0E6E18D8A464
:100A480028EF05F02AEF05F02FEF05F01A2A0F0E10
:100A58006E6E35EF05F0000E1A6E0F0E6E6EE9EF32
:100A680004F022A63AEF05F03CEF05F078EF06F027
:100A7800000E226E000E216E0F0E6E6E000E1A6EA4
:100A8800E9EF04F0000E516E000E0BEC11F01C0E95
:100A9800526E7F0E536ED1EC13F0000E516E010EA4
:100AA8000BEC11F00A0E526E200E90EC14F040C0C0
:100AB8004BF04C6A000E4E6E0A0E4D6E4FEC0FF066
:100AC8004BC053F04CC054F0030E556E70EC0EF052
:100AD8002E0E65EC15F040C04BF04C6A000E4E6EC1
:100AE8000A0E4D6E0BEC10F04BC053F04CC054F096
:100AF800010E556E70EC0EF0250E65EC15F0400EEB
:100B0800536E640E546E010E556EF3EC0DF022A474
:100B180090EF05F092EF05F097EF05F0000E226ECA
:100B2800000E216E1A2A22A69CEF05F09EEF05F012
:100B380078EF06F0000E226E000E216E040E1A6E7B
:100B480078EF06F0000E516E000E0BEC11F0830EDC
:100B5800526E7E0E536ED1EC13F0000E516E010EE4
:100B68000BEC11F0090E526E200E90EC14F04104BB
:100B7800D8A4C1EF05F0C3EF05F0CBEF05F0C20E26
:100B8800526E7F0E536ED1EC13F0D1EF05F0CA0E02
:100B9800526E7F0E536ED1EC13F022B2D6EF05F0F1
:100BA800D8EF05F0DFEF05F022A0DDEF05F0DFEF6D
:100BB80005F0F1EF05F0000E226E000E216E4104E3
:100BC800D8A4E9EF05F0EBEF05F0EFEF05F0000E24
:100BD800416EF1EF05F0010E416E22A4F6EF05F02B
:100BE800F8EF05F0FDEF05F0000E226E000E216E05
:100BF8001A2A22A602EF06F004EF06F078EF06F0B4
:100C08009EEF05F0000E516E000E0BEC11F0940EE5
:100C1800526E7E0E536ED1EC13F0000E516E010E23
:100C28000BEC11F0060E526E200E90EC14F0790EBB
:100C3800526E7F0E536ED1EC13F022A226EF06F00F
:100C480028EF06F02EEF06F0000E226E000E216E41
:100C5800020E1A6E22B033EF06F035EF06F043EFBE
:100C680006F022B43AEF06F03CEF06F043EF06F048
:100C780022A641EF06F043EF06F078EF06F0000EEB
:100C8800226E000E216E400E4E6E000E4F6E020E4A
:100C9800506E4AEC13F0000E1A6EE9EF04F0000EE5
:100CA8001A6E78EF06F01A505E6E5F6A5F50000A9F
:100CB800D8B461EF06F053EF06F05E50000AD8B4DE
:100CC800AEEF04F0010AD8B4ECEF04F0030AD8B48C
:100CD80046EF05F0010AD8B4A6EF05F0070AD8B424
:100CE80006EF06F053EF06F0000E1200000E516EEC
:100CF800000E0BEC11F033A484EF06F086EF06F03B
:100D08008EEF06F0F60E526E7F0E536ED1EC13F096
:100D1800B2EF06F033A093EF06F095EF06F09DEFE3
:100D280006F0F90E526E7F0E536ED1EC13F0B2EF4F
:100D380006F033A2A2EF06F0A4EF06F0ACEF06F03F
:100D4800F30E526E7F0E536ED1EC13F0B2EF06F035
:100D5800F00E526E7F0E536ED1EC13F0A00E526E51
:100D68007F0E536ED1EC13F02BC04BF02CC04CF01F
:100D7800000E4E6E0A0E4D6E4AEC11F04BC0B0F0EC
:100D88004CC0B1F0B0C053F0B1C054F0030E556E72
:100D980070EC0EF02E0E65EC15F02BC04BF02CC04D
:100DA8004CF0000E4E6E0A0E4D6E97EC12F04BC0D2
:100DB800B2F04CC0B3F0B2C053F0B3C054F0010E5F
:100DC800556E70EC0EF0250E65EC15F0000E516EA8
:100DD800010E0BEC11F0DFEF07F035A0F6EF06F08F
:100DE800F8EF06F00BEF07F00B0E526E7F0E536E06
:100DF800D1EC13F02350D8B404EF07F006EF07F056
:100E080004EF08F0000E236E1B2A04EF08F01B2ADB
:100E180035A211EF07F013EF07F023EF07F0D80E14
:100E2800526E7E0E536ED1EC13F02350D8B41FEFE0
:100E380007F021EF07F004EF08F006EF07F01B2A90
:100E480035A429EF07F02BEF07F03BEF07F0FA0E78
:100E5800526E7E0E536ED1EC13F02350D8B437EF98
:100E680007F039EF07F004EF08F006EF07F01B2A48
:100E780035A641EF07F043EF07F053EF07F0E90E0F
:100E8800526E7E0E536ED1EC13F02350D8B44FEF50
:100E980007F051EF07F004EF08F006EF07F01B2A00
:100EA80035AA59EF07F05BEF07F06BEF07F0C70EB5
:100EB800526E7E0E536ED1EC13F02350D8B467EF08
:100EC80007F069EF07F004EF08F006EF07F01B2AB8
:100ED80035AC71EF07F073EF07F083EF07F0B60E4C
:100EE800526E7E0E536ED1EC13F02350D8B47FEFC0
:100EF80007F081EF07F004EF08F006EF07F01B2A70
:100F080035A889EF07F08BEF07F093EF07F0BA0EDB
:100F1800526E7F0E536ED1EC13F099EF07F0B20EBC
:100F2800526E7F0E536ED1EC13F0E80E526E7F0EA8
:100F3800536ED1EC13F02FC04BF030C04CF0000EC4
:100F48004E6E0A0E4D6E4AEC11F04BC0B0F04CC01C
:100F5800B1F0B0C053F0B1C054F0030E556E70EC50
:100F68000EF02E0E65EC15F02FC04BF030C04CF093
:100F7800000E4E6E0A0E4D6E97EC12F04BC0B2F09A
:100F88004CC0B3F0B2C053F0B3C054F0010E556E6C
:100F980070EC0EF0250E65EC15F02350D8B4D7EFA1
:100FA80007F0D9EF07F004EF08F0000E236E000EEB
:100FB8001B6E04EF08F01B505E6E5F6A5F50000AFC
:100FC800D8B4E9EF07F084EF07F05E50000AD8B410
:100FD800F1EF06F0010AD8B40CEF07F0030AD8B411
:100FE80024EF07F0010AD8B43CEF07F0070AD8B499
:100FF80054EF07F0010AD8B46CEF07F084EF07F05C
:101008001200EDEC14F00009D8B40DEF08F00FEF62
:1010180008F005EF08F0F7EC14F04B500B264C5095
:101028000C22010E6D5ED8B41CEF08F01EEF08F01C
:1010380020EF08F036EF09F0020E6D6ED8900C30F4
:10104800596E0B300001B06F59C0B1F0000E0C6E34
:10105800000E0B6E21EF09F03A50B05D596EB15198
:101068005A6E000E5A5A5B6A5B5A5C6A5C5AAA0E40
:1010780059244B6EFF0E5A204C6EFF0E5B204D6EAE
:10108800FF0E5C204E6E39504F6E506A516A526A9C
:101098002FEC12F04BC0B2F04CC0B3F04DC0B4F01E
:1010A8004EC0B5F0B2C04BF0B3C04CF0B4C04DF078
:1010B800B5C04EF0640E4F6E000E506E000E516EAD
:1010C800000E526E6DEC0DF04BC0B2F04CC0B3F098
:1010D8004DC0B4F04EC0B5F00001B5BF81EF08F0C7
:1010E800B551B411B31107E1020EB25DD8B07FEF6C
:1010F80008F081EF08F087EF08F0000E2E6E000E62
:101108002D6EA2EF08F0B5BF98EF08F0B551B411F5
:1011180009E1E90EB25D030EB359D8B096EF08F0B5
:1011280098EF08F09EEF08F0B2C02DF0B3C02EF093
:10113800A2EF08F0030E2E6EE80E2D6E1D2A1D502C
:10114800CBEC14F036EF09F03850B05D596EB15160
:101158005A6E000E5A5A5B6A5B5A5C6A5C5AAA0E4F
:1011680059244B6EFF0E5A204C6EFF0E5B204D6EBD
:10117800FF0E5C204E6E37504F6E506A516A526AAD
:101188002FEC12F04BC0B2F04CC0B3F04DC0B4F02D
:101198004EC0B5F0B2C04BF0B3C04CF0B4C04DF087
:1011A800B5C04EF0640E4F6E000E506E000E516EBC
:1011B800000E526E6DEC0DF04BC0B2F04CC0B3F0A7
:1011C8004DC0B4F04EC0B5F00001B5BFF9EF08F05E
:1011D800B551B411B31107E1020EB25DD8B0F7EF03
:1011E80008F0F9EF08F0FFEF08F0000E2C6E000E83
:1011F8002B6E1AEF09F0B5BF10EF09F0B551B41115
:1012080009E1E90EB25D030EB359D8B00EEF09F04B
:1012180010EF09F016EF09F0B2C02BF0B3C02CF0B4
:101228001AEF09F0030E2C6EE80E2B6E000E1D6EE1
:10123800000ECBEC14F036EF09F01D50596E5A6AC7
:101248005A50000AD8B42BEF09F036EF09F059507C
:10125800000AD8B430EF08F0010AD8B4A8EF08F0B3
:1012680036EF09F093EC15F0120081BE3EEF09F05D
:1012780040EF09F043EF09F0348044EF09F034906F
:1012880081BC49EF09F04BEF09F04EEF09F03482C9
:101298004FEF09F0349281BA54EF09F056EF09F094
:1012A80059EF09F034845AEF09F0349434AC5FEF05
:1012B80009F061EF09F06AEF09F034A466EF09F06C
:1012C80068EF09F06AEF09F03490349234A86FEFB0
:1012D80009F071EF09F079EF09F034A076EF09F021
:1012E80078EF09F079EF09F0349234AA7EEF09F02B
:1012F80080EF09F088EF09F034A285EF09F087EF55
:1013080009F088EF09F0349034A402D0348C01D06D
:10131800349C34A002D0348801D0349834A202D04E
:10132800348A01D0349A81B29CEF09F09EEF09F01B
:10133800A1EF09F03580A2EF09F0359081B0A7EF51
:1013480009F0A9EF09F0ACEF09F03582ADEF09F02B
:10135800359281B6B2EF09F0B4EF09F0B7EF09F0B2
:101368003584B8EF09F0359481B4BDEF09F0BFEFCB
:1013780009F0C2EF09F03586C3EF09F0359681B858
:10138800C8EF09F0CAEF09F0CDEF09F03588CEEFC4
:1013980009F0359882B2D3EF09F0D5EF09F0D8EF0C
:1013A80009F0358AD9EF09F0359A82B0DEEF09F0F5
:1013B800E0EF09F0E3EF09F0358CE4EF09F0359C34
:1013C80080BAE9EF09F0EBEF09F0EEEF09F03680AB
:1013D800EFEF09F0369084B0F4EF09F0F6EF09F07A
:1013E800F9EF09F03682FAEF09F0369284B2FFEF8E
:1013F80009F001EF0AF004EF0AF0368405EF0AF06D
:10140800369436AC0AEF0AF00CEF0AF015EF0AF042
:1014180036A411EF0AF013EF0AF015EF0AF0369030
:10142800369236A81AEF0AF01CEF0AF024EF0AF0F9
:1014380036A021EF0AF023EF0AF024EF0AF03692E3
:1014480036AA29EF0AF02BEF0AF033EF0AF036A29A
:1014580030EF0AF032EF0AF033EF0AF0369036A494
:1014680002D0368C01D0369C36A002D0368801D006
:10147800369836A202D0368A01D0369A1200000E6B
:10148800566E000E576E35B04CEF0AF04EEF0AF06C
:1014980071EF0AF035B453EF0AF055EF0AF071EF27
:1014A8000AF035B25AEF0AF05CEF0AF071EF0AF071
:1014B80035B661EF0AF063EF0AF071EF0AF035BA5A
:1014C80068EF0AF06AEF0AF071EF0AF035AC6FEFD7
:1014D8000AF071EF0AF072EF0AF0338435A877EF5B
:1014E8000AF079EF0AF0AFEF0AF04150D8B47FEF75
:1014F8000AF081EF0AF088EF0AF033942DC02FF03C
:101508002EC030F0CAEF0AF036A48DEF0AF08FEF44
:101518000AF096EF0AF0000E566E000E576E3384EE
:10152800CAEF0AF036A09BEF0AF09DEF0AF0A2EF8F
:101538000AF0010E566E3394CAEF0AF036A2A7EFEE
:101548000AF0A9EF0AF0ADEF0AF0010E576E9FEF0F
:101558000AF0CAEF0AF034A4B4EF0AF0B6EF0AF0C2
:10156800B8EF0AF08FEF0AF034A0BDEF0AF0BFEF32
:101578000AF0C1EF0AF09DEF0AF034A2C6EF0AF0B4
:10158800C8EF0AF0CAEF0AF0A9EF0AF033A4CFEFC8
:101598000AF0D1EF0AF0D5EF0AF0339033922CEF2E
:1015A8000BF04150D8B4DBEF0AF0DDEF0AF012EF90
:1015B8000BF035A8E2EF0AF0E4EF0AF012EF0BF0B7
:1015C80040502F24546E000E3020556E2B50545C22
:1015D8002C505558D8B0F3EF0AF0F5EF0AF0F9EFB0
:1015E8000AF0339033822CEF0BF040502B24546ECA
:1015F800000E2C20556E2F50545C30505558D8B0E2
:1016080008EF0BF00AEF0BF00EEF0BF0338033927C
:101618002CEF0BF0339233902CEF0BF02BC02FF004
:101628002CC030F05650D8B41CEF0BF01EEF0BF066
:1016380022EF0BF0338033922CEF0BF05750D8B4D5
:1016480028EF0BF02AEF0BF0D1EF0AF0339033823A
:10165800F7EC11F012000F0E095C0E0E0A58D8B004
:1016680038EF0BF03AEF0BF03EEF0BF0094A0A2A7D
:101678004AEF0BF0000E0A6E000E096E010E236E83
:10168800010E166E010E136E010E1F6E010E206EF6
:1016980009C042F00AC043F0070E456E080E446EBA
:1016A800C9EC12F042504310D8A45DEF0BF05FEF85
:1016B8000BF061EF0BF0010E136E09C042F00AC087
:1016C80043F0000E456E1E0E446EC9EC12F04250F7
:1016D8004310D8A472EF0BF074EF0BF078EF0BF017
:1016E800010E236E010E166E09C042F00AC043F0C7
:1016F800000E456E0A0E446EC9EC12F042504310BB
:10170800D8A489EF0BF08BEF0BF098EF0BF0010EDC
:10171800146E1150D8B493EF0BF096EF0BF0010E46
:1017280097EF0BF0000E116E09C042F00AC043F0AB
:10173800000E456E050E446EC9EC12F0425043107F
:10174800D8A4A9EF0BF0ABEF0BF0B6EF0BF01250EB
:10175800D8B4B1EF0BF0B4EF0BF0010EB5EF0BF00E
:10176800000E126E09B0BBEF0BF0BDEF0BF0BFEF30
:101778000BF0010E156E000E186E83B2C6EF0BF05B
:10178800C8EF0BF0C9EF0BF0188083B4CEEF0BF065
:10179800D0EF0BF0D1EF0BF0188283B6D6EF0BF039
:1017A800D8EF0BF0D9EF0BF0188483B8DEEF0BF00D
:1017B800E0EF0BF0E1EF0BF018861750FF0A181452
:1017C800221218C017F01850D8B4EDEF0BF0EFEF55
:1017D8000BF000EF0CF06C50D8A4F5EF0BF0F7EF1E
:1017E8000BF0FDEF0BF0020E6C6E1850211202EF99
:1017F8000CF06C0602EF0CF0020E6C6E1200AFECEF
:1018080014F0F28EF28C58EC15F0000EBBEC10F0D0
:10181800BEEC11F0000E516E000E0BEC11F04E0EE6
:10182800526E7F0E536ED1EC13F0000E516E010E06
:101838000BEC11F03E0E526E7F0E536ED1EC13F08E
:10184800CAEC0CF023EC13F040EC15F0000E4C6ED3
:10185800CC0E4B6EB1EC0FF004002050D8B437EF2B
:101868000CF039EF0CF07BEF0CF0000E206E05EC5D
:1018780008F039EC09F07BEF0CF01F50D8B447EFB3
:101888000CF049EF0CF04DEF0CF0000E1F6EBEECA3
:1018980011F043EC0AF07AEC06F022A656EF0CF0B1
:1018A80058EF0CF095EF0CF0000E226E000E216E32
:1018B8001E2A95EF0CF043EC0AF0ACEC04F000099A
:1018C800D8B469EF0CF06BEF0CF095EF0CF05CEF0F
:1018D8000CF009EC00F00009D8B475EF0CF077EFC4
:1018E8000CF095EF0CF0000E1E6E95EF0CF01E50EC
:1018F8000001B66FB76BB751000AD8B486EF0CF089
:1019080077EF0CF0B651000AD8B441EF0CF0010A99
:10191800D8B45FEF0CF0030AD8B46DEF0CF077EF92
:101928000CF02B500001B66F2C50B76FB86BB96B29
:10193800020ED890B637B737B837B937E82E9DEFCB
:101948000CF0B6C04BF0B7C04CF0B8C04DF0B9C001
:101958004EF0050E4F6E000E506E000E516E000ECA
:10196800526E6DEC0DF0CC0E4B24316E000E4C20F7
:10197800326E31C04BF032C04CF0B1EC0FF023ECBA
:1019880013F0040031EF0CF007EF00F0400E4C6E3E
:10199800000E4D6E020E4E6E6FEC13F04050D8B430
:1019A800D8EF0CF0DAEF0CF0E2EF0CF0640E4064C4
:1019B800E0EF0CF0E2EF0CF0E4EF0CF00A0E406EF2
:1019C8004104D8B4EAEF0CF0ECEF0CF0F6EF0CF0B1
:1019D8004150D8B4F2EF0CF0F4EF0CF0F6EF0CF045
:1019E800000E416E370E4C6E020E4D6E060E4E6E98
:1019F8006FEC13F03750D8B404EF0DF006EF0DF08C
:101A08000EEF0DF0C80E37640CEF0DF00EEF0DF071
:101A180010EF0DF0640E376E3850D8B416EF0DF095
:101A280018EF0DF020EF0DF0C80E38641EEF0DF022
:101A380020EF0DF022EF0DF0640E386E3950D8B457
:101A480028EF0DF02AEF0DF032EF0DF0C80E3964D3
:101A580030EF0DF032EF0DF034EF0DF0640E396E0B
:101A68003A50D8B43AEF0DF03CEF0DF044EF0DF0DA
:101A7800C80E3A6442EF0DF044EF0DF046EF0DF05A
:101A8800640E3A6E3950D8B44CEF0DF04EEF0DF0AD
:101A980056EF0DF0C80E396454EF0DF056EF0DF007
:101AA80058EF0DF0640E396E3C50D8B45EEF0DF06F
:101AB80060EF0DF068EF0DF0C80E3C6466EF0DF0B6
:101AC80068EF0DF06AEF0DF0640E3C6E000E1C6EB0
:101AD8001200000E546E52BE76EF0DF074EF0DF04A
:101AE80080EF0DF0521E511E501E4F6C000E5022FA
:101AF80051225222010E546E4EBE87EF0DF085EF33
:101B08000DF091EF0DF04E1E4D1E4C1E4B6C000E4D
:101B18004C224D224E22010E541A000E556E000E14
:101B2800566E000E576E000E586E4F5050105110E2
:101B38005210D8B4A2EF0DF0A4EF0DF0DAEF0DF0CB
:101B4800010E536EAEEF0DF0D8904F365036513629
:101B58005236532A52AEB3EF0DF0B5EF0DF0A8EFA1
:101B68000DF0D89055365636573658364F504B5C90
:101B780050504C5851504D5852504E58D8A0C7EF5D
:101B88000DF0C9EF0DF0D2EF0DF04F504B5E5050F5
:101B98004C5A51504D5A52504E5A5580D890523244
:101BA800513250324F32532EB5EF0DF05450D8B455
:101BB800E0EF0DF0E2EF0DF0EAEF0DF0581E571EC2
:101BC800561E556C000E56225722582255C04BF00F
:101BD80056C04CF057C04DF058C04EF0120053504C
:101BE800D96EDA6A5550DE5CD8A0FDEF0DF0FFEF34
:101BF8000DF00BEF0EF05350D96EDA6ADE50545CDC
:101C0800D8B009EF0EF00BEF0EF01BEF0EF05350AB
:101C1800D96EDA6A545055244B6E4C6A4C36000E15
:101C28004E6E020E4D6E4FEC0FF04B50DF6E22B22F
:101C380020EF0EF022EF0EF029EF0EF021A227EF91
:101C48000EF029EF0EF046EF0EF0000E226E000E99
:101C5800216E5350D96EDA6A5450DE5CD8B037EF33
:101C68000EF039EF0EF03FEF0EF05350D96EDA6AEE
:101C7800DF2A6FEF0EF05350D96EDA6A54C0DFFFD7
:101C88006FEF0EF022B04BEF0EF04DEF0EF054EF69
:101C98000EF021A052EF0EF054EF0EF06FEF0EF0A1
:101CA800000E226E000E216E5350D96EDA6ADE5095
:101CB800555CD8B062EF0EF064EF0EF06AEF0EF0EC
:101CC8005350D96EDA6ADF066FEF0EF05350D96EB3
:101CD800DA6A55C0DFFF1200010E5D6E20EE65F076
:101CE80010EE57F0040EDBCFE3FFE806FCE2050E2A
:101CF800556481EF0EF083EF0EF0C6EF0EF0050E7F
:101D0800556EC6EF0EF05D50555CD8B08EEF0EF0F4
:101D180090EF0EF092EF0EF0CEEF0EF053C04BF0B6
:101D280054C04CF0000E4E6E0A0E4D6E97EC12F039
:101D38004B505C6E5DC056F0FF0E56265650570F3E
:101D4800D96EDA6A5C50300FDF6E5C50535C4B6EB4
:101D58005450D8A054044C6E000E4E6E0A0E4D6EB0
:101D68004AEC11F04BC053F04CC054F0535054108F
:101D7800D8A4C1EF0EF0C3EF0EF0C5EF0EF0CEEF12
:101D88000EF05D2A050E5D64CCEF0EF0CEEF0EF07E
:101D980087EF0EF055C05DF05D50D8A4D6EF0EF079
:101DA800D8EF0EF0DAEF0EF0E8EF0EF05DC056F067
:101DB800FF0E56265650570FD96EDA6ADF5065EC7B
:101DC80015F05D06D0EF0EF012000600FACF47F0CE
:101DD800FBCF48F0D9CF49F0DACF4AF0F2AAF7EFB3
:101DE8000EF0F9EF0EF004EF0FF0F2A4FEEF0EF094
:101DF80000EF0FF004EF0FF048EC15F045EF0FF08F
:101E0800F2AC09EF0FF00BEF0FF045EF0FF09DA8C4
:101E180010EF0FF012EF0FF028EF0FF09EA817EF5A
:101E28000FF019EF0FF028EF0FF002D826EF0FF0A0
:101E38000500FA6E7350FD6E7450FE6EF850FF6E1A
:101E4800FA50120045EF0FF09DAA2DEF0FF02FEF7B
:101E58000FF045EF0FF09EAA34EF0FF036EF0FF0BA
:101E680045EF0FF002D843EF0FF00500FA6E7150FE
:101E7800FD6E7250FE6EF850FF6EFA50120045EF7C
:101E88000FF04AC0DAFF49C0D9FF48C0FBFF47C07E
:101E9800FAFF75921100000E506E4EBE58EF0FF00B
:101EA80056EF0FF05EEF0FF04D6C4E1ED8B04E2A75
:101EB800010E506E4CBE65EF0FF063EF0FF06BEF45
:101EC8000FF04B6C4C1ED8B04C2A010E501A000E65
:101ED800526E000E516E4D504E10D8B476EF0FF082
:101EE80078EF0FF0A0EF0FF0010E4F6E80EF0FF0BC
:101EF800D8904D364E364F2A4EAE85EF0FF087EF0D
:101F08000FF07CEF0FF0D890513652364D504B5CA5
:101F18004E504C58D8A093EF0FF095EF0FF09AEF72
:101F28000FF04D504B5E4E504C5A5180D8904E3267
:101F38004D324F2E87EF0FF05050D8B4A6EF0FF068
:101F4800A8EF0FF0ACEF0FF0516C521ED8B0522A28
:101F580051C04BF052C04CF01200040E4C5CD8A09B
:101F6800B8EF0FF0BAEF0FF0BDEF0FF0030E4C6EA5
:101F78004B684C5007E1CC0E4B5CD8B0C6EF0FF065
:101F8800C8EF0FF0CCEF0FF0000E4C6ECC0E4B6E7E
:101F98004BC04DF04CC04EF0D8904E324D32D890D8
:101FA8004E324D324D50BE6EEAEF0FF0BD8ABD88FD
:101FB8000AEF10F0BD8ABD980AEF10F0BD9ABD88EF
:101FC8000AEF10F0BD9ABD980AEF10F0010E4B14FD
:101FD8004D6E000E4C144E6E4E50000AD8B4F7EFFA
:101FE8000FF00AEF10F04D50000AD8B4E6EF0FF0EA
:101FF800010AD8B4E2EF0FF0030AD8B4DEEF0FF00D
:10200800010AD8B4DAEF0FF00AEF10F01200000E50
:10201800506E4CBE14EF10F012EF10F01AEF10F0E3
:102028004B6C4C1ED8B04C2A010E506E4EBE21EFA0
:1020380010F01FEF10F025EF10F04D6C4E1ED8B0C9
:102048004E2A4D504E10D8B42CEF10F02EEF10F051
:1020580052EF10F0010E4F6E36EF10F0D8904D365B
:102068004E364F2A4EAE3BEF10F03DEF10F032EFF8
:1020780010F04D504B5C4E504C58D8A046EF10F025
:1020880048EF10F04CEF10F04D504B5E4E504C5A4C
:10209800D8904E324D324F2E3DEF10F05050D8B4FC
:1020A80058EF10F05AEF10F05EEF10F04B6C4C1E2A
:1020B800D8B04C2A4BC04BF04CC04CF01200275003
:1020C800010FD96EDA6ADF6AABA46DEF10F06FEF1B
:1020D80010F082EF10F02750010FD96EDA6ADF8214
:1020E80002D882EF10F005000001FA6EBE51FD6EB5
:1020F800BF51FE6EF850FF6EFA501200ABA287EF88
:1021080010F089EF10F09CEF10F02750010FD96EF6
:10211800DA6ADF8402D89CEF10F005000001FA6E3D
:10212800BC51FD6EBD51FE6EF850FF6EFA501200A4
:102138002750010FD96EDA6ADF50D8B4A6EF10F035
:10214800A8EF10F0B8EF10F002D8B6EF10F00500C5
:102158000001FA6EBA51FD6EBB51FE6EF850FF6E6B
:10216800FA501200BAEF10F07DEC14F012004C6E29
:10217800C6BAC1EF10F0C3EF10F009EF11F04C50E0
:10218800040D010EF326000EF422F90EF324F66E68
:102198007D0EF420F76E0800F5CFC7FF4C50040DF4
:1021A800F90EF324F66E7D0EF420F76E0800F5CFD5
:1021B800C6FF000EC56E4C50040D020EF326000E2D
:1021C800F422F90EF324F66E7D0EF420F76E080063
:1021D800F5CFC8FF4C50040D030EF326000EF42271
:1021E800F90EF324F66E7D0EF420F76E0800F5CF95
:1021F8004BF04B464B464B4694504B18F70B4B183D
:10220800946EC68A010E0AEF11F0000E1200546E89
:102218002CEF11F05150800F14EC15F049EF11F02C
:102228005150C00F14EC15F049EF11F05150900FB8
:1022380014EC15F049EF11F05150D00F14EC15F0D3
:1022480049EF11F05150C00F14EC15F049EF11F09F
:102258005450526E536A5350000AD8B436EF11F0F6
:1022680026EF11F05250000AD8B40EEF11F0010A0F
:10227800D8B414EF11F0030AD8B41AEF11F0010A18
:10228800D8B420EF11F026EF11F01200000E516EB5
:10229800000E506E4D504E10D8B455EF11F057EF58
:1022A80011F07FEF11F0010E4F6E5FEF11F0D89033
:1022B8004D364E364F2A4EAE64EF11F066EF11F0F0
:1022C8005BEF11F0D890503651364D504B5C4E5064
:1022D8004C58D8A072EF11F074EF11F079EF11F0AB
:1022E8004D504B5E4E504C5A5080D8904E324D3225
:1022F8004F2E66EF11F050C04BF051C04CF0120059
:102308009D9AC60E4B6E200E4C6E79EC15F09D987A
:10231800660E4B6E270E4C6E74EC15F0080EB86EF8
:10232800900EAB6E240EAC6E080EAF6E020EB06E41
:10233800300E4B6E2B0E4C6E83EC15F01A0E4B6E56
:102348002B0E4C6E7EEC15F0200E4B6E2B0E4C6E49
:1023580088EC15F0000E246E000E2A6E000E296E11
:10236800080E286E000E276E000E266E000E256ED3
:102378009D8A12008C9A000E4C6E050E4B6E22EC54
:1023880014F08C8A380E14EC15F0000E4C6E050E05
:102398004B6E22EC14F0380E14EC15F0000E4C6E57
:1023A800050E4B6E22EC14F0380E14EC15F00C0EE2
:1023B80014EC15F0000E4C6E050E4B6E22EC14F06A
:1023C800020E14EC15F0000E4C6E050E4B6E22EC4E
:1023D80014F0010E14EC15F0000E4C6E050E4B6E49
:1023E80022EC14F01200000E536E33A0FEEF11F031
:1023F80000EF12F001EF12F0538A33A206EF12F049
:1024080008EF12F009EF12F0538833A40EEF12F020
:1024180010EF12F011EF12F0538635A416EF12F0F8
:1024280018EF12F019EF12F0538435A61EEF12F0D0
:1024380020EF12F021EF12F0538235A826EF12F0A8
:1024480028EF12F029EF12F05380000E506E53500F
:10245800A0EC14F01200000E536E000E546E000E25
:10246800556E000E566E4BA03CEF12F03EEF12F088
:1024780046EF12F04F5053265050542251505522D7
:1024880052505622D8904F36503651365236D89040
:102498004E324D324C324B324B504C104D104E1088
:1024A800D8A459EF12F05BEF12F037EF12F053C0D7
:1024B8004BF054C04CF055C04DF056C04EF01200D1
:1024C800700EF66E2A0EF76E000EF86E00EEA0F093
:1024D80010EE10F00900F5CFEEFFE550E150FAE1FB
:1024E800A00EF66E2A0EF76E000EF86E00EE60F083
:1024F80010EE0FF00900F5CFEEFFE550E150FAE1DC
:1025080000EE80F0200EEE6AE806FDE100EE01F034
:10251800410EEE6AE806FDE175907592000EF86EC0
:10252800000103EF0CF04D504E10D8B49EEF12F09E
:10253800A0EF12F0C4EF12F0010E4F6EA8EF12F0E8
:10254800D8904D364E364F2A4EAEADEF12F0AFEF63
:1025580012F0A4EF12F04D504B5C4E504C58D8A0DE
:10256800B8EF12F0BAEF12F0BEEF12F04D504B5E1A
:102578004E504C5AD8904E324D324F2EAFEF12F08B
:102588004BC04BF04CC04CF0120044504510D8B42E
:10259800D0EF12F0D2EF12F0F6EF12F0010E466E05
:1025A800DAEF12F0D89044364536462A45AEDFEFCA
:1025B80012F0E1EF12F0D6EF12F04450425C4550B1
:1025C8004358D8A0EAEF12F0ECEF12F0F0EF12F057
:1025D8004450425E4550435AD89045324432462EC4
:1025E800E1EF12F042C042F043C043F0120005EFA1
:1025F80013F0350EE82EFED70000200E4B5E000EBD
:102608004C5A4C5007E1200E4B5CD8B00EEF13F03B
:1026180010EF13F0FDEF12F015EF13F000D000D01B
:1026280000004B06D8A04C064B2806E14C28D8A43D
:1026380020EF13F022EF13F012EF13F0120033A083
:1026480028EF13F02AEF13F02EEF13F01C801C92E2
:102658003BEF13F033A233EF13F035EF13F039EFFC
:1026680013F01C901C823BEF13F01C901C9235A8B1
:1026780040EF13F042EF13F045EF13F01C8446EFE0
:1026880013F01C941C505FEC15F01200000E556EF0
:10269800000E546E5CEF13F04E50D96EDA6ADF50BC
:1026A8004B6E4F5093EC13F04E2A4F2A544A552A3A
:1026B8005050516E526A5150545C5550800A536EB6
:1026C8005250800A5358D8A06CEF13F06EEF13F0F5
:1026D80050EF13F01200000E536E000E526E80EF92
:1026E80013F04C50D96EDA6A4D5001EC15F0DF6EDC
:1026F8004D2A4C2A524A532A4E504F6E506A4F5018
:10270800525C5350800A516E5050800A5158D8A0DC
:1027180090EF13F092EF13F075EF13F012004C6E78
:10272800000EF2BE010E4D6E4CC0A9FF4BC0A8FFB3
:10273800A69EA69CA684F29E550EA76EAA0EA76E0C
:10274800A682A6B2AAEF13F0ACEF13F0A5EF13F030
:10275800A6944DB002D0F29E01D0F28E1200080E5F
:102768002860B9EF13F0BBEF13F0CFEF13F0295047
:10277800880FD96EDA6ADF50AD6E292A070E2964F0
:10278800C8EF13F0CAEF13F0CCEF13F0000E296E68
:10279800282AD0EF13F09D981200DFEF13F052C0F3
:1027A800F6FF53C0F7FF0800F5CF54F0545065EC1E
:1027B80015F0524A532A52C0F6FF53C0F7FF0800DB
:1027C800F5500009D8A4EBEF13F0EDEF13F0D3EFB9
:1027D80013F01200D59CF30ED76ECB0ED66ED650E2
:1027E800D7CF4DF04E6A4DC04EF04D6A4D100F6E6A
:1027F8004E50106EF294F28A2E0E4B6E2B0E4C6ECB
:102808006AEC15F0850ED56E12004CC04FF014EF2F
:1028180014F04F50D96EDA6ADF50BEEC14F04F2A2C
:102828004D06D8A04E064D2806E14E28D8A41FEF25
:1028380014F021EF14F00DEF14F012002CEF14F047
:10284800070E4D6E7D0EE82EFED74D2EFCD70000EC
:102858004B06D8A04C064B2806E14C28D8A437EFE5
:1028680014F039EF14F024EF14F0120057C053F0AD
:10287800C80E546E010E556EF3EC0DF022A447EF0E
:1028880014F049EF14F050EF14F0000E226E000E11
:10289800216E010E51EF14F0000E12006F507010EF
:1028A800D8B459EF14F05BEF14F068EF14F002D8C5
:1028B80068EF14F00500FA6E6F50FD6E7050FE6EF2
:1028C800F850FF6EFA5012001200000E8D6E1E0EA8
:1028D8008C6E000E896E000E8A6E000E8B6E030ED3
:1028E800966E92689368930E946E3E0E956EF18E76
:1028F80012002750800FD96EDA6AAECFDFFF272A81
:10290800070E27648AEF14F08CEF14F08EEF14F0A2
:10291800000E276E252A1200536E97EF14F05350BD
:1029280065EC15F052065250D8A49DEF14F09FEFB5
:1029380014F093EF14F01200516E50503D0FD96E01
:10294800DA6ADF50800B526E51507F0B52103E6E88
:10295800D7EC14F0120095EC15F02FEC15F069EC9B
:1029680014F06FEC15F0EEEC13F0E2EC14F084ECDC
:1029780011F012004B6E4BC0C9FF9EA6C6EF14F0B3
:10298800C8EF14F0C1EF14F09E96C95012004C6EB7
:102998004CC04BF04B464B46C2504B18C30B4B1820
:1029A800C26EC28012003D0E4C6E000E4E6E030EBB
:1029B8004D6E09EC14F026EC15F012001B0EC16EDA
:1029C800B50EC06E000EC36E000EC46E010EC26E50
:1029D8001200C2A2F2EF14F0F5EF14F0010EF6EFB8
:1029E80014F0000E1200C4504E6E4D6AC3504D24B0
:1029F8004B6E000E4E204C6E12004B6E4BC0A9FF62
:102A0800A69CA69EA68000000000A8501200506E4A
:102A180050C03FF03E8ED7EC14F01DEC15F01200BC
:102A2800506E50C03FF03E9ED7EC14F01DEC15F0F0
:102A380012008C9C000E4C6E030E4B6EFBEC12F0D9
:102A48008C8C12008C8E000E4C6E030E4B6EFBECC1
:102A580012F08C9E1200400EC76E210EC66E010E3B
:102A6800C86E9496C69A12006461746100000000F2
:102A78000000000000000000CB680C0EBD6E9494AE
:102A88007E0ECA6EBE681200F2941050D76E0FC048
:102A9800D6FF52EC14F012003030303030202020B5
:072AA80020205E7F02020FF7
:102AB0005E0E4B6E160E4C6E6AEC15F01200506EE8
:102AC00050C03DF0D7EC14F01200516E51500BEC99
:102AD00015F012004BC06FF04CC070F01200720E77
:102AE000D36E000E9B6E12004BC073F04CC074F09E
:102AF00012004BC071F04CC072F012004BC0BCF021
:102B00004CC0BDF012004BC0BEF04CC0BFF0120074
:102B10004BC0BAF04CC0BBF01200AB98AB881200AF
:102B20007DEC14F01200C2821200D09E120012003E
:022B3000120091
:107DD000000000000000000000E82AC620F22A008F
:107DE0000066270823000000007C290000122800FC
:107DF000000000000000000000214001000A401FB8
:107E0000005265636569766520746573743A205421
:107E10007970652061206D65737361676520746892
:107E2000656E20707265737320656E7465722028AC
:107E30006D6178203136206368617273293A00439E
:107E4000616C6962726174696F6E2020202020006D
:107E500050726F6772616D205350203F20202020A8
:107E60000043616C6962726174696F6E3F2020200B
:107E7000200050726F6772616D206D6F6465202005
:107E800020200053656C656374206D6F64653A2D26
:107E90002020200052652050726F6772616D202093
:107EA0003F2020200052652043616C69627261743A
:107EB000653F202020004D6F746F72206F766572D1
:107EC0006C6F61642121004D6F746F722074656D59
:107ED0007020747269702100546F72712E20667563
:107EE0006C6C20636C6F73650056616C7665206600
:107EF000756C6C20636C6F73650056616C766520E1
:107F000066756C6C20206F70656E00546F727175B1
:107F1000652066756C6C206F70656E00456E7465CB
:107F20007220687973746572657369730048656C53
:107F30006C6F20576F726C64212025640A002E2E0E
:107F40002E2E2E2E2E2E2E2E2E2E2E2E2E00506F1C
:107F5000776572206F6E20746573742E2E005472D4
:107F6000616E736D697420746573740A00596F755E
:107F70002074797065643A20002059285E29204ECB
:107F80002876290050617373776F72643A004F75D9
:107F900074707574202000506F736974696F6E007F
:107FA00056616C7665506F7300536574506F696EDF
:107FB00074005B4D414E205D20005B4155544F5D88
:107FC0002000416E616C6F672000446967697461CD
:107FD0006C005370616E20005A65726F200043611F
:107FE0006C3F00646174610053503A000A6F6B008B
:107FF0002D2D003C3C003E3C003E3E002563000031
:020000040020DA
:08000000FFFFFFFFFFFFFFFF00
:020000040030CA
:0E000000FF021214FF8181FF0FC00FE00F40BE
:00000001FF
