:0400000007EF00F016
:100008007582BBED0EF036EF12F06DEF04F0000EC6
:10001800516E000EDDEC10F0610E526E7E0E536EC6
:10002800A3EC13F0000E516E010EDDEC10F0060E7D
:10003800526E200E62EC14F0790E526E7F0E536EE3
:10004800A3EC13F022A22BEF00F02DEF00F032EF1B
:1000580000F0000E226E000E216E192A22B037EF32
:1000680000F039EF00F040EF00F022A63EEF00F07C
:1000780040EF00F0AAEF04F0000E226E000E216E91
:10008800000E196E010EABEF04F0000E516E000E5B
:10009800DDEC10F03F0E526E7E0E536EA3EC13F0A3
:1000A800000E516E010EDDEC10F0840E526E7F0EC4
:1000B800536EA3EC13F0040E526E200E62EC14F093
:1000C8006EC053F0546A030E556E42EC0EF06E0E7D
:1000D800536E640E546E010E556EC5EC0DF022A4DD
:1000E80078EF00F07AEF00F092EF00F0000E216E4A
:1000F800000E226E0A0E6E18D8A485EF00F087EF66
:1001080000F08CEF00F00F0E6E6E192A92EF00F0DF
:100118000F0E6E6E000E196E46EF00F022A697EFD6
:1001280000F099EF00F0AAEF04F0000E226E000E26
:10013800216E0F0E6E6E000E196E46EF00F0000E67
:10014800516E000EDDEC10F0A90E526E7F0E536E4C
:10015800A3EC13F0010E526E200E62EC14F0DE0ECA
:10016800526E7F0E536EA3EC13F0030E526E200EE8
:1001780062EC14F0000E516E010EDDEC10F0060E6C
:10018800526E200E62EC14F0790E526E7F0E536E92
:10019800A3EC13F022A2D3EF00F0D5EF00F0DAEFD2
:1001A80000F0000E226E000E216E192A22A0DFEF49
:1001B80000F0E1EF00F0E7EF00F0000E226E000E15
:1001C800216E030E192622A6ECEF00F0EEEF00F0E8
:1001D800AAEF04F0000E226E000E216E0B0E196EAF
:1001E800AAEF04F0000E516E000EDDEC10F0A90E1F
:1001F800526E7F0E536EA3EC13F0010E526E200E5A
:1002080062EC14F02DC04BF02EC04CF0000E4E6E78
:100218000A0E4D6E1CEC11F04BC0B0F04CC0B1F0A2
:10022800B0C053F0B1C054F0030E556E42EC0EF05E
:100238002E0E37EC15F02DC04BF02EC04CF0000EF2
:100248004E6E0A0E4D6E69EC12F04BC0B2F04CC007
:10025800B3F0B2C053F0B3C054F0010E556E42EC87
:100268000EF0250E37EC15F0000E516E010EDDEC88
:1002780010F0D80E526E7F0E536EA3EC13F03AC0F6
:1002880053F0546A040E556E42EC0EF0070E526E8F
:10029800200E62EC14F03A0E576E0CEC14F00009C4
:1002A800D8B459EF01F05BEF01F05CEF01F0192AC7
:1002B80022A661EF01F063EF01F0AAEF04F0EEEF80
:1002C80000F0000E516E000EDDEC10F0A90E526E1B
:1002D8007F0E536EA3EC13F0010E526E200E62ECEB
:1002E80014F02DC04BF02EC04CF0000E4E6E0A0ECE
:1002F8004D6E1CEC11F04BC0B0F04CC0B1F0B0C06A
:1003080053F0B1C054F0030E556E42EC0EF02E0EB1
:1003180037EC15F02DC04BF02EC04CF0000E4E6E91
:100328000A0E4D6E69EC12F04BC0B2F04CC0B3F03F
:10033800B2C053F0B3C054F0010E556E42EC0EF04B
:10034800250E37EC15F0000E516E010EDDEC10F0A5
:10035800D20E526E7F0E536EA3EC13F039C053F0D9
:10036800546A040E556E42EC0EF0070E526E200EC3
:1003780062EC14F0390E576E0CEC14F00009D8B486
:10038800C8EF01F0CAEF01F0CBEF01F0192A22A65D
:10039800D0EF01F0D2EF01F0AAEF04F0EEEF00F099
:1003A800000E516E000EDDEC10F0970E526E7F0EAF
:1003B800536EA3EC13F0010E526E200E62EC14F093
:1003C800DE0E526E7F0E536EA3EC13F0030E526EC8
:1003D800200E62EC14F0000E516E010EDDEC10F0F0
:1003E800060E526E200E62EC14F0790E526E7F0EDD
:1003F800536EA3EC13F022A204EF02F006EF02F012
:100408000BEF02F0000E226E000E216E192A22A0B8
:1004180010EF02F012EF02F018EF02F0000E226E59
:10042800000E216E030E192622A61DEF02F01FEF03
:1004380002F0AAEF04F0EEEF00F0000E516E000E8D
:10044800DDEC10F0970E526E7F0E536EA3EC13F096
:10045800010E526E200E62EC14F02BC04BF02CC033
:100468004CF0000E4E6E0A0E4D6E1CEC11F04BC097
:10047800B0F04CC0B1F0B0C053F0B1C054F0030EAE
:10048800556E42EC0EF02E0E37EC15F02BC04BF0EB
:100498002CC04CF0000E4E6E0A0E4D6E69EC12F038
:1004A8004BC0B2F04CC0B3F0B2C053F0B3C054F07C
:1004B800010E556E42EC0EF0250E37EC15F0000ECD
:1004C800516E010EDDEC10F0D80E526E7F0E536E99
:1004D800A3EC13F038C053F0546A040E556E42EC86
:1004E8000EF0070E526E200E62EC14F0380E576EA6
:1004F8000CEC14F00009D8B484EF02F086EF02F097
:1005080087EF02F0192A22A68CEF02F08EEF02F094
:10051800AAEF04F0EEEF00F0000E516E000EDDECD5
:1005280010F0970E526E7F0E536EA3EC13F0010E6F
:10053800526E200E62EC14F02BC04BF02CC04CF025
:10054800000E4E6E0A0E4D6E1CEC11F04BC0B0F052
:100558004CC0B1F0B0C053F0B1C054F0030E556EAA
:1005680042EC0EF02E0E37EC15F02BC04BF02CC0E1
:100578004CF0000E4E6E0A0E4D6E69EC12F04BC038
:10058800B2F04CC0B3F0B2C053F0B3C054F0010E97
:10059800556E42EC0EF0250E37EC15F0000E516E3C
:1005A800010EDDEC10F0D20E526E7F0E536EA3ECEE
:1005B80013F037C053F0546A040E556E42EC0EF037
:1005C800070E526E200E62EC14F0370E576E0CECCC
:1005D80014F00009D8B4F3EF02F0F5EF02F0F6EFEB
:1005E80002F0192A22A6FBEF02F0FDEF02F0AAEFB3
:1005F80004F0EEEF00F0000E516E000EDDEC10F08E
:100608008E0E526E7F0E536EA3EC13F0010E526ED7
:10061800200E62EC14F0DE0E526E7F0E536EA3ECC9
:1006280013F0030E526E200E62EC14F0000E516EA1
:10063800010EDDEC10F0060E526E200E62EC14F086
:10064800790E526E7F0E536EA3EC13F022A22FEF99
:1006580003F031EF03F036EF03F0000E226E000EC8
:10066800216E192A22A03BEF03F03DEF03F043EF80
:1006780003F0000E226E000E216E030E192622A62C
:1006880048EF03F04AEF03F0AAEF04F0EEEF00F0B2
:10069800000E516E000EDDEC10F08E0E526E7F0EC5
:1006A800536EA3EC13F0010E526E200E62EC14F0A0
:1006B80031C04BF032C04CF0000E4E6E0A0E4D6E3B
:1006C8001CEC11F04BC0B0F04CC0B1F0B0C053F00E
:1006D800B1C054F0030E556E42EC0EF02E0E37ECFE
:1006E80015F031C04BF032C04CF0000E4E6E0A0EC1
:1006F8004D6E69EC12F04BC0B2F04CC0B3F0B2C012
:1007080053F0B3C054F0010E556E42EC0EF0250EB6
:1007180037EC15F0000E516E010EDDEC10F0D80E1E
:10072800526E7F0E536EA3EC13F038C053F0546A28
:10073800040E556E42EC0EF0070E526E200E62EC5F
:1007480014F0380E576E0CEC14F00009D8B4AFEF63
:1007580003F0B1EF03F0B2EF03F0192A22A6B7EFC6
:1007680003F0B9EF03F0AAEF04F0EEEF00F0000E8B
:10077800516E000EDDEC10F0970E526E7F0E536E28
:10078800A3EC13F0010E526E200E62EC14F031C08F
:100798004BF032C04CF0000E4E6E0A0E4D6E1CEC43
:1007A80011F04BC0B0F04CC0B1F0B0C053F0B1C0C4
:1007B80054F0030E556E42EC0EF02E0E37EC15F089
:1007C80031C04BF032C04CF0000E4E6E0A0E4D6E2A
:1007D80069EC12F04BC0B2F04CC0B3F0B2C053F0A9
:1007E800B3C054F0010E556E42EC0EF0250E37ECF6
:1007F80015F0000E516E010EDDEC10F0D20E526EA7
:100808007F0E536EA3EC13F037C053F0546A040EF6
:10081800556E42EC0EF0070E526E200E62EC14F08C
:10082800370E576E0CEC14F00009D8B41EEF04F024
:1008380020EF04F021EF04F0192A22A626EF04F095
:1008480028EF04F0AAEF04F0EEEF00F0000E516E6E
:10085800000EDDEC10F0A50E526E7E0E536EA3EC6A
:1008680013F0000E516E010EDDEC10F0060E526E04
:10087800200E62EC14F0790E526E7F0E536EA3ECCC
:1008880013F022A24AEF04F04CEF04F052EF04F008
:10089800000E226E000E216E020E196E22A057EF76
:1008A80004F059EF04F0AAEF04F0000E226E000ED7
:1008B800216E000E196E370E4E6E020E4F6E060E2A
:1008C800506E1CEC13F046EF00F0000E196EAAEF04
:1008D80004F019505E6E5F6A5F50000AD8B477EF73
:1008E80004F069EF04F05E50000AD8B40BEF00F092
:1008F800010AD8B449EF00F0030AD8B4A3EF00F016
:10090800010AD8B4F6EF00F0070AD8B465EF01F091
:10091800010AD8B4D4EF01F0030AD8B421EF02F0E9
:10092800010AD8B490EF02F00F0AD8B4FFEF02F032
:10093800010AD8B44CEF03F0030AD8B4BBEF03F0B4
:10094800010AD8B42AEF04F069EF04F0000E12008F
:1009580057EF06F0000E516E000EDDEC10F0500E51
:10096800526E7E0E536EA3EC13F0000E516E010E04
:10097800DDEC10F0060E526E200E62EC14F0790ECB
:10098800526E7F0E536EA3EC13F022A2CEEF04F04A
:10099800D0EF04F0D5EF04F0000E226E000E216EA9
:1009A8001A2A22B0DAEF04F0DCEF04F0E3EF04F0E7
:1009B80022A6E1EF04F0E3EF04F078EF06F0000E72
:1009C800226E000E216E000E1A6E010E79EF06F0EF
:1009D800000E516E000EDDEC10F0720E526E7E0E9F
:1009E800536EA3EC13F0000E516E010EDDEC10F007
:1009F800840E526E7F0E536EA3EC13F0040E526EEB
:100A0800200E62EC14F06EC053F0546A030E556E5B
:100A180042EC0EF06E0E536E640E546E010E556E5F
:100A2800C5EC0DF022A41BEF05F01DEF05F035EF26
:100A380005F0000E216E000E226E0A0E6E18D8A464
:100A480028EF05F02AEF05F02FEF05F01A2A0F0E10
:100A58006E6E35EF05F0000E1A6E0F0E6E6EE9EF32
:100A680004F022A63AEF05F03CEF05F078EF06F027
:100A7800000E226E000E216E0F0E6E6E000E1A6EA4
:100A8800E9EF04F0000E516E000EDDEC10F01C0EC4
:100A9800526E7F0E536EA3EC13F0000E516E010ED2
:100AA800DDEC10F00A0E526E200E62EC14F040C01D
:100AB8004BF04C6A000E4E6E0A0E4D6E21EC0FF094
:100AC8004BC053F04CC054F0030E556E42EC0EF080
:100AD8002E0E37EC15F040C04BF04C6A000E4E6EEF
:100AE8000A0E4D6EDDEC0FF04BC053F04CC054F0C5
:100AF800010E556E42EC0EF0250E37EC15F0400E47
:100B0800536E640E546E010E556EC5EC0DF022A4A2
:100B180090EF05F092EF05F097EF05F0000E226ECA
:100B2800000E216E1A2A22A69CEF05F09EEF05F012
:100B380078EF06F0000E226E000E216E040E1A6E7B
:100B480078EF06F0000E516E000EDDEC10F0830E0B
:100B5800526E7E0E536EA3EC13F0000E516E010E12
:100B6800DDEC10F0090E526E200E62EC14F0410418
:100B7800D8A4C1EF05F0C3EF05F0CBEF05F0C20E26
:100B8800526E7F0E536EA3EC13F0D1EF05F0CA0E30
:100B9800526E7F0E536EA3EC13F022B2D6EF05F01F
:100BA800D8EF05F0DFEF05F022A0DDEF05F0DFEF6D
:100BB80005F0F1EF05F0000E226E000E216E4104E3
:100BC800D8A4E9EF05F0EBEF05F0EFEF05F0000E24
:100BD800416EF1EF05F0010E416E22A4F6EF05F02B
:100BE800F8EF05F0FDEF05F0000E226E000E216E05
:100BF8001A2A22A602EF06F004EF06F078EF06F0B4
:100C08009EEF05F0000E516E000EDDEC10F0940E14
:100C1800526E7E0E536EA3EC13F0000E516E010E51
:100C2800DDEC10F0060E526E200E62EC14F0790E18
:100C3800526E7F0E536EA3EC13F022A226EF06F03D
:100C480028EF06F02EEF06F0000E226E000E216E41
:100C5800020E1A6E22B033EF06F035EF06F043EFBE
:100C680006F022B43AEF06F03CEF06F043EF06F048
:100C780022A641EF06F043EF06F078EF06F0000EEB
:100C8800226E000E216E400E4E6E000E4F6E020E4A
:100C9800506E1CEC13F0000E1A6EE9EF04F0000E13
:100CA8001A6E78EF06F01A505E6E5F6A5F50000A9F
:100CB800D8B461EF06F053EF06F05E50000AD8B4DE
:100CC800AEEF04F0010AD8B4ECEF04F0030AD8B48C
:100CD80046EF05F0010AD8B4A6EF05F0070AD8B424
:100CE80006EF06F053EF06F0000E1200000E516EEC
:100CF800000EDDEC10F033A484EF06F086EF06F06A
:100D08008EEF06F0F60E526E7F0E536EA3EC13F0C4
:100D1800B2EF06F033A093EF06F095EF06F09DEFE3
:100D280006F0F90E526E7F0E536EA3EC13F0B2EF7D
:100D380006F033A2A2EF06F0A4EF06F0ACEF06F03F
:100D4800F30E526E7F0E536EA3EC13F0B2EF06F063
:100D5800F00E526E7F0E536EA3EC13F0A00E526E7F
:100D68007F0E536EA3EC13F02BC04BF02CC04CF04D
:100D7800000E4E6E0A0E4D6E1CEC11F04BC0B0F01A
:100D88004CC0B1F0B0C053F0B1C054F0030E556E72
:100D980042EC0EF02E0E37EC15F02BC04BF02CC0A9
:100DA8004CF0000E4E6E0A0E4D6E69EC12F04BC000
:100DB800B2F04CC0B3F0B2C053F0B3C054F0010E5F
:100DC800556E42EC0EF0250E37EC15F0000E516E04
:100DD800010EDDEC10F0DFEF07F035A0F6EF06F0BE
:100DE800F8EF06F00BEF07F00B0E526E7F0E536E06
:100DF800A3EC13F02350D8B404EF07F006EF07F084
:100E080004EF08F0000E236E1B2A04EF08F01B2ADB
:100E180035A211EF07F013EF07F023EF07F0D80E14
:100E2800526E7E0E536EA3EC13F02350D8B41FEF0E
:100E380007F021EF07F004EF08F006EF07F01B2A90
:100E480035A429EF07F02BEF07F03BEF07F0FA0E78
:100E5800526E7E0E536EA3EC13F02350D8B437EFC6
:100E680007F039EF07F004EF08F006EF07F01B2A48
:100E780035A641EF07F043EF07F053EF07F0E90E0F
:100E8800526E7E0E536EA3EC13F02350D8B44FEF7E
:100E980007F051EF07F004EF08F006EF07F01B2A00
:100EA80035AA59EF07F05BEF07F06BEF07F0C70EB5
:100EB800526E7E0E536EA3EC13F02350D8B467EF36
:100EC80007F069EF07F004EF08F006EF07F01B2AB8
:100ED80035AC71EF07F073EF07F083EF07F0B60E4C
:100EE800526E7E0E536EA3EC13F02350D8B47FEFEE
:100EF80007F081EF07F004EF08F006EF07F01B2A70
:100F080035A889EF07F08BEF07F093EF07F0BA0EDB
:100F1800526E7F0E536EA3EC13F099EF07F0B20EEA
:100F2800526E7F0E536EA3EC13F0E80E526E7F0ED6
:100F3800536EA3EC13F02FC04BF030C04CF0000EF2
:100F48004E6E0A0E4D6E1CEC11F04BC0B0F04CC04A
:100F5800B1F0B0C053F0B1C054F0030E556E42EC7E
:100F68000EF02E0E37EC15F02FC04BF030C04CF0C1
:100F7800000E4E6E0A0E4D6E69EC12F04BC0B2F0C8
:100F88004CC0B3F0B2C053F0B3C054F0010E556E6C
:100F980042EC0EF0250E37EC15F02350D8B4D7EFFD
:100FA80007F0D9EF07F004EF08F0000E236E000EEB
:100FB8001B6E04EF08F01B505E6E5F6A5F50000AFC
:100FC800D8B4E9EF07F084EF07F05E50000AD8B410
:100FD800F1EF06F0010AD8B40CEF07F0030AD8B411
:100FE80024EF07F0010AD8B43CEF07F0070AD8B499
:100FF80054EF07F0010AD8B46CEF07F084EF07F05C
:101008001200BFEC14F00009D8B40DEF08F00FEF90
:1010180008F005EF08F0C9EC14F04B500B264C50C3
:101028000C22010E6D5ED8B41CEF08F01EEF08F01C
:1010380020EF08F036EF09F0020E6D6ED8900C30F4
:10104800596E0B300001B06F59C0B1F0000E0C6E34
:10105800000E0B6E21EF09F03A50B05D596EB15198
:101068005A6E000E5A5A5B6A5B5A5C6A5C5AAA0E40
:1010780059244B6EFF0E5A204C6EFF0E5B204D6EAE
:10108800FF0E5C204E6E39504F6E506A516A526A9C
:1010980001EC12F04BC0B2F04CC0B3F04DC0B4F04C
:1010A8004EC0B5F0B2C04BF0B3C04CF0B4C04DF078
:1010B800B5C04EF0640E4F6E000E506E000E516EAD
:1010C800000E526E3FEC0DF04BC0B2F04CC0B3F0C6
:1010D8004DC0B4F04EC0B5F00001B5BF81EF08F0C7
:1010E800B551B411B31107E1020EB25DD8B07FEF6C
:1010F80008F081EF08F087EF08F0000E2E6E000E62
:101108002D6EA2EF08F0B5BF98EF08F0B551B411F5
:1011180009E1E90EB25D030EB359D8B096EF08F0B5
:1011280098EF08F09EEF08F0B2C02DF0B3C02EF093
:10113800A2EF08F0030E2E6EE80E2D6E1D2A1D502C
:101148009DEC14F036EF09F03850B05D596EB1518E
:101158005A6E000E5A5A5B6A5B5A5C6A5C5AAA0E4F
:1011680059244B6EFF0E5A204C6EFF0E5B204D6EBD
:10117800FF0E5C204E6E37504F6E506A516A526AAD
:1011880001EC12F04BC0B2F04CC0B3F04DC0B4F05B
:101198004EC0B5F0B2C04BF0B3C04CF0B4C04DF087
:1011A800B5C04EF0640E4F6E000E506E000E516EBC
:1011B800000E526E3FEC0DF04BC0B2F04CC0B3F0D5
:1011C8004DC0B4F04EC0B5F00001B5BFF9EF08F05E
:1011D800B551B411B31107E1020EB25DD8B0F7EF03
:1011E80008F0F9EF08F0FFEF08F0000E2C6E000E83
:1011F8002B6E1AEF09F0B5BF10EF09F0B551B41115
:1012080009E1E90EB25D030EB359D8B00EEF09F04B
:1012180010EF09F016EF09F0B2C02BF0B3C02CF0B4
:101228001AEF09F0030E2C6EE80E2B6E000E1D6EE1
:10123800000E9DEC14F036EF09F01D50596E5A6AF5
:101248005A50000AD8B42BEF09F036EF09F059507C
:10125800000AD8B430EF08F0010AD8B4A8EF08F0B3
:1012680036EF09F065EC15F01200000E566E000E10
:10127800576E35A842EF09F044EF09F07AEF09F00C
:101288004150D8B44AEF09F04CEF09F053EF09F098
:1012980033942DC02FF02EC030F095EF09F036A40E
:1012A80058EF09F05AEF09F061EF09F0000E566E99
:1012B800000E576E338495EF09F036A066EF09F0FB
:1012C80068EF09F06DEF09F0010E566E339495EF53
:1012D80009F036A272EF09F074EF09F078EF09F01F
:1012E800010E576E6AEF09F095EF09F034A47FEF0D
:1012F80009F081EF09F083EF09F05AEF09F034A003
:1013080088EF09F08AEF09F08CEF09F068EF09F02F
:1013180034A291EF09F093EF09F095EF09F074EF1B
:1013280009F035B09AEF09F09CEF09F0BFEF09F02A
:1013380035B2A1EF09F0A3EF09F0BFEF09F035B41A
:10134800A8EF09F0AAEF09F0BFEF09F035B6AFEF43
:1013580009F0B1EF09F0BFEF09F035BAB6EF09F0BF
:10136800B8EF09F0BFEF09F035ACBDEF09F0BFEFFA
:1013780009F0C0EF09F0338433A4C5EF09F0C7EFD3
:1013880009F0CBEF09F03390339222EF0AF0415085
:10139800D8B4D1EF09F0D3EF09F008EF0AF035A877
:1013A800D8EF09F0DAEF09F008EF0AF040502F24DF
:1013B800546E000E3020556E2B50545C2C505558EE
:1013C800D8B0E9EF09F0EBEF09F0EFEF09F033904F
:1013D800338222EF0AF040502B24546E000E2C204A
:1013E800556E2F50545C30505558D8B0FEEF09F068
:1013F80000EF0AF004EF0AF03380339222EF0AF08C
:101408003392339022EF0AF02BC02FF02CC030F02B
:101418005650D8B412EF0AF014EF0AF018EF0AF099
:101428003380339222EF0AF05750D8B41EEF0AF0F7
:1014380020EF0AF0C7EF09F033903382C9EC11F0BE
:10144800120081BE2AEF0AF02CEF0AF02FEF0AF003
:10145800348030EF0AF0349081BC35EF0AF037EF72
:101468000AF03AEF0AF034823BEF0AF0349281BA7C
:1014780040EF0AF042EF0AF045EF0AF0348446EFF5
:101488000AF0349434A402D0348C01D0349C34A0B3
:1014980002D0348801D0349834A202D0348A01D0E2
:1014A800349A81B25AEF0AF05CEF0AF05FEF0AF063
:1014B800358060EF0AF0359081B065EF0AF067EF8C
:1014C8000AF06AEF0AF035826BEF0AF0359281B6BE
:1014D80070EF0AF072EF0AF075EF0AF0358476EFD4
:1014E8000AF0359481B47BEF0AF07DEF0AF080EFC3
:1014F8000AF0358681EF0AF0359681B886EF0AF052
:1015080088EF0AF08BEF0AF035888CEF0AF03598EF
:1015180082B291EF0AF093EF0AF096EF0AF0358A5B
:1015280097EF0AF0359A82B09CEF0AF09EEF0AF026
:10153800A1EF0AF0358CA2EF0AF0359C80BAA7EF2C
:101548000AF0A9EF0AF0ACEF0AF03680ADEF0AF026
:10155800369084B0B2EF0AF0B4EF0AF0B7EF0AF0B1
:101568003682B8EF0AF0369284B2BDEF0AF0BFEFC8
:101578000AF0C2EF0AF03684C3EF0AF0369436ACAC
:10158800C8EF0AF0CAEF0AF0D3EF0AF036A4CFEF9B
:101598000AF0D1EF0AF0D3EF0AF03690369236A867
:1015A800D8EF0AF0DAEF0AF0E2EF0AF036A0DFEF40
:1015B8000AF0E1EF0AF0E2EF0AF0369236AAE7EF16
:1015C8000AF0E9EF0AF0F1EF0AF036A2EEEF0AF0BE
:1015D800F0EF0AF0F1EF0AF0369036A402D0368C1C
:1015E80001D0369C36A002D0368801D0369836A273
:1015F80002D0368A01D0369A12000F0E095C0E0E00
:101608000A58D8B00AEF0BF00CEF0BF010EF0BF004
:10161800094A0A2A1CEF0BF0000E0A6E000E096E2A
:10162800010E236E010E166E010E136E010E1F6E53
:10163800010E206E09C042F00AC043F0070E456E45
:10164800080E446E9BEC12F042504310D8A42FEFC2
:101658000BF031EF0BF033EF0BF0010E136E09C0F6
:1016680042F00AC043F0000E456E1E0E446E9BEC1D
:1016780012F042504310D8A444EF0BF046EF0BF0A1
:101688004AEF0BF0010E236E010E166E09C042F0F0
:101698000AC043F0000E456E0A0E446E9BEC12F031
:1016A80042504310D8A45BEF0BF05DEF0BF06AEFEC
:1016B8000BF0010E146E1150D8B465EF0BF068EF03
:1016C8000BF0010E69EF0BF0000E116E09C042F02D
:1016D8000AC043F0000E456E050E446E9BEC12F0F6
:1016E80042504310D8A47BEF0BF07DEF0BF088EF4E
:1016F8000BF01250D8B483EF0BF086EF0BF0010E0D
:1017080087EF0BF0000E126E09B08DEF0BF08FEF24
:101718000BF091EF0BF0010E156E000E186E83B2F0
:1017280098EF0BF09AEF0BF09BEF0BF0188083B457
:10173800A0EF0BF0A2EF0BF0A3EF0BF0188283B62B
:10174800A8EF0BF0AAEF0BF0ABEF0BF0188483B8FF
:10175800B0EF0BF0B2EF0BF0B3EF0BF018861750A9
:10176800FF0A1814221218C017F01850D8B4BFEF87
:101778000BF0C1EF0BF0D2EF0BF06C50D8A4C7EF11
:101788000BF0C9EF0BF0CFEF0BF0020E6C6E185098
:101798002112D4EF0BF06C06D4EF0BF0020E6C6E36
:1017A800120081EC14F0F28EF28C2AEC15F0000E87
:1017B8008DEC10F090EC11F0000E516E000EDDEC87
:1017C80010F04E0E526E7F0E536EA3EC13F0000E07
:1017D800516E010EDDEC10F03E0E526E7F0E536E10
:1017E800A3EC13F09CEC0CF0F5EC12F012EC15F0F5
:1017F800000E4C6ECC0E4B6E83EC0FF004002050A4
:10180800D8B409EF0CF00BEF0CF04DEF0CF0000E14
:10181800206E05EC08F025EC0AF04DEF0CF01F5097
:10182800D8B419EF0CF01BEF0CF01FEF0CF0000E02
:101838001F6E90EC11F039EC09F07AEC06F022A654
:1018480028EF0CF02AEF0CF067EF0CF0000E226E78
:10185800000E216E1E2A67EF0CF039EC09F0ACEC93
:1018680004F00009D8B43BEF0CF03DEF0CF067EF43
:101878000CF02EEF0CF009EC00F00009D8B447EF9B
:101888000CF049EF0CF067EF0CF0000E1E6E67EFDE
:101898000CF01E500001B66FB76BB751000AD8B4F0
:1018A80058EF0CF049EF0CF0B651000AD8B413EF1A
:1018B8000CF0010AD8B431EF0CF0030AD8B43FEFAA
:1018C8000CF049EF0CF02B500001B66F2C50B76F9D
:1018D800B86BB96B020ED890B637B737B837B93787
:1018E800E82E6FEF0CF0B6C04BF0B7C04CF0B8C0A4
:1018F8004DF0B9C04EF0050E4F6E000E506E000E42
:10190800516E000E526E3FEC0DF0CC0E4B24316E32
:10191800000E4C20326E31C04BF032C04CF083ECDC
:101928000FF0F5EC12F0040003EF0CF007EF00F0F5
:10193800400E4C6E000E4D6E020E4E6E41EC13F0D2
:101948004050D8B4AAEF0CF0ACEF0CF0B4EF0CF0A8
:10195800640E4064B2EF0CF0B4EF0CF0B6EF0CF08C
:101968000A0E406E4104D8B4BCEF0CF0BEEF0CF088
:10197800C8EF0CF04150D8B4C4EF0CF0C6EF0CF02F
:10198800C8EF0CF0000E416E370E4C6E020E4D6E15
:10199800060E4E6E41EC13F03750D8B4D6EF0CF06B
:1019A800D8EF0CF0E0EF0CF0C80E3764DEEF0CF067
:1019B800E0EF0CF0E2EF0CF0640E376E3850D8B45C
:1019C800E8EF0CF0EAEF0CF0F2EF0CF0C80E386418
:1019D800F0EF0CF0F2EF0CF0F4EF0CF0640E386E50
:1019E8003950D8B4FAEF0CF0FCEF0CF004EF0DF01E
:1019F800C80E396402EF0DF004EF0DF006EF0DF09C
:101A0800640E396E3A50D8B40CEF0DF00EEF0DF0AD
:101A180016EF0DF0C80E3A6414EF0DF016EF0DF046
:101A280018EF0DF0640E3A6E3950D8B41EEF0DF071
:101A380020EF0DF028EF0DF0C80E396426EF0DF0F9
:101A480028EF0DF02AEF0DF0640E396E3C50D8B433
:101A580030EF0DF032EF0DF03AEF0DF0C80E3C64A8
:101A680038EF0DF03AEF0DF03CEF0DF0640E3C6EE0
:101A7800000E1C6E1200000E546E52BE48EF0DF0A0
:101A880046EF0DF052EF0DF0521E511E501E4F6CD6
:101A9800000E502251225222010E546E4EBE59EFB2
:101AA8000DF057EF0DF063EF0DF04E1E4D1E4C1E5E
:101AB8004B6C000E4C224D224E22010E541A000E81
:101AC800556E000E566E000E576E000E586E4F5033
:101AD800501051105210D8B474EF0DF076EF0DF08D
:101AE800ACEF0DF0010E536E80EF0DF0D8904F362D
:101AF800503651365236532A52AE85EF0DF087EFE5
:101B08000DF07AEF0DF0D8905536563657365836D0
:101B18004F504B5C50504C5851504D5852504E58A5
:101B2800D8A099EF0DF09BEF0DF0A4EF0DF04F50FA
:101B38004B5E50504C5A51504D5A52504E5A558047
:101B4800D8905232513250324F32532E87EF0DF027
:101B58005450D8B4B2EF0DF0B4EF0DF0BCEF0DF067
:101B6800581E571E561E556C000E562257225822D4
:101B780055C04BF056C04CF057C04DF058C04EF011
:101B880012005350D96EDA6A5550DE5CD8A0CFEFF8
:101B98000DF0D1EF0DF0DDEF0DF05350D96EDA6A8C
:101BA800DE50545CD8B0DBEF0DF0DDEF0DF0EDEF5B
:101BB8000DF05350D96EDA6A545055244B6E4C6A66
:101BC8004C36000E4E6E020E4D6E21EC0FF04B504F
:101BD800DF6E22B2F2EF0DF0F4EF0DF0FBEF0DF037
:101BE80021A2F9EF0DF0FBEF0DF018EF0EF0000E4B
:101BF800226E000E216E5350D96EDA6A5450DE5CA4
:101C0800D8B009EF0EF00BEF0EF011EF0EF05350B5
:101C1800D96EDA6ADF2A41EF0EF05350D96EDA6ACC
:101C280054C0DFFF41EF0EF022B01DEF0EF01FEFA2
:101C38000EF026EF0EF021A024EF0EF026EF0EF0A6
:101C480041EF0EF0000E226E000E216E5350D96E39
:101C5800DA6ADE50555CD8B034EF0EF036EF0EF08D
:101C68003CEF0EF05350D96EDA6ADF0641EF0EF002
:101C78005350D96EDA6A55C0DFFF1200010E5D6E4F
:101C880020EE65F010EE57F0040EDBCFE3FFE80618
:101C9800FCE2050E556453EF0EF055EF0EF098EF89
:101CA8000EF0050E556E98EF0EF05D50555CD8B0ED
:101CB80060EF0EF062EF0EF064EF0EF0A0EF0EF0A2
:101CC80053C04BF054C04CF0000E4E6E0A0E4D6ED1
:101CD80069EC12F04B505C6E5DC056F0FF0E562654
:101CE8005650570FD96EDA6A5C50300FDF6E5C5071
:101CF800535C4B6E5450D8A054044C6E000E4E6E7C
:101D08000A0E4D6E1CEC11F04BC053F04CC054F051
:101D180053505410D8A493EF0EF095EF0EF097EFB0
:101D28000EF0A0EF0EF05D2A050E5D649EEF0EF03A
:101D3800A0EF0EF059EF0EF055C05DF05D50D8A43D
:101D4800A8EF0EF0AAEF0EF0ACEF0EF0BAEF0EF01F
:101D58005DC056F0FF0E56265650570FD96EDA6AF8
:101D6800DF5037EC15F05D06A2EF0EF0120006000A
:101D7800FACF47F0FBCF48F0D9CF49F0DACF4AF095
:101D8800F2AAC9EF0EF0CBEF0EF0D6EF0EF0F2A4E8
:101D9800D0EF0EF0D2EF0EF0D6EF0EF01AEC15F0F1
:101DA80017EF0FF0F2ACDBEF0EF0DDEF0EF017EFF0
:101DB8000FF09DA8E2EF0EF0E4EF0EF0FAEF0EF050
:101DC8009EA8E9EF0EF0EBEF0EF0FAEF0EF002D856
:101DD800F8EF0EF00500FA6E7350FD6E7450FE6E4B
:101DE800F850FF6EFA50120017EF0FF09DAAFFEFA0
:101DF8000EF001EF0FF017EF0FF09EAA06EF0FF0AD
:101E080008EF0FF017EF0FF002D815EF0FF00500ED
:101E1800FA6E7150FD6E7250FE6EF850FF6EFA50F9
:101E2800120017EF0FF04AC0DAFF49C0D9FF48C0C7
:101E3800FBFF47C0FAFF75921100000E506E4EBEB0
:101E48002AEF0FF028EF0FF030EF0FF04D6C4E1E19
:101E5800D8B04E2A010E506E4CBE37EF0FF035EF5A
:101E68000FF03DEF0FF04B6C4C1ED8B04C2A010E12
:101E7800501A000E526E000E516E4D504E10D8B4CE
:101E880048EF0FF04AEF0FF072EF0FF0010E4F6EB0
:101E980052EF0FF0D8904D364E364F2A4EAE57EFD0
:101EA8000FF059EF0FF04EEF0FF0D8905136523631
:101EB8004D504B5C4E504C58D8A065EF0FF067EF73
:101EC8000FF06CEF0FF04D504B5E4E504C5A518056
:101ED800D8904E324D324F2E59EF0FF05050D8B4A3
:101EE80078EF0FF07AEF0FF07EEF0FF0516C521E83
:101EF800D8B0522A51C04BF052C04CF01200040E18
:101F08004C5CD8A08AEF0FF08CEF0FF08FEF0FF03A
:101F1800030E4C6E4B684C5007E1CC0E4B5CD8B0AE
:101F280098EF0FF09AEF0FF09EEF0FF0000E4C6E47
:101F3800CC0E4B6E4BC04DF04CC04EF0D8904E328C
:101F48004D32D8904E324D324D50BE6EBCEF0FF030
:101F5800BD8ABD88DCEF0FF0BD8ABD98DCEF0FF0BD
:101F6800BD9ABD88DCEF0FF0BD9ABD98DCEF0FF08D
:101F7800010E4B144D6E000E4C144E6E4E50000A5E
:101F8800D8B4C9EF0FF0DCEF0FF04D50000AD8B409
:101F9800B8EF0FF0010AD8B4B4EF0FF0030AD8B4C1
:101FA800B0EF0FF0010AD8B4ACEF0FF0DCEF0FF090
:101FB8001200000E506E4CBEE6EF0FF0E4EF0FF08B
:101FC800ECEF0FF04B6C4C1ED8B04C2A010E506E43
:101FD8004EBEF3EF0FF0F1EF0FF0F7EF0FF04D6C8F
:101FE8004E1ED8B04E2A4D504E10D8B4FEEF0FF00A
:101FF80000EF10F024EF10F0010E4F6E08EF10F014
:10200800D8904D364E364F2A4EAE0DEF10F00FEFEA
:1020180010F004EF10F04D504B5C4E504C58D8A0C7
:1020280018EF10F01AEF10F01EEF10F04D504B5E45
:102038004E504C5AD8904E324D324F2E0FEF10F072
:102048005050D8B42AEF10F02CEF10F030EF10F009
:102058004B6C4C1ED8B04C2A4BC04BF04CC04CF0CB
:1020680012002750010FD96EDA6ADF6AABA43FEF7E
:1020780010F041EF10F054EF10F02750010FD96E17
:10208800DA6ADF8202D854EF10F005000001FA6E18
:10209800BE51FD6EBF51FE6EF850FF6EFA50120031
:1020A800ABA259EF10F05BEF10F06EEF10F0275075
:1020B800010FD96EDA6ADF8402D86EEF10F00500DE
:1020C8000001FA6EBC51FD6EBD51FE6EF850FF6EF8
:1020D800FA5012002750010FD96EDA6ADF50D8B4CF
:1020E80078EF10F07AEF10F08AEF10F002D888EF4E
:1020F80010F005000001FA6EBA51FD6EBB51FE6E7C
:10210800F850FF6EFA5012008CEF10F04FEC14F0FC
:1021180012004C6EC6BA93EF10F095EF10F0DBEF9B
:1021280010F04C50040D010EF326000EF422F90EA7
:10213800F324F66E7D0EF420F76E0800F5CFC7FF86
:102148004C50040DF90EF324F66E7D0EF420F76E54
:102158000800F5CFC6FF000EC56E4C50040D020EE8
:10216800F326000EF422F90EF324F66E7D0EF42009
:10217800F76E0800F5CFC8FF4C50040D030EF32688
:10218800000EF422F90EF324F66E7D0EF420F76E9D
:102198000800F5CF4BF04B464B464B4694504B1836
:1021A800F70B4B18946EC68A010EDCEF10F0000E88
:1021B8001200546EFEEF10F05150800FE6EC14F050
:1021C8001BEF11F05150C00FE6EC14F01BEF11F0AB
:1021D8005150900FE6EC14F01BEF11F05150D00F56
:1021E800E6EC14F01BEF11F05150C00FE6EC14F0C0
:1021F8001BEF11F05450526E536A5350000AD8B472
:1022080008EF11F0F8EF10F05250000AD8B4E0EFE0
:1022180010F0010AD8B4E6EF10F0030AD8B4ECEFD6
:1022280010F0010AD8B4F2EF10F0F8EF10F0120035
:10223800000E516E000E506E4D504E10D8B427EF60
:1022480011F029EF11F051EF11F0010E4F6E31EF3F
:1022580011F0D8904D364E364F2A4EAE36EF11F06B
:1022680038EF11F02DEF11F0D890503651364D500F
:102278004B5C4E504C58D8A044EF11F046EF11F08B
:102288004BEF11F04D504B5E4E504C5A5080D89049
:102298004E324D324F2E38EF11F050C04BF051C036
:1022A8004CF012009D9A6A0E4B6E200E4C6E4BEC51
:1022B80015F09D980A0E4B6E270E4C6E46EC15F0E5
:1022C800080EB86E900EAB6E240EAC6E080EAF6E94
:1022D800020EB06ED40E4B6E2A0E4C6E55EC15F0F5
:1022E800BE0E4B6E2A0E4C6E50EC15F0C40E4B6EA3
:1022F8002A0E4C6E5AEC15F0000E246E000E2A6E53
:10230800000E296E080E286E000E276E000E266E2F
:10231800000E256E9D8A12008C9A000E4C6E050EDA
:102328004B6EF4EC13F08C8A380EE6EC14F0000EC9
:102338004C6E050E4B6EF4EC13F0380EE6EC14F010
:10234800000E4C6E050E4B6EF4EC13F0380EE6ECF6
:1023580014F00C0EE6EC14F0000E4C6E050E4B6EED
:10236800F4EC13F0020EE6EC14F0000E4C6E050EC1
:102378004B6EF4EC13F0010EE6EC14F0000E4C6E0C
:10238800050E4B6EF4EC13F01200000E536E33A0E2
:10239800D0EF11F0D2EF11F0D3EF11F0538A33A23E
:1023A800D8EF11F0DAEF11F0DBEF11F0538833A416
:1023B800E0EF11F0E2EF11F0E3EF11F0538635A4EE
:1023C800E8EF11F0EAEF11F0EBEF11F0538435A6C6
:1023D800F0EF11F0F2EF11F0F3EF11F0538235A89E
:1023E800F8EF11F0FAEF11F0FBEF11F05380000E47
:1023F800506E535072EC14F01200000E536E000E23
:10240800546E000E556E000E566E4BA00EEF12F075
:1024180010EF12F018EF12F04F505326505054227C
:102428005150552252505622D8904F365036513678
:102438005236D8904E324D324C324B324B504C10B3
:102448004D104E10D8A42BEF12F02DEF12F009EF1B
:1024580012F053C04BF054C04CF055C04DF056C06C
:102468004EF01200140EF66E2A0EF76E000EF86E7D
:1024780000EEA0F010EE10F00900F5CFEEFFE550E9
:10248800E150FAE1440EF66E2A0EF76E000EF86E71
:1024980000EE60F010EE0FF00900F5CFEEFFE5500A
:1024A800E150FAE100EE80F0200EEE6AE806FDE168
:1024B80000EE01F0410EEE6AE806FDE175907592B6
:1024C800000EF86E0001D5EF0BF04D504E10D8B449
:1024D80070EF12F072EF12F096EF12F0010E4F6EDD
:1024E8007AEF12F0D8904D364E364F2A4EAE7FEF27
:1024F80012F081EF12F076EF12F04D504B5C4E5017
:102508004C58D8A08AEF12F08CEF12F090EF12F02E
:102518004D504B5E4E504C5AD8904E324D324F2E45
:1025280081EF12F04BC04BF04CC04CF012004450FD
:102538004510D8B4A2EF12F0A4EF12F0C8EF12F0D1
:10254800010E466EACEF12F0D89044364536462A56
:1025580045AEB1EF12F0B3EF12F0A8EF12F044500D
:10256800425C45504358D8A0BCEF12F0BEEF12F0C1
:10257800C2EF12F04450425E4550435AD89045325B
:102588004432462EB3EF12F042C042F043C043F04B
:102598001200D7EF12F0350EE82EFED70000200EFD
:1025A8004B5E000E4C5A4C5007E1200E4B5CD8B0E5
:1025B800E0EF12F0E2EF12F0CFEF12F0E7EF12F0D7
:1025C80000D000D000004B06D8A04C064B2806E1EE
:1025D8004C28D8A4F2EF12F0F4EF12F0E4EF12F066
:1025E800120033A0FAEF12F0FCEF12F000EF13F034
:1025F8001C801C920DEF13F033A205EF13F007EFC8
:1026080013F00BEF13F01C901C820DEF13F01C90CD
:102618001C9235A812EF13F014EF13F017EF13F014
:102628001C8418EF13F01C941C5031EC15F01200A8
:10263800000E556E000E546E2EEF13F04E50D96EEC
:10264800DA6ADF504B6E4F5065EC13F04E2A4F2A72
:10265800544A552A5050516E526A5150545C555044
:10266800800A536E5250800A5358D8A03EEF13F098
:1026780040EF13F022EF13F01200000E536E000E1D
:10268800526E52EF13F04C50D96EDA6A4D50D3ECBB
:1026980014F0DF6E4D2A4C2A524A532A4E504F6E80
:1026A800506A4F50525C5350800A516E5050800A05
:1026B8005158D8A062EF13F064EF13F047EF13F00E
:1026C80012004C6E000EF2BE010E4D6E4CC0A9FFFA
:1026D8004BC0A8FFA69EA69CA684F29E550EA76E88
:1026E800AA0EA76EA682A6B27CEF13F07EEF13F0B7
:1026F80077EF13F0A6944DB002D0F29E01D0F28E7F
:102708001200080E28608BEF13F08DEF13F0A1EF85
:1027180013F02950880FD96EDA6ADF50AD6E292A76
:10272800070E29649AEF13F09CEF13F09EEF13F055
:10273800000E296E282AA2EF13F09D981200B1EF1F
:1027480013F052C0F6FF53C0F7FF0800F5CF54F05E
:10275800545037EC15F0524A532A52C0F6FF53C072
:10276800F7FF0800F5500009D8A4BDEF13F0BFEF3C
:1027780013F0A5EF13F01200D59CF30ED76ECB0E15
:10278800D66ED650D7CF4DF04E6A4DC04EF04D6A3A
:102798004D100F6E4E50106EF294F28AD20E4B6EA0
:1027A8002A0E4C6E3CEC15F0850ED56E12004CC00E
:1027B8004FF0E6EF13F04F50D96EDA6ADF5090EC25
:1027C80014F04F2A4D06D8A04E064D2806E14E2893
:1027D800D8A4F1EF13F0F3EF13F0DFEF13F01200CA
:1027E800FEEF13F0070E4D6E7D0EE82EFED74D2E30
:1027F800FCD700004B06D8A04C064B2806E14C2815
:10280800D8A409EF14F00BEF14F0F6EF13F0120050
:1028180057C053F0C80E546E010E556EC5EC0DF03E
:1028280022A419EF14F01BEF14F022EF14F0000E9D
:10283800226E000E216E010E23EF14F0000E12001E
:102848006F507010D8B42BEF14F02DEF14F03AEF4E
:1028580014F002D83AEF14F00500FA6E6F50FD6ECE
:102868007050FE6EF850FF6EFA5012001200000E03
:102878008D6E1E0E8C6E000E896E000E8A6E000E16
:102888008B6E030E966E92689368930E946E3E0E4E
:10289800956EF18E12002750800FD96EDA6AAECF8E
:1028A800DFFF272A070E27645CEF14F05EEF14F0B1
:1028B80060EF14F0000E276E252A1200536E69EFA0
:1028C80014F0535037EC15F052065250D8A46FEF5D
:1028D80014F071EF14F065EF14F01200516E5050BF
:1028E8003D0FD96EDA6ADF50800B526E51507F0B64
:1028F80052103E6EA9EC14F0120067EC15F001ECD2
:1029080015F03BEC14F041EC15F0C0EC13F0B4EC0E
:1029180014F056EC11F012004B6E4BC0C9FF9EA686
:1029280098EF14F09AEF14F093EF14F09E96C950B4
:1029380012004C6E4CC04BF04B464B46C2504B18E5
:10294800C30B4B18C26EC28012003D0E4C6E000EB7
:102958004E6E030E4D6EDBEC13F0F8EC14F0120023
:102968001B0EC16EB50EC06E000EC36E000EC46E97
:10297800010EC26E1200C2A2C4EF14F0C7EF14F029
:10298800010EC8EF14F0000E1200C4504E6E4D6ACE
:10299800C3504D244B6E000E4E204C6E12004B6EF1
:1029A8004BC0A9FFA69CA69EA68000000000A850C8
:1029B8001200506E50C03FF03E8EA9EC14F0EFECC0
:1029C80014F01200506E50C03FF03E9EA9EC14F077
:1029D800EFEC14F012008C9C000E4C6E030E4B6E44
:1029E800CDEC12F08C8C12008C8E000E4C6E030E07
:1029F8004B6ECDEC12F08C9E1200400EC76E210E6D
:102A0800C66E010EC86E9496C69A1200646174610F
:102A1800000000000000000000000000CB680C0E61
:102A2800BD6E94947E0ECA6EBE681200F294105069
:102A3800D76E0FC0D6FF24EC14F0120030303030BF
:0B2A48003020202020205E7F02020FC3
:102A5400020E4B6E160E4C6E3CEC15F01200506ECE
:102A640050C03DF0A9EC14F01200516E5150DDEC51
:102A740014F012004BC06FF04CC070F01200720ED4
:102A8400D36E000E9B6E12004BC073F04CC074F0FA
:102A940012004BC071F04CC072F012004BC0BCF07D
:102AA4004CC0BDF012004BC0BEF04CC0BFF01200D1
:102AB4004BC0BAF04CC0BBF01200AB98AB8812000C
:102AC4004FEC14F01200C2821200D09E12001200C9
:022AD4001200EE
:107DD0000000000000000000008C2A6A20962A00A3
:107DE000000A27AC220000000020290000B627006E
:107DF000000000000000000000214001000A401FB8
:107E0000005265636569766520746573743A205421
:107E10007970652061206D65737361676520746892
:107E2000656E20707265737320656E7465722028AC
:107E30006D6178203136206368617273293A00439E
:107E4000616C6962726174696F6E2020202020006D
:107E500050726F6772616D205350203F20202020A8
:107E60000043616C6962726174696F6E3F2020200B
:107E7000200050726F6772616D206D6F6465202005
:107E800020200053656C656374206D6F64653A2D26
:107E90002020200052652050726F6772616D202093
:107EA0003F2020200052652043616C69627261743A
:107EB000653F202020004D6F746F72206F766572D1
:107EC0006C6F61642121004D6F746F722074656D59
:107ED0007020747269702100546F72712E20667563
:107EE0006C6C20636C6F73650056616C7665206600
:107EF000756C6C20636C6F73650056616C766520E1
:107F000066756C6C20206F70656E00546F727175B1
:107F1000652066756C6C206F70656E00456E7465CB
:107F20007220687973746572657369730048656C53
:107F30006C6F20576F726C64212025640A002E2E0E
:107F40002E2E2E2E2E2E2E2E2E2E2E2E2E00506F1C
:107F5000776572206F6E20746573742E2E005472D4
:107F6000616E736D697420746573740A00596F755E
:107F70002074797065643A20002059285E29204ECB
:107F80002876290050617373776F72643A004F75D9
:107F900074707574202000506F736974696F6E007F
:107FA00056616C7665506F7300536574506F696EDF
:107FB00074005B4D414E205D20005B4155544F5D88
:107FC0002000416E616C6F672000446967697461CD
:107FD0006C005370616E20005A65726F200043611F
:107FE0006C3F00646174610053503A000A6F6B008B
:107FF0002D2D003C3C003E3C003E3E002563000031
:020000040020DA
:08000000FFFFFFFFFFFFFFFF00
:020000040030CA
:0E000000FF021214FF8181FF0FC00FE00F40BE
:00000001FF
