:0400000007EF00F016
:100008007582F4ED0EF06FEF12F06DEF04F0000E54
:10001800516E000E16EC11F0610E526E7E0E536E8C
:10002800DCEC13F0000E516E010E16EC11F0060E0A
:10003800526E200E9BEC14F0790E526E7F0E536EAA
:10004800DCEC13F022A22BEF00F02DEF00F032EFE2
:1000580000F0000E226E000E216E192A22B037EF32
:1000680000F039EF00F040EF00F022A63EEF00F07C
:1000780040EF00F0AAEF04F0000E226E000E216E91
:10008800000E196E010EABEF04F0000E516E000E5B
:1000980016EC11F03F0E526E7E0E536EDCEC13F030
:1000A800000E516E010E16EC11F0840E526E7F0E8A
:1000B800536EDCEC13F0040E526E200E9BEC14F021
:1000C8006EC053F0546A030E556E7BEC0EF06E0E44
:1000D800536E640E546E010E556EFEEC0DF022A4A4
:1000E80078EF00F07AEF00F092EF00F0000E216E4A
:1000F800000E226E0A0E6E18D8A485EF00F087EF66
:1001080000F08CEF00F00F0E6E6E192A92EF00F0DF
:100118000F0E6E6E000E196E46EF00F022A697EFD6
:1001280000F099EF00F0AAEF04F0000E226E000E26
:10013800216E0F0E6E6E000E196E46EF00F0000E67
:10014800516E000E16EC11F0A90E526E7F0E536E12
:10015800DCEC13F0010E526E200E9BEC14F0DE0E58
:10016800526E7F0E536EDCEC13F0030E526E200EAF
:100178009BEC14F0000E516E010E16EC11F0060EF9
:10018800526E200E9BEC14F0790E526E7F0E536E59
:10019800DCEC13F022A2D3EF00F0D5EF00F0DAEF99
:1001A80000F0000E226E000E216E192A22A0DFEF49
:1001B80000F0E1EF00F0E7EF00F0000E226E000E15
:1001C800216E030E192622A6ECEF00F0EEEF00F0E8
:1001D800AAEF04F0000E226E000E216E0B0E196EAF
:1001E800AAEF04F0000E516E000E16EC11F0A90EE5
:1001F800526E7F0E536EDCEC13F0010E526E200E21
:100208009BEC14F02DC04BF02EC04CF0000E4E6E3F
:100218000A0E4D6E55EC11F04BC0B0F04CC0B1F069
:10022800B0C053F0B1C054F0030E556E7BEC0EF025
:100238002E0E70EC15F02DC04BF02EC04CF0000EB9
:100248004E6E0A0E4D6EA2EC12F04BC0B2F04CC0CE
:10025800B3F0B2C053F0B3C054F0010E556E7BEC4E
:100268000EF0250E70EC15F0000E516E010E16EC16
:1002780011F0D80E526E7F0E536EDCEC13F03AC0BC
:1002880053F0546A040E556E7BEC0EF0070E526E56
:10029800200E9BEC14F03A0E576E45EC14F0000952
:1002A800D8B459EF01F05BEF01F05CEF01F0192AC7
:1002B80022A661EF01F063EF01F0AAEF04F0EEEF80
:1002C80000F0000E516E000E16EC11F0A90E526EE1
:1002D8007F0E536EDCEC13F0010E526E200E9BEC79
:1002E80014F02DC04BF02EC04CF0000E4E6E0A0ECE
:1002F8004D6E55EC11F04BC0B0F04CC0B1F0B0C031
:1003080053F0B1C054F0030E556E7BEC0EF02E0E78
:1003180070EC15F02DC04BF02EC04CF0000E4E6E58
:100328000A0E4D6EA2EC12F04BC0B2F04CC0B3F006
:10033800B2C053F0B3C054F0010E556E7BEC0EF012
:10034800250E70EC15F0000E516E010E16EC11F032
:10035800D20E526E7F0E536EDCEC13F039C053F0A0
:10036800546A040E556E7BEC0EF0070E526E200E8A
:100378009BEC14F0390E576E45EC14F00009D8B414
:10038800C8EF01F0CAEF01F0CBEF01F0192A22A65D
:10039800D0EF01F0D2EF01F0AAEF04F0EEEF00F099
:1003A800000E516E000E16EC11F0970E526E7F0E75
:1003B800536EDCEC13F0010E526E200E9BEC14F021
:1003C800DE0E526E7F0E536EDCEC13F0030E526E8F
:1003D800200E9BEC14F0000E516E010E16EC11F07D
:1003E800060E526E200E9BEC14F0790E526E7F0EA4
:1003F800536EDCEC13F022A204EF02F006EF02F0D9
:100408000BEF02F0000E226E000E216E192A22A0B8
:1004180010EF02F012EF02F018EF02F0000E226E59
:10042800000E216E030E192622A61DEF02F01FEF03
:1004380002F0AAEF04F0EEEF00F0000E516E000E8D
:1004480016EC11F0970E526E7F0E536EDCEC13F023
:10045800010E526E200E9BEC14F02BC04BF02CC0FA
:100468004CF0000E4E6E0A0E4D6E55EC11F04BC05E
:10047800B0F04CC0B1F0B0C053F0B1C054F0030EAE
:10048800556E7BEC0EF02E0E70EC15F02BC04BF079
:100498002CC04CF0000E4E6E0A0E4D6EA2EC12F0FF
:1004A8004BC0B2F04CC0B3F0B2C053F0B3C054F07C
:1004B800010E556E7BEC0EF0250E70EC15F0000E5B
:1004C800516E010E16EC11F0D80E526E7F0E536E5F
:1004D800DCEC13F038C053F0546A040E556E7BEC14
:1004E8000EF0070E526E200E9BEC14F0380E576E6D
:1004F80045EC14F00009D8B484EF02F086EF02F05E
:1005080087EF02F0192A22A68CEF02F08EEF02F094
:10051800AAEF04F0EEEF00F0000E516E000E16EC9C
:1005280011F0970E526E7F0E536EDCEC13F0010E35
:10053800526E200E9BEC14F02BC04BF02CC04CF0EC
:10054800000E4E6E0A0E4D6E55EC11F04BC0B0F019
:100558004CC0B1F0B0C053F0B1C054F0030E556EAA
:100568007BEC0EF02E0E70EC15F02BC04BF02CC06F
:100578004CF0000E4E6E0A0E4D6EA2EC12F04BC0FF
:10058800B2F04CC0B3F0B2C053F0B3C054F0010E97
:10059800556E7BEC0EF0250E70EC15F0000E516ECA
:1005A800010E16EC11F0D20E526E7F0E536EDCEC7B
:1005B80013F037C053F0546A040E556E7BEC0EF0FE
:1005C800070E526E200E9BEC14F0370E576E45EC5A
:1005D80014F00009D8B4F3EF02F0F5EF02F0F6EFEB
:1005E80002F0192A22A6FBEF02F0FDEF02F0AAEFB3
:1005F80004F0EEEF00F0000E516E000E16EC11F054
:100608008E0E526E7F0E536EDCEC13F0010E526E9E
:10061800200E9BEC14F0DE0E526E7F0E536EDCEC57
:1006280013F0030E526E200E9BEC14F0000E516E68
:10063800010E16EC11F0060E526E200E9BEC14F013
:10064800790E526E7F0E536EDCEC13F022A22FEF60
:1006580003F031EF03F036EF03F0000E226E000EC8
:10066800216E192A22A03BEF03F03DEF03F043EF80
:1006780003F0000E226E000E216E030E192622A62C
:1006880048EF03F04AEF03F0AAEF04F0EEEF00F0B2
:10069800000E516E000E16EC11F08E0E526E7F0E8B
:1006A800536EDCEC13F0010E526E200E9BEC14F02E
:1006B80031C04BF032C04CF0000E4E6E0A0E4D6E3B
:1006C80055EC11F04BC0B0F04CC0B1F0B0C053F0D5
:1006D800B1C054F0030E556E7BEC0EF02E0E70EC8C
:1006E80015F031C04BF032C04CF0000E4E6E0A0EC1
:1006F8004D6EA2EC12F04BC0B2F04CC0B3F0B2C0D9
:1007080053F0B3C054F0010E556E7BEC0EF0250E7D
:1007180070EC15F0000E516E010E16EC11F0D80EAB
:10072800526E7F0E536EDCEC13F038C053F0546AEF
:10073800040E556E7BEC0EF0070E526E200E9BECED
:1007480014F0380E576E45EC14F00009D8B4AFEF2A
:1007580003F0B1EF03F0B2EF03F0192A22A6B7EFC6
:1007680003F0B9EF03F0AAEF04F0EEEF00F0000E8B
:10077800516E000E16EC11F0970E526E7F0E536EEE
:10078800DCEC13F0010E526E200E9BEC14F031C01D
:100798004BF032C04CF0000E4E6E0A0E4D6E55EC0A
:1007A80011F04BC0B0F04CC0B1F0B0C053F0B1C0C4
:1007B80054F0030E556E7BEC0EF02E0E70EC15F017
:1007C80031C04BF032C04CF0000E4E6E0A0E4D6E2A
:1007D800A2EC12F04BC0B2F04CC0B3F0B2C053F070
:1007E800B3C054F0010E556E7BEC0EF0250E70EC84
:1007F80015F0000E516E010E16EC11F0D20E526E6D
:100808007F0E536EDCEC13F037C053F0546A040EBD
:10081800556E7BEC0EF0070E526E200E9BEC14F01A
:10082800370E576E45EC14F00009D8B41EEF04F0EB
:1008380020EF04F021EF04F0192A22A626EF04F095
:1008480028EF04F0AAEF04F0EEEF00F0000E516E6E
:10085800000E16EC11F0A50E526E7E0E536EDCECF7
:1008680013F0000E516E010E16EC11F0060E526ECA
:10087800200E9BEC14F0790E526E7F0E536EDCEC5A
:1008880013F022A24AEF04F04CEF04F052EF04F008
:10089800000E226E000E216E020E196E22A057EF76
:1008A80004F059EF04F0AAEF04F0000E226E000ED7
:1008B800216E000E196E370E4E6E020E4F6E060E2A
:1008C800506E55EC13F046EF00F0000E196EAAEFCB
:1008D80004F019505E6E5F6A5F50000AD8B477EF73
:1008E80004F069EF04F05E50000AD8B40BEF00F092
:1008F800010AD8B449EF00F0030AD8B4A3EF00F016
:10090800010AD8B4F6EF00F0070AD8B465EF01F091
:10091800010AD8B4D4EF01F0030AD8B421EF02F0E9
:10092800010AD8B490EF02F00F0AD8B4FFEF02F032
:10093800010AD8B44CEF03F0030AD8B4BBEF03F0B4
:10094800010AD8B42AEF04F069EF04F0000E12008F
:1009580057EF06F0000E516E000E16EC11F0500E17
:10096800526E7E0E536EDCEC13F0000E516E010ECB
:1009780016EC11F0060E526E200E9BEC14F0790E58
:10098800526E7F0E536EDCEC13F022A2CEEF04F011
:10099800D0EF04F0D5EF04F0000E226E000E216EA9
:1009A8001A2A22B0DAEF04F0DCEF04F0E3EF04F0E7
:1009B80022A6E1EF04F0E3EF04F078EF06F0000E72
:1009C800226E000E216E000E1A6E010E79EF06F0EF
:1009D800000E516E000E16EC11F0720E526E7E0E65
:1009E800536EDCEC13F0000E516E010E16EC11F094
:1009F800840E526E7F0E536EDCEC13F0040E526EB2
:100A0800200E9BEC14F06EC053F0546A030E556E22
:100A18007BEC0EF06E0E536E640E546E010E556E26
:100A2800FEEC0DF022A41BEF05F01DEF05F035EFED
:100A380005F0000E216E000E226E0A0E6E18D8A464
:100A480028EF05F02AEF05F02FEF05F01A2A0F0E10
:100A58006E6E35EF05F0000E1A6E0F0E6E6EE9EF32
:100A680004F022A63AEF05F03CEF05F078EF06F027
:100A7800000E226E000E216E0F0E6E6E000E1A6EA4
:100A8800E9EF04F0000E516E000E16EC11F01C0E8A
:100A9800526E7F0E536EDCEC13F0000E516E010E99
:100AA80016EC11F00A0E526E200E9BEC14F040C0AA
:100AB8004BF04C6A000E4E6E0A0E4D6E5AEC0FF05B
:100AC8004BC053F04CC054F0030E556E7BEC0EF047
:100AD8002E0E70EC15F040C04BF04C6A000E4E6EB6
:100AE8000A0E4D6E16EC10F04BC053F04CC054F08B
:100AF800010E556E7BEC0EF0250E70EC15F0400ED5
:100B0800536E640E546E010E556EFEEC0DF022A469
:100B180090EF05F092EF05F097EF05F0000E226ECA
:100B2800000E216E1A2A22A69CEF05F09EEF05F012
:100B380078EF06F0000E226E000E216E040E1A6E7B
:100B480078EF06F0000E516E000E16EC11F0830ED1
:100B5800526E7E0E536EDCEC13F0000E516E010ED9
:100B680016EC11F0090E526E200E9BEC14F04104A5
:100B7800D8A4C1EF05F0C3EF05F0CBEF05F0C20E26
:100B8800526E7F0E536EDCEC13F0D1EF05F0CA0EF7
:100B9800526E7F0E536EDCEC13F022B2D6EF05F0E6
:100BA800D8EF05F0DFEF05F022A0DDEF05F0DFEF6D
:100BB80005F0F1EF05F0000E226E000E216E4104E3
:100BC800D8A4E9EF05F0EBEF05F0EFEF05F0000E24
:100BD800416EF1EF05F0010E416E22A4F6EF05F02B
:100BE800F8EF05F0FDEF05F0000E226E000E216E05
:100BF8001A2A22A602EF06F004EF06F078EF06F0B4
:100C08009EEF05F0000E516E000E16EC11F0940EDA
:100C1800526E7E0E536EDCEC13F0000E516E010E18
:100C280016EC11F0060E526E200E9BEC14F0790EA5
:100C3800526E7F0E536EDCEC13F022A226EF06F004
:100C480028EF06F02EEF06F0000E226E000E216E41
:100C5800020E1A6E22B033EF06F035EF06F043EFBE
:100C680006F022B43AEF06F03CEF06F043EF06F048
:100C780022A641EF06F043EF06F078EF06F0000EEB
:100C8800226E000E216E400E4E6E000E4F6E020E4A
:100C9800506E55EC13F0000E1A6EE9EF04F0000EDA
:100CA8001A6E78EF06F01A505E6E5F6A5F50000A9F
:100CB800D8B461EF06F053EF06F05E50000AD8B4DE
:100CC800AEEF04F0010AD8B4ECEF04F0030AD8B48C
:100CD80046EF05F0010AD8B4A6EF05F0070AD8B424
:100CE80006EF06F053EF06F0000E1200000E516EEC
:100CF800000E16EC11F033A484EF06F086EF06F030
:100D08008EEF06F0F60E526E7F0E536EDCEC13F08B
:100D1800B2EF06F033A093EF06F095EF06F09DEFE3
:100D280006F0F90E526E7F0E536EDCEC13F0B2EF44
:100D380006F033A2A2EF06F0A4EF06F0ACEF06F03F
:100D4800F30E526E7F0E536EDCEC13F0B2EF06F02A
:100D5800F00E526E7F0E536EDCEC13F0A00E526E46
:100D68007F0E536EDCEC13F02BC04BF02CC04CF014
:100D7800000E4E6E0A0E4D6E55EC11F04BC0B0F0E1
:100D88004CC0B1F0B0C053F0B1C054F0030E556E72
:100D98007BEC0EF02E0E70EC15F02BC04BF02CC037
:100DA8004CF0000E4E6E0A0E4D6EA2EC12F04BC0C7
:100DB800B2F04CC0B3F0B2C053F0B3C054F0010E5F
:100DC800556E7BEC0EF0250E70EC15F0000E516E92
:100DD800010E16EC11F0DFEF07F035A0F6EF06F084
:100DE800F8EF06F00BEF07F00B0E526E7F0E536E06
:100DF800DCEC13F02350D8B404EF07F006EF07F04B
:100E080004EF08F0000E236E1B2A04EF08F01B2ADB
:100E180035A211EF07F013EF07F023EF07F0D80E14
:100E2800526E7E0E536EDCEC13F02350D8B41FEFD5
:100E380007F021EF07F004EF08F006EF07F01B2A90
:100E480035A429EF07F02BEF07F03BEF07F0FA0E78
:100E5800526E7E0E536EDCEC13F02350D8B437EF8D
:100E680007F039EF07F004EF08F006EF07F01B2A48
:100E780035A641EF07F043EF07F053EF07F0E90E0F
:100E8800526E7E0E536EDCEC13F02350D8B44FEF45
:100E980007F051EF07F004EF08F006EF07F01B2A00
:100EA80035AA59EF07F05BEF07F06BEF07F0C70EB5
:100EB800526E7E0E536EDCEC13F02350D8B467EFFD
:100EC80007F069EF07F004EF08F006EF07F01B2AB8
:100ED80035AC71EF07F073EF07F083EF07F0B60E4C
:100EE800526E7E0E536EDCEC13F02350D8B47FEFB5
:100EF80007F081EF07F004EF08F006EF07F01B2A70
:100F080035A889EF07F08BEF07F093EF07F0BA0EDB
:100F1800526E7F0E536EDCEC13F099EF07F0B20EB1
:100F2800526E7F0E536EDCEC13F0E80E526E7F0E9D
:100F3800536EDCEC13F02FC04BF030C04CF0000EB9
:100F48004E6E0A0E4D6E55EC11F04BC0B0F04CC011
:100F5800B1F0B0C053F0B1C054F0030E556E7BEC45
:100F68000EF02E0E70EC15F02FC04BF030C04CF088
:100F7800000E4E6E0A0E4D6EA2EC12F04BC0B2F08F
:100F88004CC0B3F0B2C053F0B3C054F0010E556E6C
:100F98007BEC0EF0250E70EC15F02350D8B4D7EF8B
:100FA80007F0D9EF07F004EF08F0000E236E000EEB
:100FB8001B6E04EF08F01B505E6E5F6A5F50000AFC
:100FC800D8B4E9EF07F084EF07F05E50000AD8B410
:100FD800F1EF06F0010AD8B40CEF07F0030AD8B411
:100FE80024EF07F0010AD8B43CEF07F0070AD8B499
:100FF80054EF07F0010AD8B46CEF07F084EF07F05C
:101008001200F8EC14F00009D8B40DEF08F00FEF57
:1010180008F005EF08F002EC15F04B500B264C5089
:101028000C22010E6D5ED8B41CEF08F01EEF08F01C
:1010380020EF08F036EF09F0020E6D6ED8900C30F4
:10104800596E0B300001B06F59C0B1F0000E0C6E34
:10105800000E0B6E21EF09F03A50B05D596EB15198
:101068005A6E000E5A5A5B6A5B5A5C6A5C5AAA0E40
:1010780059244B6EFF0E5A204C6EFF0E5B204D6EAE
:10108800FF0E5C204E6E39504F6E506A516A526A9C
:101098003AEC12F04BC0B2F04CC0B3F04DC0B4F013
:1010A8004EC0B5F0B2C04BF0B3C04CF0B4C04DF078
:1010B800B5C04EF0640E4F6E000E506E000E516EAD
:1010C800000E526E78EC0DF04BC0B2F04CC0B3F08D
:1010D8004DC0B4F04EC0B5F00001B5BF81EF08F0C7
:1010E800B551B411B31107E1020EB25DD8B07FEF6C
:1010F80008F081EF08F087EF08F0000E2E6E000E62
:101108002D6EA2EF08F0B5BF98EF08F0B551B411F5
:1011180009E1E90EB25D030EB359D8B096EF08F0B5
:1011280098EF08F09EEF08F0B2C02DF0B3C02EF093
:10113800A2EF08F0030E2E6EE80E2D6E1D2A1D502C
:10114800D6EC14F036EF09F03850B05D596EB15155
:101158005A6E000E5A5A5B6A5B5A5C6A5C5AAA0E4F
:1011680059244B6EFF0E5A204C6EFF0E5B204D6EBD
:10117800FF0E5C204E6E37504F6E506A516A526AAD
:101188003AEC12F04BC0B2F04CC0B3F04DC0B4F022
:101198004EC0B5F0B2C04BF0B3C04CF0B4C04DF087
:1011A800B5C04EF0640E4F6E000E506E000E516EBC
:1011B800000E526E78EC0DF04BC0B2F04CC0B3F09C
:1011C8004DC0B4F04EC0B5F00001B5BFF9EF08F05E
:1011D800B551B411B31107E1020EB25DD8B0F7EF03
:1011E80008F0F9EF08F0FFEF08F0000E2C6E000E83
:1011F8002B6E1AEF09F0B5BF10EF09F0B551B41115
:1012080009E1E90EB25D030EB359D8B00EEF09F04B
:1012180010EF09F016EF09F0B2C02BF0B3C02CF0B4
:101228001AEF09F0030E2C6EE80E2B6E000E1D6EE1
:10123800000ED6EC14F036EF09F01D50596E5A6ABC
:101248005A50000AD8B42BEF09F036EF09F059507C
:10125800000AD8B430EF08F0010AD8B4A8EF08F0B3
:1012680036EF09F09EEC15F0120081BE3EEF09F052
:1012780040EF09F043EF09F0348044EF09F034906F
:1012880081BC49EF09F04BEF09F04EEF09F03482C9
:101298004FEF09F0349281BA54EF09F056EF09F094
:1012A80059EF09F034845AEF09F0349434AC5FEF05
:1012B80009F061EF09F06AEF09F034A466EF09F06C
:1012C80068EF09F06AEF09F03490349234A86FEFB0
:1012D80009F071EF09F079EF09F034A076EF09F021
:1012E80078EF09F079EF09F0349234AA7EEF09F02B
:1012F80080EF09F088EF09F034A285EF09F087EF55
:1013080009F088EF09F0349034A402D0348C01D06D
:10131800349C34A002D0348801D0349834A202D04E
:10132800348A01D0349A81B29CEF09F09EEF09F01B
:10133800A1EF09F03580A2EF09F0359081B0A7EF51
:1013480009F0A9EF09F0ACEF09F03582ADEF09F02B
:10135800359281B6B2EF09F0B4EF09F0B7EF09F0B2
:101368003584B8EF09F0359481B4BDEF09F0BFEFCB
:1013780009F0C2EF09F03586C3EF09F0359681B858
:10138800C8EF09F0CAEF09F0CDEF09F03588CEEFC4
:1013980009F0359882B2D3EF09F0D5EF09F0D8EF0C
:1013A80009F0358AD9EF09F0359A82B0DEEF09F0F5
:1013B800E0EF09F0E3EF09F0358CE4EF09F0359C34
:1013C80080BAE9EF09F0EBEF09F0EEEF09F03680AB
:1013D800EFEF09F0369084B0F4EF09F0F6EF09F07A
:1013E800F9EF09F03682FAEF09F0369284B2FFEF8E
:1013F80009F001EF0AF004EF0AF0368405EF0AF06D
:10140800369436AC0AEF0AF00CEF0AF015EF0AF042
:1014180036A411EF0AF013EF0AF015EF0AF0369030
:10142800369236A81AEF0AF01CEF0AF024EF0AF0F9
:1014380036A021EF0AF023EF0AF024EF0AF03692E3
:1014480036AA29EF0AF02BEF0AF033EF0AF036A29A
:1014580030EF0AF032EF0AF033EF0AF0369036A494
:1014680002D0368C01D0369C36A002D0368801D006
:10147800369836A202D0368A01D0369A1200000E6B
:10148800566E000E576E35B04CEF0AF04EEF0AF06C
:1014980063EF0AF035B453EF0AF055EF0AF063EF43
:1014A8000AF035B25AEF0AF05CEF0AF063EF0AF07F
:1014B80035A661EF0AF063EF0AF064EF0AF03384AF
:1014C80035A869EF0AF06BEF0AF0C8EF0AF041504F
:1014D800D8B471EF0AF073EF0AF0A9EF0AF02DC043
:1014E8002FF02EC030F040502F24546E000E3020C4
:1014F800556E2B50545C2C505558D8B086EF0AF0D6
:1015080088EF0AF08DEF0AF0010E576E3394E7EF7B
:101518000AF040502B24546E000E2C20556E2F508C
:10152800545C30505558D8B09CEF0AF09EEF0AF042
:10153800A2EF0AF0010E566E8AEF0AF0000E566E00
:10154800000E576E3384E7EF0AF02BC02FF02CC043
:1015580030F036A4B2EF0AF0B4EF0AF0B6EF0AF0B2
:10156800A2EF0AF036A0BBEF0AF0BDEF0AF0BFEF1A
:101578000AF09EEF0AF036A2C4EF0AF0C6EF0AF0AE
:10158800E7EF0AF088EF0AF02BC02FF02CC030F0FC
:1015980034A4D1EF0AF0D3EF0AF0D5EF0AF0A2EFA6
:1015A8000AF034A0DAEF0AF0DCEF0AF0DEEF0AF016
:1015B8009EEF0AF034A2E3EF0AF0E5EF0AF0E7EF56
:1015C8000AF088EF0AF05650D8B4EDEF0AF0EFEFC2
:1015D8000AF0F3EF0AF03380339201EF0BF0575023
:1015E800D8B4F9EF0AF0FBEF0AF0FFEF0AF03390F6
:1015F800338201EF0BF03390339235BA06EF0BF0DC
:1016080008EF0BF00FEF0BF035AC0DEF0BF00FEF11
:101618000BF010EF0BF0338433A415EF0BF017EF3A
:101628000BF019EF0BF03390339235B01EEF0BF03F
:1016380020EF0BF027EF0BF035A425EF0BF027EF89
:101648000BF028EF0BF0339035B22DEF0BF02FEFA6
:101658000BF036EF0BF035A634EF0BF036EF0BF04E
:1016680037EF0BF0339202EC12F012000F0E095C08
:101678000E0E0A58D8B043EF0BF045EF0BF049EFC8
:101688000BF0094A0A2A55EF0BF0000E0A6E000EFD
:10169800096E010E236E010E166E010E136E010EF9
:1016A8001F6E010E206E09C042F00AC043F0070EFB
:1016B800456E080E446ED4EC12F042504310D8A484
:1016C80068EF0BF06AEF0BF06CEF0BF0010E136E86
:1016D80009C042F00AC043F0000E456E1E0E446E6B
:1016E800D4EC12F042504310D8A47DEF0BF07FEFFA
:1016F8000BF083EF0BF0010E236E010E166E09C07E
:1017080042F00AC043F0000E456E0A0E446ED4EC57
:1017180012F042504310D8A494EF0BF096EF0BF060
:10172800A3EF0BF0010E146E1150D8B49EEF0BF01E
:10173800A1EF0BF0010EA2EF0BF0000E116E09C025
:1017480042F00AC043F0000E456E050E446ED4EC1C
:1017580012F042504310D8A4B4EF0BF0B6EF0BF0E0
:10176800C1EF0BF01250D8B4BCEF0BF0BFEF0BF089
:10177800010EC0EF0BF0000E126E09B0C6EF0BF0B1
:10178800C8EF0BF0CAEF0BF0010E156E000E186EC5
:1017980083B2D1EF0BF0D3EF0BF0D4EF0BF018803E
:1017A80083B4D9EF0BF0DBEF0BF0DCEF0BF0188212
:1017B80083B6E1EF0BF0E3EF0BF0E4EF0BF01884E6
:1017C80083B8E9EF0BF0EBEF0BF0ECEF0BF01886BA
:1017D8001750FF0A1814221218C017F01850D8B45E
:1017E800F8EF0BF0FAEF0BF00BEF0CF06C50D8A4FD
:1017F80000EF0CF002EF0CF008EF0CF0020E6C6E2C
:10180800185021120DEF0CF06C060DEF0CF0020EC3
:101818006C6E1200BAEC14F0F28EF28C63EC15F0D8
:10182800000EC6EC10F0C9EC11F0000E516E000E5F
:1018380016EC11F04E0E526E7F0E536EDCEC13F068
:10184800000E516E010E16EC11F03E0E526E7F0E18
:10185800536EDCEC13F0D5EC0CF02EEC13F04BECE3
:1018680015F0000E4C6ECC0E4B6EBCEC0FF0040065
:101878002050D8B442EF0CF044EF0CF086EF0CF097
:10188800000E206E05EC08F039EC09F086EF0CF03C
:101898001F50D8B452EF0CF054EF0CF058EF0CF086
:1018A800000E1F6EC9EC11F043EC0AF07AEC06F05A
:1018B80022A661EF0CF063EF0CF0A0EF0CF0000E25
:1018C800226E000E216E1E2AA0EF0CF043EC0AF0E7
:1018D800ACEC04F00009D8B474EF0CF076EF0CF01F
:1018E800A0EF0CF067EF0CF009EC00F00009D8B499
:1018F80080EF0CF082EF0CF0A0EF0CF0000E1E6EE3
:10190800A0EF0CF01E500001B66FB76BB751000A7C
:10191800D8B491EF0CF082EF0CF0B651000AD8B4AD
:101928004CEF0CF0010AD8B46AEF0CF0030AD8B4F3
:1019380078EF0CF082EF0CF02B500001B66F2C50B2
:10194800B76FB86BB96B020ED890B637B737B837E0
:10195800B937E82EA8EF0CF0B6C04BF0B7C04CF082
:10196800B8C04DF0B9C04EF0050E4F6E000E506E67
:10197800000E516E000E526E78EC0DF0CC0E4B241A
:10198800316E000E4C20326E31C04BF032C04CF03C
:10199800BCEC0FF02EEC13F004003CEF0CF007EF5A
:1019A80000F0400E4C6E000E4D6E020E4E6E7AEC3C
:1019B80013F04050D8B4E3EF0CF0E5EF0CF0EDEF86
:1019C8000CF0640E4064EBEF0CF0EDEF0CF0EFEF71
:1019D8000CF00A0E406E4104D8B4F5EF0CF0F7EFA6
:1019E8000CF001EF0DF04150D8B4FDEF0CF0FFEF13
:1019F8000CF001EF0DF0000E416E370E4C6E020E2A
:101A08004D6E060E4E6E7AEC13F03750D8B40FEFC9
:101A18000DF011EF0DF019EF0DF0C80E376417EF48
:101A28000DF019EF0DF01BEF0DF0640E376E385006
:101A3800D8B421EF0DF023EF0DF02BEF0DF0C80E09
:101A4800386429EF0DF02BEF0DF02DEF0DF0640E3B
:101A5800386E3950D8B433EF0DF035EF0DF03DEF57
:101A68000DF0C80E39643BEF0DF03DEF0DF03FEF80
:101A78000DF0640E396E3A50D8B445EF0DF047EFCB
:101A88000DF04FEF0DF0C80E3A644DEF0DF04FEF2B
:101A98000DF051EF0DF0640E3A6E3950D8B457EF8F
:101AA8000DF059EF0DF061EF0DF0C80E39645FEFDE
:101AB8000DF061EF0DF063EF0DF0640E396E3C50E0
:101AC800D8B469EF0DF06BEF0DF073EF0DF0C80EA1
:101AD8003C6471EF0DF073EF0DF075EF0DF0640ECF
:101AE8003C6E000E1C6E1200000E546E52BE81EF4A
:101AF8000DF07FEF0DF08BEF0DF0521E511E501EB2
:101B08004F6C000E502251225222010E546E4EBECE
:101B180092EF0DF090EF0DF09CEF0DF04E1E4D1E64
:101B28004C1E4B6C000E4C224D224E22010E541AB4
:101B3800000E556E000E566E000E576E000E586E53
:101B48004F50501051105210D8B4ADEF0DF0AFEF08
:101B58000DF0E5EF0DF0010E536EB9EF0DF0D890D2
:101B68004F36503651365236532A52AEBEEF0DF02C
:101B7800C0EF0DF0B3EF0DF0D89055365636573606
:101B880058364F504B5C50504C5851504D5852504D
:101B98004E58D8A0D2EF0DF0D4EF0DF0DDEF0DF0D8
:101BA8004F504B5E50504C5A51504D5A52504E5A0D
:101BB8005580D8905232513250324F32532EC0EFA6
:101BC8000DF05450D8B4EBEF0DF0EDEF0DF0F5EF4C
:101BD8000DF0581E571E561E556C000E56225722E1
:101BE800582255C04BF056C04CF057C04DF058C065
:101BF8004EF012005350D96EDA6A5550DE5CD8A008
:101C080008EF0EF00AEF0EF016EF0EF05350D96EF3
:101C1800DA6ADE50545CD8B014EF0EF016EF0EF00E
:101C280026EF0EF05350D96EDA6A545055244B6E95
:101C38004C6A4C36000E4E6E020E4D6E5AEC0FF08A
:101C48004B50DF6E22B22BEF0EF02DEF0EF034EF7B
:101C58000EF021A232EF0EF034EF0EF051EF0EF03D
:101C6800000E226E000E216E5350D96EDA6A54505F
:101C7800DE5CD8B042EF0EF044EF0EF04AEF0EF003
:101C88005350D96EDA6ADF2A7AEF0EF05350D96EC4
:101C9800DA6A54C0DFFF7AEF0EF022B056EF0EF08A
:101CA80058EF0EF05FEF0EF021A05DEF0EF05FEF42
:101CB8000EF07AEF0EF0000E226E000E216E5350D9
:101CC800D96EDA6ADE50555CD8B06DEF0EF06FEF62
:101CD8000EF075EF0EF05350D96EDA6ADF067AEF20
:101CE8000EF05350D96EDA6A55C0DFFF1200010EAC
:101CF8005D6E20EE65F010EE57F0040EDBCFE3FFCB
:101D0800E806FCE2050E55648CEF0EF08EEF0EF03F
:101D1800D1EF0EF0050E556ED1EF0EF05D50555C0B
:101D2800D8B099EF0EF09BEF0EF09DEF0EF0D9EFC3
:101D38000EF053C04BF054C04CF0000E4E6E0A0E1D
:101D48004D6EA2EC12F04B505C6E5DC056F0FF0E6B
:101D580056265650570FD96EDA6A5C50300FDF6E30
:101D68005C50535C4B6E5450D8A054044C6E000E1B
:101D78004E6E0A0E4D6E55EC11F04BC053F04CC030
:101D880054F053505410D8A4CCEF0EF0CEEF0EF010
:101D9800D0EF0EF0D9EF0EF05D2A050E5D64D7EF97
:101DA8000EF0D9EF0EF092EF0EF055C05DF05D50D9
:101DB800D8A4E1EF0EF0E3EF0EF0E5EF0EF0F3EF4D
:101DC8000EF05DC056F0FF0E56265650570FD96ECE
:101DD800DA6ADF5070EC15F05D06DBEF0EF01200EA
:101DE8000600FACF47F0FBCF48F0D9CF49F0DACF59
:101DF8004AF0F2AA02EF0FF004EF0FF00FEF0FF026
:101E0800F2A409EF0FF00BEF0FF00FEF0FF053EC08
:101E180015F050EF0FF0F2AC14EF0FF016EF0FF0D3
:101E280050EF0FF09DA81BEF0FF01DEF0FF033EFF1
:101E38000FF09EA822EF0FF024EF0FF033EF0FF012
:101E480002D831EF0FF00500FA6E7350FD6E745032
:101E5800FE6EF850FF6EFA50120050EF0FF09DAA78
:101E680038EF0FF03AEF0FF050EF0FF09EAA3FEF68
:101E78000FF041EF0FF050EF0FF002D84EEF0FF0D8
:101E88000500FA6E7150FD6E7250FE6EF850FF6ECE
:101E9800FA50120050EF0FF04AC0DAFF49C0D9FFDC
:101EA80048C0FBFF47C0FAFF75921100000E506E44
:101EB8004EBE63EF0FF061EF0FF069EF0FF04D6C5E
:101EC8004E1ED8B04E2A010E506E4CBE70EF0FF069
:101ED8006EEF0FF076EF0FF04B6C4C1ED8B04C2A1B
:101EE800010E501A000E526E000E516E4D504E10DB
:101EF800D8B481EF0FF083EF0FF0ABEF0FF0010EC6
:101F08004F6E8BEF0FF0D8904D364E364F2A4EAEAF
:101F180090EF0FF092EF0FF087EF0FF0D890513657
:101F280052364D504B5C4E504C58D8A09EEF0FF097
:101F3800A0EF0FF0A5EF0FF04D504B5E4E504C5AEE
:101F48005180D8904E324D324F2E92EF0FF05050B4
:101F5800D8B4B1EF0FF0B3EF0FF0B7EF0FF0516C4B
:101F6800521ED8B0522A51C04BF052C04CF0120049
:101F7800040E4C5CD8A0C3EF0FF0C5EF0FF0C8EF0C
:101F88000FF0030E4C6E4B684C5007E1CC0E4B5CC7
:101F9800D8B0D1EF0FF0D3EF0FF0D7EF0FF0000E5E
:101FA8004C6ECC0E4B6E4BC04DF04CC04EF0D890E2
:101FB8004E324D32D8904E324D324D50BE6EF5EF06
:101FC8000FF0BD8ABD8815EF10F0BD8ABD9815EFDA
:101FD80010F0BD9ABD8815EF10F0BD9ABD9815EFA9
:101FE80010F0010E4B144D6E000E4C144E6E4E50F8
:101FF800000AD8B402EF10F015EF10F04D50000AA7
:10200800D8B4F1EF0FF0010AD8B4EDEF0FF0030ADE
:10201800D8B4E9EF0FF0010AD8B4E5EF0FF015EFE7
:1020280010F01200000E506E4CBE1FEF10F01DEFA6
:1020380010F025EF10F04B6C4C1ED8B04C2A010E56
:10204800506E4EBE2CEF10F02AEF10F030EF10F06B
:102058004D6C4E1ED8B04E2A4D504E10D8B437EFA6
:1020680010F039EF10F05DEF10F0010E4F6E41EFF8
:1020780010F0D8904D364E364F2A4EAE46EF10F03F
:1020880048EF10F03DEF10F04D504B5C4E504C585F
:10209800D8A051EF10F053EF10F057EF10F04D505B
:1020A8004B5E4E504C5AD8904E324D324F2E48EF20
:1020B80010F05050D8B463EF10F065EF10F069EFEE
:1020C80010F04B6C4C1ED8B04C2A4BC04BF04CC097
:1020D8004CF012002750010FD96EDA6ADF6AABA400
:1020E80078EF10F07AEF10F08DEF10F02750010F15
:1020F800D96EDA6ADF8202D88DEF10F00500000190
:10210800FA6EBE51FD6EBF51FE6EF850FF6EFA506A
:102118001200ABA292EF10F094EF10F0A7EF10F0BE
:102128002750010FD96EDA6ADF8402D8A7EF10F0C2
:1021380005000001FA6EBC51FD6EBD51FE6EF850EF
:10214800FF6EFA5012002750010FD96EDA6ADF507D
:10215800D8B4B1EF10F0B3EF10F0C3EF10F002D81D
:10216800C1EF10F005000001FA6EBA51FD6EBB51C7
:10217800FE6EF850FF6EFA501200C5EF10F088ECB2
:1021880014F012004C6EC6BACCEF10F0CEEF10F07F
:1021980014EF11F04C50040D010EF326000EF4223A
:1021A800F90EF324F66E7D0EF420F76E0800F5CFD5
:1021B800C7FF4C50040DF90EF324F66E7D0EF42083
:1021C800F76E0800F5CFC6FF000EC56E4C50040D23
:1021D800020EF326000EF422F90EF324F66E7D0E9D
:1021E800F420F76E0800F5CFC8FF4C50040D030E1D
:1021F800F326000EF422F90EF324F66E7D0EF42079
:10220800F76E0800F5CF4BF04B464B464B469450C3
:102218004B18F70B4B18946EC68A010E15EF11F088
:10222800000E1200546E37EF11F05150800F1FEC62
:1022380015F054EF11F05150C00F1FEC15F054EF8A
:1022480011F05150900F1FEC15F054EF11F0515050
:10225800D00F1FEC15F054EF11F05150C00F1FECC8
:1022680015F054EF11F05450526E536A5350000A4F
:10227800D8B441EF11F031EF11F05250000AD8B440
:1022880019EF11F0010AD8B41FEF11F0030AD8B4FE
:1022980025EF11F0010AD8B42BEF11F031EF11F04E
:1022A8001200000E516E000E506E4D504E10D8B4F4
:1022B80060EF11F062EF11F08AEF11F0010E4F6E2E
:1022C8006AEF11F0D8904D364E364F2A4EAE6FEF6A
:1022D80011F071EF11F066EF11F0D89050365136C9
:1022E8004D504B5C4E504C58D8A07DEF11F07FEF0D
:1022F80011F084EF11F04D504B5E4E504C5A508007
:10230800D8904E324D324F2E71EF11F050C04BF035
:1023180051C04CF012009D9ADC0E4B6E200E4C6E94
:1023280084EC15F09D987C0E4B6E270E4C6E7FEC5E
:1023380015F0080EB86E900EAB6E240EAC6E080E3B
:10234800AF6E020EB06E460E4B6E2B0E4C6E8EECC0
:1023580015F0300E4B6E2B0E4C6E89EC15F0360EC8
:102368004B6E2B0E4C6E93EC15F0000E246E000E87
:102378002A6E000E296E080E286E000E276E000EBB
:10238800266E000E256E9D8A12008C9A000E4C6EE9
:10239800050E4B6E2DEC14F08C8A380E1FEC15F0E0
:1023A800000E4C6E050E4B6E2DEC14F0380E1FEC23
:1023B80015F0000E4C6E050E4B6E2DEC14F0380E19
:1023C8001FEC15F00C0E1FEC15F0000E4C6E050EF0
:1023D8004B6E2DEC14F0020E1FEC15F0000E4C6E37
:1023E800050E4B6E2DEC14F0010E1FEC15F0000ECF
:1023F8004C6E050E4B6E2DEC14F01200000E536E51
:1024080033A009EF12F00BEF12F00CEF12F0538A21
:1024180033A211EF12F013EF12F014EF12F05388F9
:1024280033A419EF12F01BEF12F01CEF12F05386D1
:1024380035A421EF12F023EF12F024EF12F05384A9
:1024480035A629EF12F02BEF12F02CEF12F0538281
:1024580035A831EF12F033EF12F034EF12F0538059
:10246800000E506E5350ABEC14F01200000E536E79
:10247800000E546E000E556E000E566E4BA047EFC0
:1024880012F049EF12F051EF12F04F50532650500E
:1024980054225150552252505622D8904F36503619
:1024A80051365236D8904E324D324C324B324B5018
:1024B8004C104D104E10D8A464EF12F066EF12F0D5
:1024C80042EF12F053C04BF054C04CF055C04DF0E1
:1024D80056C04EF01200860EF66E2A0EF76E000EEB
:1024E800F86E00EEA0F010EE10F00900F5CFEEFF48
:1024F800E550E150FAE1B60EF66E2A0EF76E000EC0
:10250800F86E00EE60F010EE0FF00900F5CFEEFF68
:10251800E550E150FAE100EE80F0200EEE6AE806A0
:10252800FDE100EE01F0410EEE6AE806FDE175906E
:102538007592000EF86E00010EEF0CF04D504E1023
:10254800D8B4A9EF12F0ABEF12F0CFEF12F0010EF2
:102558004F6EB3EF12F0D8904D364E364F2A4EAE2E
:10256800B8EF12F0BAEF12F0AFEF12F04D504B5C2B
:102578004E504C58D8A0C3EF12F0C5EF12F0C9EF77
:1025880012F04D504B5E4E504C5AD8904E324D3250
:102598004F2EBAEF12F04BC04BF04CC04CF012006B
:1025A80044504510D8B4DBEF12F0DDEF12F001EF24
:1025B80013F0010E466EE5EF12F0D890443645361A
:1025C800462A45AEEAEF12F0ECEF12F0E1EF12F016
:1025D8004450425C45504358D8A0F5EF12F0F7EF4D
:1025E80012F0FBEF12F04450425E4550435AD89027
:1025F80045324432462EECEF12F042C042F043C05E
:1026080043F0120010EF13F0350EE82EFED700004D
:10261800200E4B5E000E4C5A4C5007E1200E4B5CCE
:10262800D8B019EF13F01BEF13F008EF13F020EFF9
:1026380013F000D000D000004B06D8A04C064B2861
:1026480006E14C28D8A42BEF13F02DEF13F01DEF63
:1026580013F0120033A033EF13F035EF13F039EF16
:1026680013F01C801C9246EF13F033A23EEF13F0D8
:1026780040EF13F044EF13F01C901C8246EF13F068
:102688001C901C9235A84BEF13F04DEF13F050EF50
:1026980013F01C8451EF13F01C941C506AEC15F0D5
:1026A8001200000E556E000E546E67EF13F04E5078
:1026B800D96EDA6ADF504B6E4F509EEC13F04E2AFB
:1026C8004F2A544A552A5050516E526A5150545C00
:1026D8005550800A536E5250800A5358D8A077EF4D
:1026E80013F079EF13F05BEF13F01200000E536E46
:1026F800000E526E8BEF13F04C50D96EDA6A4D50C3
:102708000CEC15F0DF6E4D2A4C2A524A532A4E50D3
:102718004F6E506A4F50525C5350800A516E505061
:10272800800A5158D8A09BEF13F09DEF13F080EF6B
:1027380013F012004C6E000EF2BE010E4D6E4CC02E
:10274800A9FF4BC0A8FFA69EA69CA684F29E550E84
:10275800A76EAA0EA76EA682A6B2B5EF13F0B7EFC2
:1027680013F0B0EF13F0A6944DB002D0F29E01D052
:10277800F28E1200080E2860C4EF13F0C6EF13F0B3
:10278800DAEF13F02950880FD96EDA6ADF50AD6E90
:10279800292A070E2964D3EF13F0D5EF13F0D7EFEA
:1027A80013F0000E296E282ADBEF13F09D98120013
:1027B800EAEF13F052C0F6FF53C0F7FF0800F5CF59
:1027C80054F0545070EC15F0524A532A52C0F6FF98
:1027D80053C0F7FF0800F5500009D8A4F6EF13F02E
:1027E800F8EF13F0DEEF13F01200D59CF30ED76E5E
:1027F800CB0ED66ED650D7CF4DF04E6A4DC04EF0A8
:102808004D6A4D100F6E4E50106EF294F28A440EBF
:102818004B6E2B0E4C6E75EC15F0850ED56E1200B6
:102828004CC04FF01FEF14F04F50D96EDA6ADF50EA
:10283800C9EC14F04F2A4D06D8A04E064D2806E1E3
:102848004E28D8A42AEF14F02CEF14F018EF14F047
:10285800120037EF14F0070E4D6E7D0EE82EFED7EE
:102868004D2EFCD700004B06D8A04C064B2806E19D
:102878004C28D8A442EF14F044EF14F02FEF14F0D2
:10288800120057C053F0C80E546E010E556EFEEC80
:102898000DF022A452EF14F054EF14F05BEF14F093
:1028A800000E226E000E216E010E5CEF14F0000E79
:1028B80012006F507010D8B464EF14F066EF14F083
:1028C80073EF14F002D873EF14F00500FA6E6F502E
:1028D800FD6E7050FE6EF850FF6EFA501200120036
:1028E800000E8D6E1E0E8C6E000E896E000E8A6EA6
:1028F800000E8B6E030E966E92689368930E946E1C
:102908003E0E956EF18E12002750800FD96EDA6A4E
:10291800AECFDFFF272A070E276495EF14F097EF55
:1029280014F099EF14F0000E276E252A1200536E4A
:10293800A2EF14F0535070EC15F052065250D8A480
:10294800A8EF14F0AAEF14F09EEF14F01200516EE5
:1029580050503D0FD96EDA6ADF50800B526E5150DD
:102968007F0B52103E6EE2EC14F01200A0EC15F052
:102978003AEC15F074EC14F07AEC15F0F9EC13F06D
:10298800EDEC14F08FEC11F012004B6E4BC0C9FF48
:102998009EA6D1EF14F0D3EF14F0CCEF14F09E966E
:1029A800C95012004C6E4CC04BF04B464B46C250BF
:1029B8004B18C30B4B18C26EC28012003D0E4C6EF2
:1029C800000E4E6E030E4D6E14EC14F031EC15F043
:1029D80012001B0EC16EB50EC06E000EC36E000E47
:1029E800C46E010EC26E1200C2A2FDEF14F000EF19
:1029F80015F0010E01EF15F0000E1200C4504E6ED6
:102A08004D6AC3504D244B6E000E4E204C6E120082
:102A18004B6E4BC0A9FFA69CA69EA6800000000096
:102A2800A8501200506E50C03FF03E8EE2EC14F0F9
:102A380028EC15F01200506E50C03FF03E9EE2ECBC
:102A480014F028EC15F012008C9C000E4C6E030E4E
:102A58004B6E06EC13F08C8C12008C8E000E4C6EB4
:102A6800030E4B6E06EC13F08C9E1200400EC76EE0
:102A7800210EC66E010EC86E9496C69A1200646145
:102A88007461000000000000000000000000CB6836
:102A98000C0EBD6E94947E0ECA6EBE681200F2943F
:102AA8001050D76E0FC0D6FF5DEC14F01200303016
:0D2AB80030303020202020205E7F02020FF1
:102AC600740E4B6E160E4C6E75EC15F01200506EB1
:102AD60050C03DF0E2EC14F01200516E515016EC6D
:102AE60015F012004BC06FF04CC070F01200720E61
:102AF600D36E000E9B6E12004BC073F04CC074F088
:102B060012004BC071F04CC072F012004BC0BCF00A
:102B16004CC0BDF012004BC0BEF04CC0BFF012005E
:102B26004BC0BAF04CC0BBF01200AB98AB88120099
:102B360088EC14F01200C2821200D09E120012001D
:022B460012007B
:107DD000000000000000000000FE2ADC20082B004C
:107DE000007C271E230000000092290000282800A4
:107DF000000000000000000000214001000A401FB8
:107E0000005265636569766520746573743A205421
:107E10007970652061206D65737361676520746892
:107E2000656E20707265737320656E7465722028AC
:107E30006D6178203136206368617273293A00439E
:107E4000616C6962726174696F6E2020202020006D
:107E500050726F6772616D205350203F20202020A8
:107E60000043616C6962726174696F6E3F2020200B
:107E7000200050726F6772616D206D6F6465202005
:107E800020200053656C656374206D6F64653A2D26
:107E90002020200052652050726F6772616D202093
:107EA0003F2020200052652043616C69627261743A
:107EB000653F202020004D6F746F72206F766572D1
:107EC0006C6F61642121004D6F746F722074656D59
:107ED0007020747269702100546F72712E20667563
:107EE0006C6C20636C6F73650056616C7665206600
:107EF000756C6C20636C6F73650056616C766520E1
:107F000066756C6C20206F70656E00546F727175B1
:107F1000652066756C6C206F70656E00456E7465CB
:107F20007220687973746572657369730048656C53
:107F30006C6F20576F726C64212025640A002E2E0E
:107F40002E2E2E2E2E2E2E2E2E2E2E2E2E00506F1C
:107F5000776572206F6E20746573742E2E005472D4
:107F6000616E736D697420746573740A00596F755E
:107F70002074797065643A20002059285E29204ECB
:107F80002876290050617373776F72643A004F75D9
:107F900074707574202000506F736974696F6E007F
:107FA00056616C7665506F7300536574506F696EDF
:107FB00074005B4D414E205D20005B4155544F5D88
:107FC0002000416E616C6F672000446967697461CD
:107FD0006C005370616E20005A65726F200043611F
:107FE0006C3F00646174610053503A000A6F6B008B
:107FF0002D2D003C3C003E3C003E3E002563000031
:020000040020DA
:08000000FFFFFFFFFFFFFFFF00
:020000040030CA
:0E000000FF021214FF8181FF0FC00FE00F40BE
:00000001FF
