:0400000007EF00F016
:100008007582EBED0EF066EF12F06DEF04F0000E66
:10001800516E000E0DEC11F0610E526E7E0E536E95
:10002800D3EC13F0000E516E010E0DEC11F0060E1C
:10003800526E200E92EC14F0790E526E7F0E536EB3
:10004800D3EC13F022A22BEF00F02DEF00F032EFEB
:1000580000F0000E226E000E216E192A22B037EF32
:1000680000F039EF00F040EF00F022A63EEF00F07C
:1000780040EF00F0AAEF04F0000E226E000E216E91
:10008800000E196E010EABEF04F0000E516E000E5B
:100098000DEC11F03F0E526E7E0E536ED3EC13F042
:1000A800000E516E010E0DEC11F0840E526E7F0E93
:1000B800536ED3EC13F0040E526E200E92EC14F033
:1000C8006EC053F0546A030E556E72EC0EF06E0E4D
:1000D800536E640E546E010E556EF5EC0DF022A4AD
:1000E80078EF00F07AEF00F092EF00F0000E216E4A
:1000F800000E226E0A0E6E18D8A485EF00F087EF66
:1001080000F08CEF00F00F0E6E6E192A92EF00F0DF
:100118000F0E6E6E000E196E46EF00F022A697EFD6
:1001280000F099EF00F0AAEF04F0000E226E000E26
:10013800216E0F0E6E6E000E196E46EF00F0000E67
:10014800516E000E0DEC11F0A90E526E7F0E536E1B
:10015800D3EC13F0010E526E200E92EC14F0DE0E6A
:10016800526E7F0E536ED3EC13F0030E526E200EB8
:1001780092EC14F0000E516E010E0DEC11F0060E0B
:10018800526E200E92EC14F0790E526E7F0E536E62
:10019800D3EC13F022A2D3EF00F0D5EF00F0DAEFA2
:1001A80000F0000E226E000E216E192A22A0DFEF49
:1001B80000F0E1EF00F0E7EF00F0000E226E000E15
:1001C800216E030E192622A6ECEF00F0EEEF00F0E8
:1001D800AAEF04F0000E226E000E216E0B0E196EAF
:1001E800AAEF04F0000E516E000E0DEC11F0A90EEE
:1001F800526E7F0E536ED3EC13F0010E526E200E2A
:1002080092EC14F02DC04BF02EC04CF0000E4E6E48
:100218000A0E4D6E4CEC11F04BC0B0F04CC0B1F072
:10022800B0C053F0B1C054F0030E556E72EC0EF02E
:100238002E0E67EC15F02DC04BF02EC04CF0000EC2
:100248004E6E0A0E4D6E99EC12F04BC0B2F04CC0D7
:10025800B3F0B2C053F0B3C054F0010E556E72EC57
:100268000EF0250E67EC15F0000E516E010E0DEC28
:1002780011F0D80E526E7F0E536ED3EC13F03AC0C5
:1002880053F0546A040E556E72EC0EF0070E526E5F
:10029800200E92EC14F03A0E576E3CEC14F0000964
:1002A800D8B459EF01F05BEF01F05CEF01F0192AC7
:1002B80022A661EF01F063EF01F0AAEF04F0EEEF80
:1002C80000F0000E516E000E0DEC11F0A90E526EEA
:1002D8007F0E536ED3EC13F0010E526E200E92EC8B
:1002E80014F02DC04BF02EC04CF0000E4E6E0A0ECE
:1002F8004D6E4CEC11F04BC0B0F04CC0B1F0B0C03A
:1003080053F0B1C054F0030E556E72EC0EF02E0E81
:1003180067EC15F02DC04BF02EC04CF0000E4E6E61
:100328000A0E4D6E99EC12F04BC0B2F04CC0B3F00F
:10033800B2C053F0B3C054F0010E556E72EC0EF01B
:10034800250E67EC15F0000E516E010E0DEC11F044
:10035800D20E526E7F0E536ED3EC13F039C053F0A9
:10036800546A040E556E72EC0EF0070E526E200E93
:1003780092EC14F0390E576E3CEC14F00009D8B426
:10038800C8EF01F0CAEF01F0CBEF01F0192A22A65D
:10039800D0EF01F0D2EF01F0AAEF04F0EEEF00F099
:1003A800000E516E000E0DEC11F0970E526E7F0E7E
:1003B800536ED3EC13F0010E526E200E92EC14F033
:1003C800DE0E526E7F0E536ED3EC13F0030E526E98
:1003D800200E92EC14F0000E516E010E0DEC11F08F
:1003E800060E526E200E92EC14F0790E526E7F0EAD
:1003F800536ED3EC13F022A204EF02F006EF02F0E2
:100408000BEF02F0000E226E000E216E192A22A0B8
:1004180010EF02F012EF02F018EF02F0000E226E59
:10042800000E216E030E192622A61DEF02F01FEF03
:1004380002F0AAEF04F0EEEF00F0000E516E000E8D
:100448000DEC11F0970E526E7F0E536ED3EC13F035
:10045800010E526E200E92EC14F02BC04BF02CC003
:100468004CF0000E4E6E0A0E4D6E4CEC11F04BC067
:10047800B0F04CC0B1F0B0C053F0B1C054F0030EAE
:10048800556E72EC0EF02E0E67EC15F02BC04BF08B
:100498002CC04CF0000E4E6E0A0E4D6E99EC12F008
:1004A8004BC0B2F04CC0B3F0B2C053F0B3C054F07C
:1004B800010E556E72EC0EF0250E67EC15F0000E6D
:1004C800516E010E0DEC11F0D80E526E7F0E536E68
:1004D800D3EC13F038C053F0546A040E556E72EC26
:1004E8000EF0070E526E200E92EC14F0380E576E76
:1004F8003CEC14F00009D8B484EF02F086EF02F067
:1005080087EF02F0192A22A68CEF02F08EEF02F094
:10051800AAEF04F0EEEF00F0000E516E000E0DECA5
:1005280011F0970E526E7F0E536ED3EC13F0010E3E
:10053800526E200E92EC14F02BC04BF02CC04CF0F5
:10054800000E4E6E0A0E4D6E4CEC11F04BC0B0F022
:100558004CC0B1F0B0C053F0B1C054F0030E556EAA
:1005680072EC0EF02E0E67EC15F02BC04BF02CC081
:100578004CF0000E4E6E0A0E4D6E99EC12F04BC008
:10058800B2F04CC0B3F0B2C053F0B3C054F0010E97
:10059800556E72EC0EF0250E67EC15F0000E516EDC
:1005A800010E0DEC11F0D20E526E7F0E536ED3EC8D
:1005B80013F037C053F0546A040E556E72EC0EF007
:1005C800070E526E200E92EC14F0370E576E3CEC6C
:1005D80014F00009D8B4F3EF02F0F5EF02F0F6EFEB
:1005E80002F0192A22A6FBEF02F0FDEF02F0AAEFB3
:1005F80004F0EEEF00F0000E516E000E0DEC11F05D
:100608008E0E526E7F0E536ED3EC13F0010E526EA7
:10061800200E92EC14F0DE0E526E7F0E536ED3EC69
:1006280013F0030E526E200E92EC14F0000E516E71
:10063800010E0DEC11F0060E526E200E92EC14F025
:10064800790E526E7F0E536ED3EC13F022A22FEF69
:1006580003F031EF03F036EF03F0000E226E000EC8
:10066800216E192A22A03BEF03F03DEF03F043EF80
:1006780003F0000E226E000E216E030E192622A62C
:1006880048EF03F04AEF03F0AAEF04F0EEEF00F0B2
:10069800000E516E000E0DEC11F08E0E526E7F0E94
:1006A800536ED3EC13F0010E526E200E92EC14F040
:1006B80031C04BF032C04CF0000E4E6E0A0E4D6E3B
:1006C8004CEC11F04BC0B0F04CC0B1F0B0C053F0DE
:1006D800B1C054F0030E556E72EC0EF02E0E67EC9E
:1006E80015F031C04BF032C04CF0000E4E6E0A0EC1
:1006F8004D6E99EC12F04BC0B2F04CC0B3F0B2C0E2
:1007080053F0B3C054F0010E556E72EC0EF0250E86
:1007180067EC15F0000E516E010E0DEC11F0D80EBD
:10072800526E7F0E536ED3EC13F038C053F0546AF8
:10073800040E556E72EC0EF0070E526E200E92ECFF
:1007480014F0380E576E3CEC14F00009D8B4AFEF33
:1007580003F0B1EF03F0B2EF03F0192A22A6B7EFC6
:1007680003F0B9EF03F0AAEF04F0EEEF00F0000E8B
:10077800516E000E0DEC11F0970E526E7F0E536EF7
:10078800D3EC13F0010E526E200E92EC14F031C02F
:100798004BF032C04CF0000E4E6E0A0E4D6E4CEC13
:1007A80011F04BC0B0F04CC0B1F0B0C053F0B1C0C4
:1007B80054F0030E556E72EC0EF02E0E67EC15F029
:1007C80031C04BF032C04CF0000E4E6E0A0E4D6E2A
:1007D80099EC12F04BC0B2F04CC0B3F0B2C053F079
:1007E800B3C054F0010E556E72EC0EF0250E67EC96
:1007F80015F0000E516E010E0DEC11F0D20E526E76
:100808007F0E536ED3EC13F037C053F0546A040EC6
:10081800556E72EC0EF0070E526E200E92EC14F02C
:10082800370E576E3CEC14F00009D8B41EEF04F0F4
:1008380020EF04F021EF04F0192A22A626EF04F095
:1008480028EF04F0AAEF04F0EEEF00F0000E516E6E
:10085800000E0DEC11F0A50E526E7E0E536ED3EC09
:1008680013F0000E516E010E0DEC11F0060E526ED3
:10087800200E92EC14F0790E526E7F0E536ED3EC6C
:1008880013F022A24AEF04F04CEF04F052EF04F008
:10089800000E226E000E216E020E196E22A057EF76
:1008A80004F059EF04F0AAEF04F0000E226E000ED7
:1008B800216E000E196E370E4E6E020E4F6E060E2A
:1008C800506E4CEC13F046EF00F0000E196EAAEFD4
:1008D80004F019505E6E5F6A5F50000AD8B477EF73
:1008E80004F069EF04F05E50000AD8B40BEF00F092
:1008F800010AD8B449EF00F0030AD8B4A3EF00F016
:10090800010AD8B4F6EF00F0070AD8B465EF01F091
:10091800010AD8B4D4EF01F0030AD8B421EF02F0E9
:10092800010AD8B490EF02F00F0AD8B4FFEF02F032
:10093800010AD8B44CEF03F0030AD8B4BBEF03F0B4
:10094800010AD8B42AEF04F069EF04F0000E12008F
:1009580057EF06F0000E516E000E0DEC11F0500E20
:10096800526E7E0E536ED3EC13F0000E516E010ED4
:100978000DEC11F0060E526E200E92EC14F0790E6A
:10098800526E7F0E536ED3EC13F022A2CEEF04F01A
:10099800D0EF04F0D5EF04F0000E226E000E216EA9
:1009A8001A2A22B0DAEF04F0DCEF04F0E3EF04F0E7
:1009B80022A6E1EF04F0E3EF04F078EF06F0000E72
:1009C800226E000E216E000E1A6E010E79EF06F0EF
:1009D800000E516E000E0DEC11F0720E526E7E0E6E
:1009E800536ED3EC13F0000E516E010E0DEC11F0A6
:1009F800840E526E7F0E536ED3EC13F0040E526EBB
:100A0800200E92EC14F06EC053F0546A030E556E2B
:100A180072EC0EF06E0E536E640E546E010E556E2F
:100A2800F5EC0DF022A41BEF05F01DEF05F035EFF6
:100A380005F0000E216E000E226E0A0E6E18D8A464
:100A480028EF05F02AEF05F02FEF05F01A2A0F0E10
:100A58006E6E35EF05F0000E1A6E0F0E6E6EE9EF32
:100A680004F022A63AEF05F03CEF05F078EF06F027
:100A7800000E226E000E216E0F0E6E6E000E1A6EA4
:100A8800E9EF04F0000E516E000E0DEC11F01C0E93
:100A9800526E7F0E536ED3EC13F0000E516E010EA2
:100AA8000DEC11F00A0E526E200E92EC14F040C0BC
:100AB8004BF04C6A000E4E6E0A0E4D6E51EC0FF064
:100AC8004BC053F04CC054F0030E556E72EC0EF050
:100AD8002E0E67EC15F040C04BF04C6A000E4E6EBF
:100AE8000A0E4D6E0DEC10F04BC053F04CC054F094
:100AF800010E556E72EC0EF0250E67EC15F0400EE7
:100B0800536E640E546E010E556EF5EC0DF022A472
:100B180090EF05F092EF05F097EF05F0000E226ECA
:100B2800000E216E1A2A22A69CEF05F09EEF05F012
:100B380078EF06F0000E226E000E216E040E1A6E7B
:100B480078EF06F0000E516E000E0DEC11F0830EDA
:100B5800526E7E0E536ED3EC13F0000E516E010EE2
:100B68000DEC11F0090E526E200E92EC14F04104B7
:100B7800D8A4C1EF05F0C3EF05F0CBEF05F0C20E26
:100B8800526E7F0E536ED3EC13F0D1EF05F0CA0E00
:100B9800526E7F0E536ED3EC13F022B2D6EF05F0EF
:100BA800D8EF05F0DFEF05F022A0DDEF05F0DFEF6D
:100BB80005F0F1EF05F0000E226E000E216E4104E3
:100BC800D8A4E9EF05F0EBEF05F0EFEF05F0000E24
:100BD800416EF1EF05F0010E416E22A4F6EF05F02B
:100BE800F8EF05F0FDEF05F0000E226E000E216E05
:100BF8001A2A22A602EF06F004EF06F078EF06F0B4
:100C08009EEF05F0000E516E000E0DEC11F0940EE3
:100C1800526E7E0E536ED3EC13F0000E516E010E21
:100C28000DEC11F0060E526E200E92EC14F0790EB7
:100C3800526E7F0E536ED3EC13F022A226EF06F00D
:100C480028EF06F02EEF06F0000E226E000E216E41
:100C5800020E1A6E22B033EF06F035EF06F043EFBE
:100C680006F022B43AEF06F03CEF06F043EF06F048
:100C780022A641EF06F043EF06F078EF06F0000EEB
:100C8800226E000E216E400E4E6E000E4F6E020E4A
:100C9800506E4CEC13F0000E1A6EE9EF04F0000EE3
:100CA8001A6E78EF06F01A505E6E5F6A5F50000A9F
:100CB800D8B461EF06F053EF06F05E50000AD8B4DE
:100CC800AEEF04F0010AD8B4ECEF04F0030AD8B48C
:100CD80046EF05F0010AD8B4A6EF05F0070AD8B424
:100CE80006EF06F053EF06F0000E1200000E516EEC
:100CF800000E0DEC11F033A484EF06F086EF06F039
:100D08008EEF06F0F60E526E7F0E536ED3EC13F094
:100D1800B2EF06F033A093EF06F095EF06F09DEFE3
:100D280006F0F90E526E7F0E536ED3EC13F0B2EF4D
:100D380006F033A2A2EF06F0A4EF06F0ACEF06F03F
:100D4800F30E526E7F0E536ED3EC13F0B2EF06F033
:100D5800F00E526E7F0E536ED3EC13F0A00E526E4F
:100D68007F0E536ED3EC13F02BC04BF02CC04CF01D
:100D7800000E4E6E0A0E4D6E4CEC11F04BC0B0F0EA
:100D88004CC0B1F0B0C053F0B1C054F0030E556E72
:100D980072EC0EF02E0E67EC15F02BC04BF02CC049
:100DA8004CF0000E4E6E0A0E4D6E99EC12F04BC0D0
:100DB800B2F04CC0B3F0B2C053F0B3C054F0010E5F
:100DC800556E72EC0EF0250E67EC15F0000E516EA4
:100DD800010E0DEC11F0DFEF07F035A0F6EF06F08D
:100DE800F8EF06F00BEF07F00B0E526E7F0E536E06
:100DF800D3EC13F02350D8B404EF07F006EF07F054
:100E080004EF08F0000E236E1B2A04EF08F01B2ADB
:100E180035A211EF07F013EF07F023EF07F0D80E14
:100E2800526E7E0E536ED3EC13F02350D8B41FEFDE
:100E380007F021EF07F004EF08F006EF07F01B2A90
:100E480035A429EF07F02BEF07F03BEF07F0FA0E78
:100E5800526E7E0E536ED3EC13F02350D8B437EF96
:100E680007F039EF07F004EF08F006EF07F01B2A48
:100E780035A641EF07F043EF07F053EF07F0E90E0F
:100E8800526E7E0E536ED3EC13F02350D8B44FEF4E
:100E980007F051EF07F004EF08F006EF07F01B2A00
:100EA80035AA59EF07F05BEF07F06BEF07F0C70EB5
:100EB800526E7E0E536ED3EC13F02350D8B467EF06
:100EC80007F069EF07F004EF08F006EF07F01B2AB8
:100ED80035AC71EF07F073EF07F083EF07F0B60E4C
:100EE800526E7E0E536ED3EC13F02350D8B47FEFBE
:100EF80007F081EF07F004EF08F006EF07F01B2A70
:100F080035A889EF07F08BEF07F093EF07F0BA0EDB
:100F1800526E7F0E536ED3EC13F099EF07F0B20EBA
:100F2800526E7F0E536ED3EC13F0E80E526E7F0EA6
:100F3800536ED3EC13F02FC04BF030C04CF0000EC2
:100F48004E6E0A0E4D6E4CEC11F04BC0B0F04CC01A
:100F5800B1F0B0C053F0B1C054F0030E556E72EC4E
:100F68000EF02E0E67EC15F02FC04BF030C04CF091
:100F7800000E4E6E0A0E4D6E99EC12F04BC0B2F098
:100F88004CC0B3F0B2C053F0B3C054F0010E556E6C
:100F980072EC0EF0250E67EC15F02350D8B4D7EF9D
:100FA80007F0D9EF07F004EF08F0000E236E000EEB
:100FB8001B6E04EF08F01B505E6E5F6A5F50000AFC
:100FC800D8B4E9EF07F084EF07F05E50000AD8B410
:100FD800F1EF06F0010AD8B40CEF07F0030AD8B411
:100FE80024EF07F0010AD8B43CEF07F0070AD8B499
:100FF80054EF07F0010AD8B46CEF07F084EF07F05C
:101008001200EFEC14F00009D8B40DEF08F00FEF60
:1010180008F005EF08F0F9EC14F04B500B264C5093
:101028000C22010E6D5ED8B41CEF08F01EEF08F01C
:1010380020EF08F036EF09F0020E6D6ED8900C30F4
:10104800596E0B300001B06F59C0B1F0000E0C6E34
:10105800000E0B6E21EF09F03A50B05D596EB15198
:101068005A6E000E5A5A5B6A5B5A5C6A5C5AAA0E40
:1010780059244B6EFF0E5A204C6EFF0E5B204D6EAE
:10108800FF0E5C204E6E39504F6E506A516A526A9C
:1010980031EC12F04BC0B2F04CC0B3F04DC0B4F01C
:1010A8004EC0B5F0B2C04BF0B3C04CF0B4C04DF078
:1010B800B5C04EF0640E4F6E000E506E000E516EAD
:1010C800000E526E6FEC0DF04BC0B2F04CC0B3F096
:1010D8004DC0B4F04EC0B5F00001B5BF81EF08F0C7
:1010E800B551B411B31107E1020EB25DD8B07FEF6C
:1010F80008F081EF08F087EF08F0000E2E6E000E62
:101108002D6EA2EF08F0B5BF98EF08F0B551B411F5
:1011180009E1E90EB25D030EB359D8B096EF08F0B5
:1011280098EF08F09EEF08F0B2C02DF0B3C02EF093
:10113800A2EF08F0030E2E6EE80E2D6E1D2A1D502C
:10114800CDEC14F036EF09F03850B05D596EB1515E
:101158005A6E000E5A5A5B6A5B5A5C6A5C5AAA0E4F
:1011680059244B6EFF0E5A204C6EFF0E5B204D6EBD
:10117800FF0E5C204E6E37504F6E506A516A526AAD
:1011880031EC12F04BC0B2F04CC0B3F04DC0B4F02B
:101198004EC0B5F0B2C04BF0B3C04CF0B4C04DF087
:1011A800B5C04EF0640E4F6E000E506E000E516EBC
:1011B800000E526E6FEC0DF04BC0B2F04CC0B3F0A5
:1011C8004DC0B4F04EC0B5F00001B5BFF9EF08F05E
:1011D800B551B411B31107E1020EB25DD8B0F7EF03
:1011E80008F0F9EF08F0FFEF08F0000E2C6E000E83
:1011F8002B6E1AEF09F0B5BF10EF09F0B551B41115
:1012080009E1E90EB25D030EB359D8B00EEF09F04B
:1012180010EF09F016EF09F0B2C02BF0B3C02CF0B4
:101228001AEF09F0030E2C6EE80E2B6E000E1D6EE1
:10123800000ECDEC14F036EF09F01D50596E5A6AC5
:101248005A50000AD8B42BEF09F036EF09F059507C
:10125800000AD8B430EF08F0010AD8B4A8EF08F0B3
:1012680036EF09F095EC15F0120081BE3EEF09F05B
:1012780040EF09F043EF09F0348044EF09F034906F
:1012880081BC49EF09F04BEF09F04EEF09F03482C9
:101298004FEF09F0349281BA54EF09F056EF09F094
:1012A80059EF09F034845AEF09F0349434AC5FEF05
:1012B80009F061EF09F06AEF09F034A466EF09F06C
:1012C80068EF09F06AEF09F03490349234A86FEFB0
:1012D80009F071EF09F079EF09F034A076EF09F021
:1012E80078EF09F079EF09F0349234AA7EEF09F02B
:1012F80080EF09F088EF09F034A285EF09F087EF55
:1013080009F088EF09F0349034A402D0348C01D06D
:10131800349C34A002D0348801D0349834A202D04E
:10132800348A01D0349A81B29CEF09F09EEF09F01B
:10133800A1EF09F03580A2EF09F0359081B0A7EF51
:1013480009F0A9EF09F0ACEF09F03582ADEF09F02B
:10135800359281B6B2EF09F0B4EF09F0B7EF09F0B2
:101368003584B8EF09F0359481B4BDEF09F0BFEFCB
:1013780009F0C2EF09F03586C3EF09F0359681B858
:10138800C8EF09F0CAEF09F0CDEF09F03588CEEFC4
:1013980009F0359882B2D3EF09F0D5EF09F0D8EF0C
:1013A80009F0358AD9EF09F0359A82B0DEEF09F0F5
:1013B800E0EF09F0E3EF09F0358CE4EF09F0359C34
:1013C80080BAE9EF09F0EBEF09F0EEEF09F03680AB
:1013D800EFEF09F0369084B0F4EF09F0F6EF09F07A
:1013E800F9EF09F03682FAEF09F0369284B2FFEF8E
:1013F80009F001EF0AF004EF0AF0368405EF0AF06D
:10140800369436AC0AEF0AF00CEF0AF015EF0AF042
:1014180036A411EF0AF013EF0AF015EF0AF0369030
:10142800369236A81AEF0AF01CEF0AF024EF0AF0F9
:1014380036A021EF0AF023EF0AF024EF0AF03692E3
:1014480036AA29EF0AF02BEF0AF033EF0AF036A29A
:1014580030EF0AF032EF0AF033EF0AF0369036A494
:1014680002D0368C01D0369C36A002D0368801D006
:10147800369836A202D0368A01D0369A1200000E6B
:10148800566E000E576E35A84CEF0AF04EEF0AF074
:1014980084EF0AF04150D8B454EF0AF056EF0AF03E
:1014A8005DEF0AF033942DC02FF02EC030F09FEF7F
:1014B8000AF036A462EF0AF064EF0AF06BEF0AF064
:1014C800000E566E000E576E33849FEF0AF036A05A
:1014D80070EF0AF072EF0AF077EF0AF0010E566E1D
:1014E80033949FEF0AF036A27CEF0AF07EEF0AF001
:1014F80082EF0AF0010E576E74EF0AF09FEF0AF0C0
:1015080034A489EF0AF08BEF0AF08DEF0AF064EF4C
:101518000AF034A092EF0AF094EF0AF096EF0AF07E
:1015280072EF0AF034A29BEF0AF09DEF0AF09FEFEA
:101538000AF07EEF0AF035B0A4EF0AF0A6EF0AF041
:10154800ADEF0AF035A4ABEF0AF0ADEF0AF0AEEF5D
:101558000AF0339035B2B3EF0AF0B5EF0AF0BCEFFA
:101568000AF035A6BAEF0AF0BCEF0AF0BDEF0AF0B0
:10157800339235BAC2EF0AF0C4EF0AF0CBEF0AF0A3
:1015880035ACC9EF0AF0CBEF0AF0CCEF0AF03384A0
:1015980033A4D1EF0AF0D3EF0AF0D7EF0AF0339073
:1015A80033922EEF0BF04150D8B4DDEF0AF0DFEFA5
:1015B8000AF014EF0BF035A8E4EF0AF0E6EF0AF0B2
:1015C80014EF0BF040502F24546E000E3020556E4F
:1015D8002B50545C2C505558D8B0F5EF0AF0F7EF63
:1015E8000AF0FBEF0AF0339033822EEF0BF04050F5
:1015F8002B24546E000E2C20556E2F50545C305006
:101608005558D8B00AEF0BF00CEF0BF010EF0BF0B9
:10161800338033922EEF0BF0339233902EEF0BF092
:101628002BC02FF02CC030F05650D8B41EEF0BF062
:1016380020EF0BF024EF0BF0338033922EEF0BF0FA
:101648005750D8B42AEF0BF02CEF0BF0D3EF0AF079
:1016580033903382F9EC11F012000F0E095C0E0E74
:101668000A58D8B03AEF0BF03CEF0BF040EF0BF014
:10167800094A0A2A4CEF0BF0000E0A6E000E096E9A
:10168800010E236E010E166E010E136E010E1F6EF3
:10169800010E206E09C042F00AC043F0070E456EE5
:1016A800080E446ECBEC12F042504310D8A45FEF02
:1016B8000BF061EF0BF063EF0BF0010E136E09C036
:1016C80042F00AC043F0000E456E1E0E446ECBEC8D
:1016D80012F042504310D8A474EF0BF076EF0BF0E1
:1016E8007AEF0BF0010E236E010E166E09C042F060
:1016F8000AC043F0000E456E0A0E446ECBEC12F0A1
:1017080042504310D8A48BEF0BF08DEF0BF09AEFFB
:101718000BF0010E146E1150D8B495EF0BF098EF42
:101728000BF0010E99EF0BF0000E116E09C042F09C
:101738000AC043F0000E456E050E446ECBEC12F065
:1017480042504310D8A4ABEF0BF0ADEF0BF0B8EF5D
:101758000BF01250D8B4B3EF0BF0B6EF0BF0010E4C
:10176800B7EF0BF0000E126E09B0BDEF0BF0BFEF34
:101778000BF0C1EF0BF0010E156E000E186E83B260
:10178800C8EF0BF0CAEF0BF0CBEF0BF0188083B467
:10179800D0EF0BF0D2EF0BF0D3EF0BF0188283B63B
:1017A800D8EF0BF0DAEF0BF0DBEF0BF0188483B80F
:1017B800E0EF0BF0E2EF0BF0E3EF0BF018861750B9
:1017C800FF0A1814221218C017F01850D8B4EFEFF7
:1017D8000BF0F1EF0BF002EF0CF06C50D8A4F7EF20
:1017E8000BF0F9EF0BF0FFEF0BF0020E6C6E1850D8
:1017F800211204EF0CF06C0604EF0CF0020E6C6E74
:101808001200B1EC14F0F28EF28C5AEC15F0000EC6
:10181800BDEC10F0C0EC11F0000E516E000E0DEC96
:1018280011F04E0E526E7F0E536ED3EC13F0000E75
:10183800516E010E0DEC11F03E0E526E7F0E536E7E
:10184800D3EC13F0CCEC0CF025EC13F042EC15F0D3
:10185800000E4C6ECC0E4B6EB3EC0FF00400205013
:10186800D8B439EF0CF03BEF0CF07DEF0CF0000E24
:10187800206E05EC08F039EC09F07DEF0CF01F50F4
:10188800D8B449EF0CF04BEF0CF04FEF0CF0000E12
:101898001F6EC0EC11F043EC0AF07AEC06F022A6B9
:1018A80058EF0CF05AEF0CF097EF0CF0000E226E88
:1018B800000E216E1E2A97EF0CF043EC0AF0ACECF8
:1018C80004F00009D8B46BEF0CF06DEF0CF097EF53
:1018D8000CF05EEF0CF009EC00F00009D8B477EFDB
:1018E8000CF079EF0CF097EF0CF0000E1E6E97EFEE
:1018F8000CF01E500001B66FB76BB751000AD8B490
:1019080088EF0CF079EF0CF0B651000AD8B443EF29
:101918000CF0010AD8B461EF0CF0030AD8B46FEFE9
:101928000CF079EF0CF02B500001B66F2C50B76F0C
:10193800B86BB96B020ED890B637B737B837B93726
:10194800E82E9FEF0CF0B6C04BF0B7C04CF0B8C013
:101958004DF0B9C04EF0050E4F6E000E506E000EE1
:10196800516E000E526E6FEC0DF0CC0E4B24316EA2
:10197800000E4C20326E31C04BF032C04CF0B3EC4C
:101988000FF025EC13F0040033EF0CF007EF00F034
:10199800400E4C6E000E4D6E020E4E6E71EC13F042
:1019A8004050D8B4DAEF0CF0DCEF0CF0E4EF0CF0B8
:1019B800640E4064E2EF0CF0E4EF0CF0E6EF0CF09C
:1019C8000A0E406E4104D8B4ECEF0CF0EEEF0CF0C8
:1019D800F8EF0CF04150D8B4F4EF0CF0F6EF0CF03F
:1019E800F8EF0CF0000E416E370E4C6E020E4D6E85
:1019F800060E4E6E71EC13F03750D8B406EF0DF0AA
:101A080008EF0DF010EF0DF0C80E37640EEF0DF073
:101A180010EF0DF012EF0DF0640E376E3850D8B499
:101A280018EF0DF01AEF0DF022EF0DF0C80E386424
:101A380020EF0DF022EF0DF024EF0DF0640E386E5C
:101A48003950D8B42AEF0DF02CEF0DF034EF0DF02B
:101A5800C80E396432EF0DF034EF0DF036EF0DF0AB
:101A6800640E396E3A50D8B43CEF0DF03EEF0DF0ED
:101A780046EF0DF0C80E3A6444EF0DF046EF0DF056
:101A880048EF0DF0640E3A6E3950D8B44EEF0DF0B1
:101A980050EF0DF058EF0DF0C80E396456EF0DF009
:101AA80058EF0DF05AEF0DF0640E396E3C50D8B473
:101AB80060EF0DF062EF0DF06AEF0DF0C80E3C64B8
:101AC80068EF0DF06AEF0DF06CEF0DF0640E3C6EF0
:101AD800000E1C6E1200000E546E52BE78EF0DF010
:101AE80076EF0DF082EF0DF0521E511E501E4F6C16
:101AF800000E502251225222010E546E4EBE89EF22
:101B08000DF087EF0DF093EF0DF04E1E4D1E4C1E9D
:101B18004B6C000E4C224D224E22010E541A000E20
:101B2800556E000E566E000E576E000E586E4F50D2
:101B3800501051105210D8B4A4EF0DF0A6EF0DF0CC
:101B4800DCEF0DF0010E536EB0EF0DF0D8904F366C
:101B5800503651365236532A52AEB5EF0DF0B7EF24
:101B68000DF0AAEF0DF0D890553656365736583640
:101B78004F504B5C50504C5851504D5852504E5845
:101B8800D8A0C9EF0DF0CBEF0DF0D4EF0DF04F500A
:101B98004B5E50504C5A51504D5A52504E5A5580E7
:101BA800D8905232513250324F32532EB7EF0DF097
:101BB8005450D8B4E2EF0DF0E4EF0DF0ECEF0DF077
:101BC800581E571E561E556C000E56225722582274
:101BD80055C04BF056C04CF057C04DF058C04EF0B1
:101BE80012005350D96EDA6A5550DE5CD8A0FFEF68
:101BF8000DF001EF0EF00DEF0EF05350D96EDA6ACA
:101C0800DE50545CD8B00BEF0EF00DEF0EF01DEF68
:101C18000EF05350D96EDA6A545055244B6E4C6A04
:101C28004C36000E4E6E020E4D6E51EC0FF04B50BE
:101C3800DF6E22B222EF0EF024EF0EF02BEF0EF043
:101C480021A229EF0EF02BEF0EF048EF0EF0000E58
:101C5800226E000E216E5350D96EDA6A5450DE5C43
:101C6800D8B039EF0EF03BEF0EF041EF0EF05350C5
:101C7800D96EDA6ADF2A71EF0EF05350D96EDA6A3C
:101C880054C0DFFF71EF0EF022B04DEF0EF04FEFB2
:101C98000EF056EF0EF021A054EF0EF056EF0EF0B6
:101CA80071EF0EF0000E226E000E216E5350D96EA9
:101CB800DA6ADE50555CD8B064EF0EF066EF0EF0CD
:101CC8006CEF0EF05350D96EDA6ADF0671EF0EF042
:101CD8005350D96EDA6A55C0DFFF1200010E5D6EEF
:101CE80020EE65F010EE57F0040EDBCFE3FFE806B8
:101CF800FCE2050E556483EF0EF085EF0EF0C8EF99
:101D08000EF0050E556EC8EF0EF05D50555CD8B05C
:101D180090EF0EF092EF0EF094EF0EF0D0EF0EF081
:101D280053C04BF054C04CF0000E4E6E0A0E4D6E70
:101D380099EC12F04B505C6E5DC056F0FF0E5626C3
:101D48005650570FD96EDA6A5C50300FDF6E5C5010
:101D5800535C4B6E5450D8A054044C6E000E4E6E1B
:101D68000A0E4D6E4CEC11F04BC053F04CC054F0C1
:101D780053505410D8A4C3EF0EF0C5EF0EF0C7EFC0
:101D88000EF0D0EF0EF05D2A050E5D64CEEF0EF07A
:101D9800D0EF0EF089EF0EF055C05DF05D50D8A47D
:101DA800D8EF0EF0DAEF0EF0DCEF0EF0EAEF0EF0FF
:101DB8005DC056F0FF0E56265650570FD96EDA6A98
:101DC800DF5067EC15F05D06D2EF0EF0120006004A
:101DD800FACF47F0FBCF48F0D9CF49F0DACF4AF035
:101DE800F2AAF9EF0EF0FBEF0EF006EF0FF0F2A4F7
:101DF80000EF0FF002EF0FF006EF0FF04AEC15F0CE
:101E080047EF0FF0F2AC0BEF0FF00DEF0FF047EFCD
:101E18000FF09DA812EF0FF014EF0FF02AEF0FF05C
:101E28009EA819EF0FF01BEF0FF02AEF0FF002D862
:101E380028EF0FF00500FA6E7350FD6E7450FE6EB9
:101E4800F850FF6EFA50120047EF0FF09DAA2FEFDF
:101E58000FF031EF0FF047EF0FF09EAA36EF0FF0BB
:101E680038EF0FF047EF0FF002D845EF0FF00500FD
:101E7800FA6E7150FD6E7250FE6EF850FF6EFA5099
:101E8800120047EF0FF04AC0DAFF49C0D9FF48C037
:101E9800FBFF47C0FAFF75921100000E506E4EBE50
:101EA8005AEF0FF058EF0FF060EF0FF04D6C4E1E29
:101EB800D8B04E2A010E506E4CBE67EF0FF065EF9A
:101EC8000FF06DEF0FF04B6C4C1ED8B04C2A010E82
:101ED800501A000E526E000E516E4D504E10D8B46E
:101EE80078EF0FF07AEF0FF0A2EF0FF0010E4F6EC0
:101EF80082EF0FF0D8904D364E364F2A4EAE87EF10
:101F08000FF089EF0FF07EEF0FF0D8905136523670
:101F18004D504B5C4E504C58D8A095EF0FF097EFB2
:101F28000FF09CEF0FF04D504B5E4E504C5A5180C5
:101F3800D8904E324D324F2E89EF0FF05050D8B412
:101F4800A8EF0FF0AAEF0FF0AEEF0FF0516C521E92
:101F5800D8B0522A51C04BF052C04CF01200040EB7
:101F68004C5CD8A0BAEF0FF0BCEF0FF0BFEF0FF04A
:101F7800030E4C6E4B684C5007E1CC0E4B5CD8B04E
:101F8800C8EF0FF0CAEF0FF0CEEF0FF0000E4C6E57
:101F9800CC0E4B6E4BC04DF04CC04EF0D8904E322C
:101FA8004D32D8904E324D324D50BE6EECEF0FF0A0
:101FB800BD8ABD880CEF10F0BD8ABD980CEF10F0FB
:101FC800BD9ABD880CEF10F0BD9ABD980CEF10F0CB
:101FD800010E4B144D6E000E4C144E6E4E50000AFE
:101FE800D8B4F9EF0FF00CEF10F04D50000AD8B448
:101FF800E8EF0FF0010AD8B4E4EF0FF0030AD8B401
:10200800E0EF0FF0010AD8B4DCEF0FF00CEF10F09E
:102018001200000E506E4CBE16EF10F014EF10F0C8
:102028001CEF10F04B6C4C1ED8B04C2A010E506EB1
:102038004EBE23EF10F021EF10F027EF10F04D6C9B
:102048004E1ED8B04E2A4D504E10D8B42EEF10F078
:1020580030EF10F054EF10F0010E4F6E38EF10F023
:10206800D8904D364E364F2A4EAE3DEF10F03FEF2A
:1020780010F034EF10F04D504B5C4E504C58D8A037
:1020880048EF10F04AEF10F04EEF10F04D504B5E55
:102098004E504C5AD8904E324D324F2E3FEF10F0E2
:1020A8005050D8B45AEF10F05CEF10F060EF10F019
:1020B8004B6C4C1ED8B04C2A4BC04BF04CC04CF06B
:1020C80012002750010FD96EDA6ADF6AABA46FEFEE
:1020D80010F071EF10F084EF10F02750010FD96E57
:1020E800DA6ADF8202D884EF10F005000001FA6E88
:1020F800BE51FD6EBF51FE6EF850FF6EFA501200D1
:10210800ABA289EF10F08BEF10F09EEF10F0275084
:10211800010FD96EDA6ADF8402D89EEF10F005004D
:102128000001FA6EBC51FD6EBD51FE6EF850FF6E97
:10213800FA5012002750010FD96EDA6ADF50D8B46E
:10214800A8EF10F0AAEF10F0BAEF10F002D8B8EF2D
:1021580010F005000001FA6EBA51FD6EBB51FE6E1B
:10216800F850FF6EFA501200BCEF10F07FEC14F03C
:1021780012004C6EC6BAC3EF10F0C5EF10F00BEFAB
:1021880011F04C50040D010EF326000EF422F90E46
:10219800F324F66E7D0EF420F76E0800F5CFC7FF26
:1021A8004C50040DF90EF324F66E7D0EF420F76EF4
:1021B8000800F5CFC6FF000EC56E4C50040D020E88
:1021C800F326000EF422F90EF324F66E7D0EF420A9
:1021D800F76E0800F5CFC8FF4C50040D030EF32628
:1021E800000EF422F90EF324F66E7D0EF420F76E3D
:1021F8000800F5CF4BF04B464B464B4694504B18D6
:10220800F70B4B18946EC68A010E0CEF11F0000EF6
:102218001200546E2EEF11F05150800F16EC15F08D
:102228004BEF11F05150C00F16EC15F04BEF11F0B9
:102238005150900F16EC15F04BEF11F05150D00F94
:1022480016EC15F04BEF11F05150C00F16EC15F0CD
:102258004BEF11F05450526E536A5350000AD8B4E1
:1022680038EF11F028EF11F05250000AD8B410EFEF
:1022780011F0010AD8B416EF11F0030AD8B41CEF14
:1022880011F0010AD8B422EF11F028EF11F0120072
:10229800000E516E000E506E4D504E10D8B457EFD0
:1022A80011F059EF11F081EF11F0010E4F6E61EF4F
:1022B80011F0D8904D364E364F2A4EAE66EF11F0DB
:1022C80068EF11F05DEF11F0D890503651364D504F
:1022D8004B5C4E504C58D8A074EF11F076EF11F0CB
:1022E8007BEF11F04D504B5E4E504C5A5080D890B9
:1022F8004E324D324F2E68EF11F050C04BF051C0A6
:102308004CF012009D9ACA0E4B6E200E4C6E7BEC60
:1023180015F09D986A0E4B6E270E4C6E76EC15F0F4
:10232800080EB86E900EAB6E240EAC6E080EAF6E33
:10233800020EB06E340E4B6E2B0E4C6E85EC15F003
:102348001E0E4B6E2B0E4C6E80EC15F0240E4B6E51
:102358002B0E4C6E8AEC15F0000E246E000E2A6EC1
:10236800000E296E080E286E000E276E000E266ECF
:10237800000E256E9D8A12008C9A000E4C6E050E7A
:102388004B6E24EC14F08C8A380E16EC15F0000E07
:102398004C6E050E4B6E24EC14F0380E16EC15F04E
:1023A800000E4C6E050E4B6E24EC14F0380E16EC35
:1023B80015F00C0E16EC15F0000E4C6E050E4B6E5B
:1023C80024EC14F0020E16EC15F0000E4C6E050EFF
:1023D8004B6E24EC14F0010E16EC15F0000E4C6E4A
:1023E800050E4B6E24EC14F01200000E536E33A051
:1023F80000EF12F002EF12F003EF12F0538A33A24B
:1024080008EF12F00AEF12F00BEF12F0538833A422
:1024180010EF12F012EF12F013EF12F0538635A4FA
:1024280018EF12F01AEF12F01BEF12F0538435A6D2
:1024380020EF12F022EF12F023EF12F0538235A8AA
:1024480028EF12F02AEF12F02BEF12F05380000E53
:10245800506E5350A2EC14F01200000E536E000E92
:10246800546E000E556E000E566E4BA03EEF12F0E5
:1024780040EF12F048EF12F04F50532650505422BC
:102488005150552252505622D8904F365036513618
:102498005236D8904E324D324C324B324B504C1053
:1024A8004D104E10D8A45BEF12F05DEF12F039EF2B
:1024B80012F053C04BF054C04CF055C04DF056C00C
:1024C8004EF01200740EF66E2A0EF76E000EF86EBD
:1024D80000EEA0F010EE10F00900F5CFEEFFE55089
:1024E800E150FAE1A40EF66E2A0EF76E000EF86EB1
:1024F80000EE60F010EE0FF00900F5CFEEFFE550AA
:10250800E150FAE100EE80F0200EEE6AE806FDE107
:1025180000EE01F0410EEE6AE806FDE17590759255
:10252800000EF86E000105EF0CF04D504E10D8B4B7
:10253800A0EF12F0A2EF12F0C6EF12F0010E4F6EEC
:10254800AAEF12F0D8904D364E364F2A4EAEAFEF66
:1025580012F0B1EF12F0A6EF12F04D504B5C4E5056
:102568004C58D8A0BAEF12F0BCEF12F0C0EF12F03E
:102578004D504B5E4E504C5AD8904E324D324F2EE5
:10258800B1EF12F04BC04BF04CC04CF0120044506D
:102598004510D8B4D2EF12F0D4EF12F0F8EF12F0E1
:1025A800010E466EDCEF12F0D89044364536462AC6
:1025B80045AEE1EF12F0E3EF12F0D8EF12F044501D
:1025C800425C45504358D8A0ECEF12F0EEEF12F001
:1025D800F2EF12F04450425E4550435AD8904532CB
:1025E8004432462EE3EF12F042C042F043C043F0BB
:1025F800120007EF13F0350EE82EFED70000200E6C
:102608004B5E000E4C5A4C5007E1200E4B5CD8B084
:1026180010EF13F012EF13F0FFEF12F017EF13F0B3
:1026280000D000D000004B06D8A04C064B2806E18D
:102638004C28D8A422EF13F024EF13F014EF13F072
:10264800120033A02AEF13F02CEF13F030EF13F041
:102658001C801C923DEF13F033A235EF13F037EFD7
:1026680013F03BEF13F01C901C823DEF13F01C900D
:102678001C9235A842EF13F044EF13F047EF13F024
:102688001C8448EF13F01C941C5061EC15F01200E8
:10269800000E556E000E546E5EEF13F04E50D96E5C
:1026A800DA6ADF504B6E4F5095EC13F04E2A4F2AE2
:1026B800544A552A5050516E526A5150545C5550E4
:1026C800800A536E5250800A5358D8A06EEF13F008
:1026D80070EF13F052EF13F01200000E536E000E5D
:1026E800526E82EF13F04C50D96EDA6A4D5003ECFB
:1026F80015F0DF6E4D2A4C2A524A532A4E504F6E1F
:10270800506A4F50525C5350800A516E5050800AA4
:102718005158D8A092EF13F094EF13F077EF13F01D
:1027280012004C6E000EF2BE010E4D6E4CC0A9FF99
:102738004BC0A8FFA69EA69CA684F29E550EA76E27
:10274800AA0EA76EA682A6B2ACEF13F0AEEF13F0F6
:10275800A7EF13F0A6944DB002D0F29E01D0F28EEE
:102768001200080E2860BBEF13F0BDEF13F0D1EF95
:1027780013F02950880FD96EDA6ADF50AD6E292A16
:10278800070E2964CAEF13F0CCEF13F0CEEF13F065
:10279800000E296E282AD2EF13F09D981200E1EF5F
:1027A80013F052C0F6FF53C0F7FF0800F5CF54F0FE
:1027B800545067EC15F0524A532A52C0F6FF53C0E2
:1027C800F7FF0800F5500009D8A4EDEF13F0EFEF7C
:1027D80013F0D5EF13F01200D59CF30ED76ECB0E85
:1027E800D66ED650D7CF4DF04E6A4DC04EF04D6ADA
:1027F8004D100F6E4E50106EF294F28A320E4B6EE0
:102808002B0E4C6E6CEC15F0850ED56E12004CC07C
:102818004FF016EF14F04F50D96EDA6ADF50C0EC63
:1028280014F04F2A4D06D8A04E064D2806E14E2832
:10283800D8A421EF14F023EF14F00FEF14F01200D6
:102848002EEF14F0070E4D6E7D0EE82EFED74D2E9E
:10285800FCD700004B06D8A04C064B2806E14C28B4
:10286800D8A439EF14F03BEF14F026EF14F012005F
:1028780057C053F0C80E546E010E556EF5EC0DF0AE
:1028880022A449EF14F04BEF14F052EF14F0000EAD
:10289800226E000E216E010E53EF14F0000E12008E
:1028A8006F507010D8B45BEF14F05DEF14F06AEF5E
:1028B80014F002D86AEF14F00500FA6E6F50FD6E3E
:1028C8007050FE6EF850FF6EFA5012001200000EA3
:1028D8008D6E1E0E8C6E000E896E000E8A6E000EB6
:1028E8008B6E030E966E92689368930E946E3E0EEE
:1028F800956EF18E12002750800FD96EDA6AAECF2E
:10290800DFFF272A070E27648CEF14F08EEF14F0F0
:1029180090EF14F0000E276E252A1200536E99EFDF
:1029280014F0535067EC15F052065250D8A49FEF9C
:1029380014F0A1EF14F095EF14F01200516E5050FE
:102948003D0FD96EDA6ADF50800B526E51507F0B03
:1029580052103E6ED9EC14F0120097EC15F031ECE1
:1029680015F06BEC14F071EC15F0F0EC13F0E4ECEE
:1029780014F086EC11F012004B6E4BC0C9FF9EA6F6
:10298800C8EF14F0CAEF14F0C3EF14F09E96C950C4
:1029980012004C6E4CC04BF04B464B46C2504B1885
:1029A800C30B4B18C26EC28012003D0E4C6E000E57
:1029B8004E6E030E4D6E0BEC14F028EC15F0120061
:1029C8001B0EC16EB50EC06E000EC36E000EC46E37
:1029D800010EC26E1200C2A2F4EF14F0F7EF14F069
:1029E800010EF8EF14F0000E1200C4504E6E4D6A3E
:1029F800C3504D244B6E000E4E204C6E12004B6E91
:102A08004BC0A9FFA69CA69EA68000000000A85067
:102A18001200506E50C03FF03E8ED9EC14F01FECFF
:102A280015F01200506E50C03FF03E9ED9EC14F0E5
:102A38001FEC15F012008C9C000E4C6E030E4B6EB2
:102A4800FDEC12F08C8C12008C8E000E4C6E030E76
:102A58004B6EFDEC12F08C9E1200400EC76E210EDC
:102A6800C66E010EC86E9496C69A120064617461AF
:102A7800000000000000000000000000CB680C0E01
:102A8800BD6E94947E0ECA6EBE681200F294105009
:102A9800D76E0FC0D6FF54EC14F01200303030302F
:0B2AA8003020202020205E7F02020F63
:102AB400620E4B6E160E4C6E6CEC15F01200506EDE
:102AC40050C03DF0D9EC14F01200516E51500DEC91
:102AD40015F012004BC06FF04CC070F01200720E73
:102AE400D36E000E9B6E12004BC073F04CC074F09A
:102AF40012004BC071F04CC072F012004BC0BCF01D
:102B04004CC0BDF012004BC0BEF04CC0BFF0120070
:102B14004BC0BAF04CC0BBF01200AB98AB881200AB
:102B24007FEC14F01200C2821200D09E1200120038
:022B340012008D
:107DD000000000000000000000EC2ACA20F62A0083
:107DE000006A270C230000000080290000162800EC
:107DF000000000000000000000214001000A401FB8
:107E0000005265636569766520746573743A205421
:107E10007970652061206D65737361676520746892
:107E2000656E20707265737320656E7465722028AC
:107E30006D6178203136206368617273293A00439E
:107E4000616C6962726174696F6E2020202020006D
:107E500050726F6772616D205350203F20202020A8
:107E60000043616C6962726174696F6E3F2020200B
:107E7000200050726F6772616D206D6F6465202005
:107E800020200053656C656374206D6F64653A2D26
:107E90002020200052652050726F6772616D202093
:107EA0003F2020200052652043616C69627261743A
:107EB000653F202020004D6F746F72206F766572D1
:107EC0006C6F61642121004D6F746F722074656D59
:107ED0007020747269702100546F72712E20667563
:107EE0006C6C20636C6F73650056616C7665206600
:107EF000756C6C20636C6F73650056616C766520E1
:107F000066756C6C20206F70656E00546F727175B1
:107F1000652066756C6C206F70656E00456E7465CB
:107F20007220687973746572657369730048656C53
:107F30006C6F20576F726C64212025640A002E2E0E
:107F40002E2E2E2E2E2E2E2E2E2E2E2E2E00506F1C
:107F5000776572206F6E20746573742E2E005472D4
:107F6000616E736D697420746573740A00596F755E
:107F70002074797065643A20002059285E29204ECB
:107F80002876290050617373776F72643A004F75D9
:107F900074707574202000506F736974696F6E007F
:107FA00056616C7665506F7300536574506F696EDF
:107FB00074005B4D414E205D20005B4155544F5D88
:107FC0002000416E616C6F672000446967697461CD
:107FD0006C005370616E20005A65726F200043611F
:107FE0006C3F00646174610053503A000A6F6B008B
:107FF0002D2D003C3C003E3C003E3E002563000031
:020000040020DA
:08000000FFFFFFFFFFFFFFFF00
:020000040030CA
:0E000000FF021214FF8181FF0FC00FE00F40BE
:00000001FF
