:0400000007EF00F016
:1000080075821BED0FF0A1EF12F07DEF04F0000EEA
:10001800506E000E48EC11F0610E516E7E0E526E5D
:1000280014EC14F0000E506E010E48EC11F0060EA0
:10003800516E200EECEC14F0790E516E7F0E526E5C
:1000480014EC14F020A22BEF00F02DEF00F032EFAB
:1000580000F0000E206E000E1F6E172A20B037EF3A
:1000680000F039EF00F040EF00F020A63EEF00F07E
:1000780040EF00F0BAEF04F0000E206E000E1F6E85
:10008800000E176E010EBBEF04F0000E506E000E4E
:1000980048EC11F03F0E516E7E0E526E14EC14F0C7
:1000A800000E506E010E48EC11F0840E516E7F0E5A
:1000B800526E14EC14F0040E516E200EECEC14F099
:1000C8006FC051F0526A030E536E84EC0DF06F0E40
:1000D800506E000E516E640E526E010E536E95EC0A
:1000E8000EF020A47AEF00F07CEF00F094EF00F01F
:1000F800000E1F6E000E206E0A0E6F18D8A487EF30
:1001080000F089EF00F08EEF00F00F0E6F6E172AE7
:1001180094EF00F00F0E6F6E000E176E46EF00F0B2
:1001280020A699EF00F09BEF00F0BAEF04F0000E64
:10013800206E000E1F6E0F0E6F6E000E176E46EFCC
:1001480000F0000E506E000E48EC11F0A90E516E32
:100158007F0E526E14EC14F0010E516E200EECEC72
:1001680014F0DE0E516E7F0E526E14EC14F0030E76
:10017800516E200EECEC14F0000E506E010E48EC9F
:1001880011F0060E516E200EECEC14F0790E516E43
:100198007F0E526E14EC14F020A2D5EF00F0D7EFCA
:1001A80000F0DCEF00F0000E206E000E1F6E172A24
:1001B80020A0E1EF00F0E3EF00F0E9EF00F0000E1F
:1001C800206E000E1F6E030E172620A6EEEF00F01D
:1001D800F0EF00F0BAEF04F0000E206E000E1F6E74
:1001E8000B0E176EBAEF04F0000E506E000E48ECBE
:1001F80011F0A90E516E7F0E526E14EC14F0010E20
:10020800516E200EECEC14F02AC048F02BC049F0D7
:10021800000E4B6E0A0E4A6E87EC11F048C0BAF019
:1002280049C0BBF0BAC051F0BBC052F0030E536EC8
:1002380084EC0DF02E0EB4EC15F02AC048F02BC05B
:1002480049F0000E4B6E0A0E4A6ED4EC12F048C00C
:10025800BCF049C0BDF0BCC051F0BDC052F0010EA9
:10026800536E84EC0DF0250EB4EC15F0000E506EB4
:10027800010E48EC11F0D80E516E7F0E526E14EC40
:1002880014F037C051F0526A040E536E84EC0DF02E
:10029800070E516E200EECEC14F0370E556E000E62
:1002A800566E69EC14F00009D8B45DEF01F05FEF09
:1002B80001F060EF01F0172A20A665EF01F067EF63
:1002C80001F0BAEF04F0F0EF00F0000E506E000EEF
:1002D80048EC11F0A90E516E7F0E526E14EC14F01A
:1002E800010E516E200EECEC14F02AC048F02BC021
:1002F80049F0000E4B6E0A0E4A6E87EC11F048C0AA
:10030800BAF049C0BBF0BAC051F0BBC052F0030EFE
:10031800536E84EC0DF02E0EB4EC15F02AC048F0A4
:100328002BC049F0000E4B6E0A0E4A6ED4EC12F048
:1003380048C0BCF049C0BDF0BCC051F0BDC052F0CF
:10034800010E536E84EC0DF0250EB4EC15F0000E82
:10035800506E010E48EC11F0D20E516E7F0E526EA7
:1003680014EC14F036C051F0526A040E536E84EC4B
:100378000DF0070E516E200EECEC14F0360E556E93
:10038800000E566E69EC14F00009D8B4CEEF01F0F7
:10039800D0EF01F0D1EF01F0172A20A6D6EF01F037
:1003A800D8EF01F0BAEF04F0F0EF00F0000E506E55
:1003B800000E48EC11F0970E516E7F0E526E14EC41
:1003C80014F0010E516E200EECEC14F0DE0E516E9E
:1003D8007F0E526E14EC14F0030E516E200EECECEE
:1003E80014F0000E506E010E48EC11F0060E516E1E
:1003F800200EECEC14F0790E516E7F0E526E14EC58
:1004080014F020A20AEF02F00CEF02F011EF02F054
:10041800000E206E000E1F6E172A20A016EF02F0A5
:1004280018EF02F01EEF02F0000E206E000E1F6E95
:10043800030E172620A623EF02F025EF02F0BAEFED
:1004480004F0F0EF00F0000E506E000E48EC11F0D2
:10045800970E516E7F0E526E14EC14F0010E516E11
:10046800200EECEC14F028C048F029C049F0000E2A
:100478004B6E0A0E4A6E87EC11F048C0BAF049C0BC
:10048800BBF0BAC051F0BBC052F0030E536E84ECFF
:100498000DF02E0EB4EC15F028C048F029C049F034
:1004A800000E4B6E0A0E4A6ED4EC12F048C0BCF037
:1004B80049C0BDF0BCC051F0BDC052F0010E536E32
:1004C80084EC0DF0250EB4EC15F0000E506E010E04
:1004D80048EC11F0D80E516E7F0E526E14EC14F0E9
:1004E80035C051F0526A040E536E84EC0DF0070EBD
:1004F800516E200EECEC14F0350E556E000E566E53
:1005080069EC14F00009D8B48CEF02F08EEF02F019
:100518008FEF02F0172A20A694EF02F096EF02F070
:10052800BAEF04F0F0EF00F0000E506E000E48EC49
:1005380011F0970E516E7F0E526E14EC14F0010EEE
:10054800516E200EECEC14F028C048F029C049F098
:10055800000E4B6E0A0E4A6E87EC11F048C0BAF0D6
:1005680049C0BBF0BAC051F0BBC052F0030E536E85
:1005780084EC0DF02E0EB4EC15F028C048F029C01C
:1005880049F0000E4B6E0A0E4A6ED4EC12F048C0C9
:10059800BCF049C0BDF0BCC051F0BDC052F0010E66
:1005A800536E84EC0DF0250EB4EC15F0000E506E71
:1005B800010E48EC11F0D20E516E7F0E526E14EC03
:1005C80014F034C051F0526A040E536E84EC0DF0EE
:1005D800070E516E200EECEC14F0340E556E000E22
:1005E800566E69EC14F00009D8B4FDEF02F0FFEF85
:1005F80002F000EF03F0172A20A605EF03F007EF3B
:1006080003F0BAEF04F0F0EF00F0000E506E000EA9
:1006180048EC11F08E0E516E7F0E526E14EC14F0F1
:10062800010E516E200EECEC14F0DE0E516E7F0EB2
:10063800526E14EC14F0030E516E200EECEC14F014
:10064800000E506E010E48EC11F0060E516E200E91
:10065800ECEC14F0790E516E7F0E526E14EC14F01F
:1006680020A239EF03F03BEF03F040EF03F0000E58
:10067800206E000E1F6E172A20A045EF03F047EFEB
:1006880003F04DEF03F0000E206E000E1F6E030EF8
:10069800172620A652EF03F054EF03F0BAEF04F048
:1006A800F0EF00F0000E506E000E48EC11F08E0EC8
:1006B800516E7F0E526E14EC14F0010E516E200E26
:1006C800ECEC14F02EC048F02FC049F0000E4B6E31
:1006D8000A0E4A6E87EC11F048C0BAF049C0BBF068
:1006E800BAC051F0BBC052F0030E536E84EC0DF04B
:1006F8002E0EB4EC15F02EC048F02FC049F0000EB5
:100708004B6E0A0E4A6ED4EC12F048C0BCF049C0D9
:10071800BDF0BCC051F0BDC052F0010E536E84EC68
:100728000DF0250EB4EC15F0000E506E010E48ECDD
:1007380011F0D80E516E7F0E526E14EC14F035C0C5
:1007480051F0526A040E536E84EC0DF0070E516E90
:10075800200EECEC14F0350E556E000E566E69EC5A
:1007680014F00009D8B4BBEF03F0BDEF03F0BEEFFF
:1007780003F0172A20A6C3EF03F0C5EF03F0BAEF82
:1007880004F0F0EF00F0000E506E000E48EC11F08F
:10079800970E516E7F0E526E14EC14F0010E516ECE
:1007A800200EECEC14F02EC048F02FC049F0000EDB
:1007B8004B6E0A0E4A6E87EC11F048C0BAF049C079
:1007C800BBF0BAC051F0BBC052F0030E536E84ECBC
:1007D8000DF02E0EB4EC15F02EC048F02FC049F0E5
:1007E800000E4B6E0A0E4A6ED4EC12F048C0BCF0F4
:1007F80049C0BDF0BCC051F0BDC052F0010E536EEF
:1008080084EC0DF0250EB4EC15F0000E506E010EC0
:1008180048EC11F0D20E516E7F0E526E14EC14F0AB
:1008280034C051F0526A040E536E84EC0DF0070E7A
:10083800516E200EECEC14F0340E556E000E566E10
:1008480069EC14F00009D8B42CEF04F02EEF04F092
:100858002FEF04F0172A20A634EF04F036EF04F047
:10086800BAEF04F0F0EF00F0000E506E000E48EC06
:1008780011F0A50E516E7E0E526E14EC14F0000E9F
:10088800506E010E48EC11F0060E516E200EECEC85
:1008980014F0790E516E7F0E526E14EC14F020A2F3
:1008A80058EF04F05AEF04F060EF04F0000E206EE9
:1008B800000E1F6E020E176E20A065EF04F067EFA2
:1008C80004F0BAEF04F0000E206E000E1F6E000E4A
:1008D800176E340E4B6E000E4C6E020E4D6E060EE9
:1008E8004E6E60EC13F046EF00F0000E176EBAEF94
:1008F80004F017505F6E606A6050000AD8B487EF42
:1009080004F079EF04F05F50000AD8B40BEF00F060
:10091800010AD8B449EF00F0030AD8B4A5EF00F0F3
:10092800010AD8B4F8EF00F0070AD8B469EF01F06B
:10093800010AD8B4DAEF01F0030AD8B427EF02F0BD
:10094800010AD8B498EF02F00F0AD8B409EF03F0FF
:10095800010AD8B456EF03F0030AD8B4C7EF03F07E
:10096800010AD8B438EF04F079EF04F0000E120051
:100978006DEF06F0000E506E000E48EC11F0500EB0
:10098800516E7E0E526E14EC14F0000E506E010E75
:1009980048EC11F0060E516E200EECEC14F0790EB6
:1009A800516E7F0E526E14EC14F020A2DEEF04F0AC
:1009B800E0EF04F0E5EF04F0000E206E000E1F6E6D
:1009C800182A20B0EAEF04F0ECEF04F0F3EF04F09B
:1009D80020A6F1EF04F0F3EF04F08EEF06F0000E1E
:1009E800206E000E1F6E000E186E010E8FEF06F0BF
:1009F800000E506E000E48EC11F0720E516E7E0E15
:100A0800526E14EC14F0000E506E010E48EC11F00A
:100A1800840E516E7F0E526E14EC14F0040E516E5B
:100A2800200EECEC14F06FC051F0526A030E536EB6
:100A380084EC0DF06F0E506E000E516E640E526E07
:100A4800010E536E95EC0EF020A42DEF05F02FEF5C
:100A580005F047EF05F0000E1F6E000E206E0A0E1F
:100A68006F18D8A43AEF05F03CEF05F041EF05F018
:100A7800182A0F0E6F6E47EF05F0000E186E0F0E56
:100A88006F6EF9EF04F020A64CEF05F04EEF05F07D
:100A98008EEF06F0000E206E000E1F6E0F0E6F6EAA
:100AA800000E186EF9EF04F0000E506E000E48ECC0
:100AB80011F01C0E516E7F0E526E14EC14F0000EE5
:100AC800506E010E48EC11F00A0E516E200EECEC3F
:100AD80014F03DC048F0496A000E4B6E0A0E4A6E8B
:100AE80083EC0FF048C051F049C052F0030E536E2A
:100AF80084EC0DF02E0EB4EC15F03DC048F0496AB8
:100B0800000E4B6E0A0E4A6EA0EC10F048C051F071
:100B180049C052F0010E536E84EC0DF0250EB4EC72
:100B280015F03D0E506E000E516E640E526E010EA1
:100B3800536E95EC0EF020A4A4EF05F0A6EF05F097
:100B4800ABEF05F0000E206E000E1F6E182A20A6CF
:100B5800B0EF05F0B2EF05F08EEF06F0000E206E54
:100B6800000E1F6E040E186E8EEF06F0000E506E0B
:100B7800000E48EC11F0830E516E7E0E526E14EC8E
:100B880014F0000E506E010E48EC11F0090E516E73
:100B9800200EECEC14F03E04D8A4D5EF05F0D7EF06
:100BA80005F0DFEF05F0C20E516E7F0E526E14ECA9
:100BB80014F0E5EF05F0CA0E516E7F0E526E14EC7C
:100BC80014F020B2EAEF05F0ECEF05F0F3EF05F0D2
:100BD80020A0F1EF05F0F3EF05F005EF06F0000EA9
:100BE800206E000E1F6E3E04D8A4FDEF05F0FFEF47
:100BF80005F003EF06F0000E3E6E05EF06F0010E5D
:100C08003E6E20A40AEF06F00CEF06F011EF06F096
:100C1800000E206E000E1F6E182A20A616EF06F092
:100C280018EF06F08EEF06F0B2EF05F0000E506EEA
:100C3800000E48EC11F0940E516E7E0E526E14ECBC
:100C480014F0000E506E010E48EC11F0060E516EB5
:100C5800200EECEC14F0790E516E7F0E526E14ECEF
:100C680014F020A23AEF06F03CEF06F042EF06F04F
:100C7800000E206E000E1F6E020E186E20B047EF99
:100C880006F049EF06F057EF06F020B44EEF06F0F5
:100C980050EF06F057EF06F020A655EF06F057EF95
:100CA80006F08EEF06F0000E206E000E1F6E3D0E51
:100CB8004B6E000E4C6E000E4D6E020E4E6E60ECCA
:100CC80013F0000E186EF9EF04F0000E186E8EEF98
:100CD80006F018505F6E606A6050000AD8B477EF6B
:100CE80006F069EF06F05F50000AD8B4BEEF04F0D2
:100CF800010AD8B4FCEF04F0030AD8B458EF05F0A1
:100D0800010AD8B4BAEF05F0070AD8B41AEF06F00A
:100D180069EF06F0000E1200000E506E000E48EC4F
:100D280011F030A49AEF06F09CEF06F0A4EF06F05D
:100D3800F60E516E7F0E526E14EC14F0C8EF06F0EA
:100D480030A0A9EF06F0ABEF06F0B3EF06F0F90E0E
:100D5800516E7F0E526E14EC14F0C8EF06F030A2FC
:100D6800B8EF06F0BAEF06F0C2EF06F0F30E516ED8
:100D78007F0E526E14EC14F0C8EF06F0F00E516EB0
:100D88007F0E526E14EC14F0A00E516E7F0E526E50
:100D980014EC14F028C048F029C049F0000E4B6E3E
:100DA8000A0E4A6E87EC11F048C0BAF049C0BBF091
:100DB800BAC051F0BBC052F0030E536E84EC0DF074
:100DC8002E0EB4EC15F028C048F029C049F0000EEA
:100DD8004B6E0A0E4A6ED4EC12F048C0BCF049C003
:100DE800BDF0BCC051F0BDC052F0010E536E84EC92
:100DF8000DF0250EB4EC15F0000E506E010E48EC07
:100E080011F0F5EF07F032A00CEF07F00EEF07F046
:100E180021EF07F00B0E516E7F0E526E14EC14F09A
:100E28002150D8B41AEF07F01CEF07F01AEF08F0BA
:100E3800000E216E192A1AEF08F0192A32A227EF9C
:100E480007F029EF07F039EF07F0D80E516E7E0E44
:100E5800526E14EC14F02150D8B435EF07F037EF88
:100E680007F01AEF08F01CEF07F0192A32A43FEF39
:100E780007F041EF07F051EF07F0FA0E516E7E0EC2
:100E8800526E14EC14F02150D8B44DEF07F04FEF28
:100E980007F01AEF08F01CEF07F0192A32A657EFEF
:100EA80007F059EF07F069EF07F0E90E516E7E0E73
:100EB800526E14EC14F02150D8B465EF07F067EFC8
:100EC80007F01AEF08F01CEF07F0192A32AA6FEFA3
:100ED80007F071EF07F081EF07F0C70E516E7E0E35
:100EE800526E14EC14F02150D8B47DEF07F07FEF68
:100EF80007F01AEF08F01CEF07F0192A32AC87EF59
:100F080007F089EF07F099EF07F0B60E516E7E0EE5
:100F1800526E14EC14F02150D8B495EF07F097EF07
:100F280007F01AEF08F01CEF07F0192A32A89FEF14
:100F380007F0A1EF07F0A9EF07F0BA0E516E7F0E88
:100F4800526E14EC14F0AFEF07F0B20E516E7F0E34
:100F5800526E14EC14F0E80E516E7F0E526E14ECC3
:100F680014F02CC048F02DC049F0000E4B6E0A0E4C
:100F78004A6E87EC11F048C0BAF049C0BBF0BAC05D
:100F880051F0BBC052F0030E536E84EC0DF02E0EE0
:100F9800B4EC15F02CC048F02DC049F0000E4B6E93
:100FA8000A0E4A6ED4EC12F048C0BCF049C0BDF03D
:100FB800BCC051F0BDC052F0010E536E84EC0DF070
:100FC800250EB4EC15F02150D8B4EDEF07F0EFEF93
:100FD80007F01AEF08F0000E216E000E196E1AEFD6
:100FE80008F019505F6E606A6050000AD8B4FFEFCD
:100FF80007F09AEF07F05F50000AD8B407EF07F040
:10100800010AD8B422EF07F0030AD8B43AEF07F080
:10101800010AD8B452EF07F0070AD8B46AEF07F00C
:10102800010AD8B482EF07F09AEF07F012003CECFF
:1010380015F00009D8B423EF08F025EF08F01BEFEE
:1010480008F046EC15F048500B2649500C22010ECA
:101058006E5ED8B432EF08F034EF08F036EF08F0DF
:1010680049EF09F0020E6E6ED8900C30566E0B30B8
:101078005A6E56C05BF0000E0C6E000E0B6E34EF0D
:1010880009F037505A5C566E5B50576E000E575A2F
:10109800586A585A596A595AAA0E5624486EFF0E69
:1010A8005720496EFF0E58204A6EFF0E59204B6E8E
:1010B80036504C6E4D6A4E6A4F6A6CEC12F048C05E
:1010C8005CF049C05DF04AC05EF04BC05FF05CC0A8
:1010D80048F05DC049F05EC04AF05FC04BF0640E56
:1010E8004C6E000E4D6E000E4E6E000E4F6E0FECE5
:1010F8000EF048C05CF049C05DF04AC05EF04BC0DD
:101108005FF05FBE95EF08F05F505E105D1007E17D
:10111800020E5C5CD8B093EF08F095EF08F09BEFF7
:1011280008F0000E2B6E000E2A6EB6EF08F05FBEB8
:10113800ACEF08F05F505E1009E1E90E5C5C030E4D
:101148005D58D8B0AAEF08F0ACEF08F0B2EF08F09D
:101158005CC02AF05DC02BF0B6EF08F0030E2B6ED2
:10116800E80E2A6E1B2A1B5025EC15F049EF09F0F2
:1011780035505A5C566E5B50576E000E575A586A77
:10118800585A596A595AAA0E5624486EFF0E5720C3
:10119800496EFF0E58204A6EFF0E59204B6E345090
:1011A8004C6E4D6A4E6A4F6A6CEC12F048C05CF0A7
:1011B80049C05DF04AC05EF04BC05FF05CC048F0CB
:1011C8005DC049F05EC04AF05FC04BF0640E4C6EE3
:1011D800000E4D6E000E4E6E000E4F6E0FEC0EF0B0
:1011E80048C05CF049C05DF04AC05EF04BC05FF09B
:1011F8005FBE0CEF09F05F505E105D1007E1020E54
:101208005C5CD8B00AEF09F00CEF09F012EF09F0B6
:10121800000E296E000E286E2DEF09F05FBE23EF39
:1012280009F05F505E1009E1E90E5C5C030E5D5841
:10123800D8B021EF09F023EF09F029EF09F05CC0DD
:1012480028F05DC029F02DEF09F0030E296EE80E95
:10125800286E000E1B6E000E25EC15F049EF09F004
:101268001B50566E576A5750000AD8B43EEF09F023
:1012780049EF09F05650000AD8B445EF08F0010AC2
:10128800D8B4BCEF08F049EF09F0E2EC15F0120011
:1012980081BE51EF09F053EF09F056EF09F03180A4
:1012A80057EF09F0319081BC5CEF09F05EEF09F06F
:1012B80061EF09F0318262EF09F0319281BA67EF8C
:1012C80009F069EF09F06CEF09F031846DEF09F06E
:1012D800319431AC72EF09F074EF09F07DEF09F049
:1012E80031A479EF09F07BEF09F07DEF09F0319037
:1012F800319231A882EF09F084EF09F08CEF09F000
:1013080031A089EF09F08BEF09F08CEF09F03192E9
:1013180031AA91EF09F093EF09F09BEF09F031A2A0
:1013280098EF09F09AEF09F09BEF09F0319031A49A
:1013380002D0318C01D0319C31A002D0318801D04B
:10134800319831A202D0318A01D0319A81B2AFEFFF
:1013580009F0B1EF09F0B4EF09F03280B5EF09F008
:10136800329081B0BAEF09F0BCEF09F0BFEF09F095
:101378003282C0EF09F0329281B6C5EF09F0C7EFAB
:1013880009F0CAEF09F03284CBEF09F0329481B446
:10139800D0EF09F0D2EF09F0D5EF09F03286D6EF99
:1013A80009F0329681B8DBEF09F0DDEF09F0E0EFE4
:1013B80009F03288E1EF09F0329882B2E6EF09F0DD
:1013C800E8EF09F0EBEF09F0328AECEF09F0329A16
:1013D80082B0F1EF09F0F3EF09F0F6EF09F0328C83
:1013E800F7EF09F0329C80BAFCEF09F0FEEF09F044
:1013F80001EF0AF0338002EF0AF0339084B007EF70
:101408000AF009EF0AF00CEF0AF033820DEF0AF048
:10141800339284B212EF0AF014EF0AF017EF0AF0D1
:10142800338418EF0AF0339433AC1DEF0AF01FEF42
:101438000AF028EF0AF033A424EF0AF026EF0AF0A6
:1014480028EF0AF03390339233A82DEF0AF02FEFEC
:101458000AF037EF0AF033A034EF0AF036EF0AF05B
:1014680037EF0AF0339233AA3CEF0AF03EEF0AF066
:1014780046EF0AF033A243EF0AF045EF0AF046EFD1
:101488000AF0339033A402D0338C01D0339C33A0BC
:1014980002D0338801D0339833A202D0338A01D0E6
:1014A800339A1200000E556E000E566E32A85FEF8A
:1014B8000AF061EF0AF097EF0AF03E50D8B467EFF0
:1014C8000AF069EF0AF070EF0AF030942AC02CF0A5
:1014D8002BC02DF0B2EF0AF033A475EF0AF077EFC6
:1014E8000AF07EEF0AF0000E556E000E566E30843C
:1014F800B2EF0AF033A083EF0AF085EF0AF08AEF23
:101508000AF0010E556E3094B2EF0AF033A28FEF55
:101518000AF091EF0AF095EF0AF0010E566E87EF88
:101528000AF0B2EF0AF031A49CEF0AF09EEF0AF03D
:10153800A0EF0AF077EF0AF031A0A5EF0AF0A7EFC5
:101548000AF0A9EF0AF085EF0AF031A2AEEF0AF02F
:10155800B0EF0AF0B2EF0AF091EF0AF032B0B7EF4D
:101568000AF0B9EF0AF0DCEF0AF032B2BEEF0AF087
:10157800C0EF0AF0DCEF0AF032B4C5EF0AF0C7EFAB
:101588000AF0DCEF0AF032B6CCEF0AF0CEEF0AF040
:10159800DCEF0AF032BAD3EF0AF0D5EF0AF0DCEF4D
:1015A8000AF032ACDAEF0AF0DCEF0AF0DDEF0AF00D
:1015B800308430A4E2EF0AF0E4EF0AF0E8EF0AF032
:1015C800309030923FEF0BF03E50D8B4EEEF0AF077
:1015D800F0EF0AF025EF0BF032A8F5EF0AF0F7EF7D
:1015E8000AF025EF0BF03D502C24536E000E2D20F1
:1015F800546E2850535C29505458D8B006EF0BF05D
:1016080008EF0BF00CEF0BF0309030823FEF0BF04F
:101618003D502824536E000E2920546E2C50535CE4
:101628002D505458D8B01BEF0BF01DEF0BF021EFE5
:101638000BF0308030923FEF0BF0309230903FEF5C
:101648000BF028C02CF029C02DF05550D8B42FEF3E
:101658000BF031EF0BF035EF0BF0308030923FEFAD
:101668000BF05650D8B43BEF0BF03DEF0BF0E4EF26
:101678000AF03090308234EC12F012000F0E095C40
:101688000E0E0A58D8B04BEF0BF04DEF0BF051EFA0
:101698000BF0094A0A2A5DEF0BF0000E0A6E000EE5
:1016A800096E010E216E010E146E010E116E010EEF
:1016B8001D6E010E1E6E09C03FF00AC040F0070EF5
:1016C800426E080E416E06EC13F03F504010D8A44D
:1016D80070EF0BF072EF0BF074EF0BF0010E116E60
:1016E80009C03FF00AC040F0000E426E1E0E416E67
:1016F80006EC13F03F504010D8A485EF0BF087EFAD
:101708000BF08BEF0BF0010E216E010E146E09C069
:101718003FF00AC040F0000E426E0A0E416E06EC21
:1017280013F03F504010D8A49CEF0BF09EEF0BF045
:10173800ABEF0BF0010E126E0F50D8B4A6EF0BF002
:10174800A9EF0BF0010EAAEF0BF0000E0F6E09C007
:101758003FF00AC040F0000E426E050E416E06ECE6
:1017680013F03F504010D8A4BCEF0BF0BEEF0BF0C5
:10177800C9EF0BF01050D8B4C4EF0BF0C7EF0BF063
:10178800010EC8EF0BF0000E106E09B0CEEF0BF093
:10179800D0EF0BF0D2EF0BF0010E136E000E166EA9
:1017A80083B2D9EF0BF0DBEF0BF0DCEF0BF0168018
:1017B80083B4E1EF0BF0E3EF0BF0E4EF0BF01682EC
:1017C80083B6E9EF0BF0EBEF0BF0ECEF0BF01684C0
:1017D80083B8F1EF0BF0F3EF0BF0F4EF0BF0168694
:1017E8001550FF0A1614201216C015F01650D8B45A
:1017F80000EF0CF002EF0CF013EF0CF06D50D8A4D2
:1018080008EF0CF00AEF0CF010EF0CF0020E6D6E02
:1018180016501F1215EF0CF06D0615EF0CF0020EA6
:101828006D6E1200FCEC14F0F28EF28CA7EC15F041
:10183800000EF8EC10F0FBEC11F0000E506E000EEC
:1018480048EC11F04E0E516E7F0E526E14EC14F0EF
:10185800000E506E010E48EC11F03E0E516E7F0ED8
:10186800526E14EC14F0DDEC0CF087EC13F08FECF6
:1018780015F0000E496ECC0E486E46EC10F00400D0
:101888001E50D8B44AEF0CF04CEF0CF08EEF0CF071
:10189800000E1E6E1BEC08F04CEC09F08EEF0CF0FD
:1018A8001D50D8B45AEF0CF05CEF0CF060EF0CF060
:1018B800000E1D6EFBEC11F056EC0AF090EC06F0F1
:1018C80020A669EF0CF06BEF0CF0A8EF0CF0000EFF
:1018D800206E000E1F6E1C2AA8EF0CF056EC0AF0C2
:1018E800BCEC04F00009D8B47CEF0CF07EEF0CF0EF
:1018F800A8EF0CF06FEF0CF009EC00F00009D8B479
:1019080088EF0CF08AEF0CF0A8EF0CF0000E1C6EBC
:10191800A8EF0CF01C500001BE6FBF6BBF51000A4E
:10192800D8B499EF0CF08AEF0CF0BE51000AD8B485
:1019380054EF0CF0010AD8B472EF0CF0030AD8B4D3
:1019480080EF0CF08AEF0CF028500001BE6F295090
:10195800BF6FC06BC16B020ED890BE37BF37C037A0
:10196800C137E82EB0EF0CF0BEC048F0BFC049F058
:10197800C0C04AF0C1C04BF0050E4C6E000E4D6E53
:10198800000E4E6E000E4F6E0FEC0EF0CC0E48247B
:101998002E6E000E49202F6E2EC048F02FC049F041
:1019A80046EC10F087EC13F0040044EF0CF007EF5E
:1019B80000F03D0E496E000E4A6E000E4B6E020E90
:1019C8004C6EAEEC13F03D50D8B4EDEF0CF0EFEFE9
:1019D8000CF0F7EF0CF0640E3D64F5EF0CF0F7EF48
:1019E8000CF0F9EF0CF00A0E3D6E3E04D8B4FFEF90
:1019F8000CF001EF0DF00BEF0DF03E50D8B407EFEF
:101A08000DF009EF0DF00BEF0DF0000E3E6E340EE9
:101A1800496E000E4A6E020E4B6E060E4C6EAEEC10
:101A280013F03450D8B41BEF0DF01DEF0DF025EF77
:101A38000DF0C80E346423EF0DF025EF0DF027EFFD
:101A48000DF0640E346E3550D8B42DEF0DF02FEF35
:101A58000DF037EF0DF0C80E356435EF0DF037EFA8
:101A68000DF039EF0DF0640E356E3650D8B43FEFF7
:101A78000DF041EF0DF049EF0DF0C80E366447EF59
:101A88000DF049EF0DF04BEF0DF0640E366E375048
:101A9800D8B451EF0DF053EF0DF05BEF0DF0C80E19
:101AA800376459EF0DF05BEF0DF05DEF0DF0640E4C
:101AB800376E3650D8B463EF0DF065EF0DF06DEF6B
:101AC8000DF0C80E36646BEF0DF06DEF0DF06FEF93
:101AD8000DF0640E366E3950D8B475EF0DF077EF0F
:101AE8000DF07FEF0DF0C80E39647DEF0DF07FEF3C
:101AF8000DF081EF0DF0640E396E000E1A6E1200B3
:101B0800010E5E6E20EE66F010EE58F0040EDBCF8C
:101B1800E3FFE806FCE2050E536495EF0DF097EF3E
:101B28000DF0E3EF0DF0050E536EE3EF0DF05E5090
:101B3800535CD8B0A2EF0DF0A4EF0DF0A6EF0DF0B6
:101B4800EBEF0DF051C048F052C049F0000E4B6E5B
:101B58000A0E4A6ED4EC12F048505D6EFF0E546EB9
:101B6800FF0E556E5E50566E576A545056265550A5
:101B78005722580E5624D96E000E5720DA6E5D5043
:101B8800300FDF6E5D50515C486E5250D8A0520441
:101B9800496E000E4B6E0A0E4A6E87EC11F048C073
:101BA80051F049C052F051505210D8A4DEEF0DF058
:101BB800E0EF0DF0E2EF0DF0EBEF0DF05E2A050E11
:101BC8005E64E9EF0DF0EBEF0DF09BEF0DF053C005
:101BD8005EF05E50D8A4F3EF0DF0F5EF0DF0F7EFDF
:101BE8000DF00EEF0EF0FF0E546EFF0E556E5E50A8
:101BF800566E576A5450562655505722580E56243A
:101C0800D96E000E5720DA6EDF50B4EC15F05E0680
:101C1800EDEF0DF01200000E516E4FBE18EF0EF0F2
:101C280016EF0EF022EF0EF04F1E4E1E4D1E4C6C9E
:101C3800000E4D224E224F22010E516E4BBE29EF4F
:101C48000EF027EF0EF033EF0EF04B1E4A1E491E22
:101C5800486C000E49224A224B22010E511A000EEE
:101C6800526E000E536E000E546E000E556E4C50A0
:101C78004D104E104F10D8B444EF0EF046EF0EF052
:101C88007CEF0EF0010E506E50EF0EF0D8904C36EF
:101C98004D364E364F36502A4FAE55EF0EF057EFB1
:101CA8000EF04AEF0EF0D890523653365436553669
:101CB8004C50485C4D5049584E504A584F504B581C
:101CC800D8A069EF0EF06BEF0EF074EF0EF04C50E9
:101CD800485E4D50495A4E504A5A4F504B5A5280BE
:101CE800D8904F324E324D324C32502E57EF0EF0C4
:101CF8005150D8B482EF0EF084EF0EF08CEF0EF056
:101D0800551E541E531E526C000E53225422552247
:101D180052C048F053C049F054C04AF055C04BF087
:101D2800120050C0D9FF51C0DAFF5350DE5CD8A072
:101D3800A0EF0EF0A2EF0EF0AFEF0EF050C0D9FFFB
:101D480051C0DAFFDE50525CD8B0ADEF0EF0AFEF05
:101D58000EF0C0EF0EF052505324486E496A4936CF
:101D6800000E4B6E020E4A6E83EC0FF0485050C0C6
:101D7800D9FF51C0DAFFDF6E20B2C5EF0EF0C7EF12
:101D88000EF0CEEF0EF01FA2CCEF0EF0CEEF0EF05D
:101D9800EEEF0EF0000E206E000E1F6E50C0D9FF41
:101DA80051C0DAFF5250DE5CD8B0DDEF0EF0DFEF45
:101DB8000EF0E6EF0EF050C0D9FF51C0DAFFDF2A6F
:101DC8001AEF0FF050C0D9FF51C0DAFF52C0DFFF41
:101DD8001AEF0FF020B0F3EF0EF0F5EF0EF0FCEF76
:101DE8000EF01FA0FAEF0EF0FCEF0EF01AEF0FF056
:101DF800000E206E000E1F6E50C0D9FF51C0DAFFD2
:101E0800DE50535CD8B00BEF0FF00DEF0FF014EF6E
:101E18000FF050C0D9FF51C0DAFFDF061AEF0FF0FC
:101E280050C0D9FF51C0DAFF53C0DFFF12000600CF
:101E3800FACF44F0FBCF45F0D9CF46F0DACF47F0E0
:101E4800F2AA29EF0FF02BEF0FF036EF0FF0F2A404
:101E580030EF0FF032EF0FF036EF0FF097EC15F090
:101E680079EF0FF0F2AC3BEF0FF03DEF0FF079EFA9
:101E78000FF09DA842EF0FF044EF0FF05BEF0FF06B
:101E88009EA849EF0FF04BEF0FF05BEF0FF002D871
:101E980059EF0FF005000001FA6EB851FD6EB95107
:101EA800FE6EF850FF6EFA50120079EF0FF09DAAFF
:101EB80060EF0FF062EF0FF079EF0FF09EAA67EF77
:101EC8000FF069EF0FF079EF0FF002D877EF0FF00E
:101ED80005000001FA6EB651FD6EB751FE6EF8505E
:101EE800FF6EFA50120079EF0FF047C0DAFF46C0D4
:101EF800D9FF45C0FBFF44C0FAFF75921100000EE0
:101F08004D6E4BBE8CEF0FF08AEF0FF092EF0FF093
:101F18004A6C4B1ED8B04B2A010E4D6E49BE99EF44
:101F28000FF097EF0FF09FEF0FF0486C491ED8B0F5
:101F3800492A010E4D1A000E4F6E000E4E6E4A5081
:101F48004B10D8B4AAEF0FF0ACEF0FF0D4EF0FF0AE
:101F5800010E4C6EB4EF0FF0D8904A364B364C2A2F
:101F68004BAEB9EF0FF0BBEF0FF0B0EF0FF0D8901A
:101F78004E364F364A50485C4B504958D8A0C7EFA8
:101F88000FF0C9EF0FF0CEEF0FF04A50485E4B50FC
:101F9800495A4E80D8904B324A324C2EBBEF0FF044
:101FA8004D50D8B4DAEF0FF0DCEF0FF0E0EF0FF0A0
:101FB8004E6C4F1ED8B04F2A4EC048F04FC049F063
:101FC8001200010E2524D96EDA6A000EDA22000EFC
:101FD800DF6EABA4F2EF0FF0F4EF0FF009EF10F0A3
:101FE800010E2524D96EDA6A000EDA22DF8202D8C1
:101FF80009EF10F005000001FA6EB451FD6EB551FD
:10200800FE6EF850FF6EFA501200ABA20EEF10F001
:1020180010EF10F025EF10F0010E2524D96EDA6AC2
:10202800000EDA22DF8402D825EF10F00500000147
:10203800FA6EB251FD6EB351FE6EF850FF6EFA5053
:102048001200010E2524D96EDA6A000EDA22DF505A
:10205800D8B431EF10F033EF10F043EF10F002D89E
:1020680041EF10F005000001FA6EB051FD6EB1515C
:10207800FE6EF850FF6EFA50120045EF10F0B2EC09
:1020880014F01200040E495CD8A04DEF10F04FEF89
:1020980010F052EF10F0030E496E4868495007E1FE
:1020A800CC0E485CD8B05BEF10F05DEF10F061EF3C
:1020B80010F0000E496ECC0E486E48C04AF049C078
:1020C8004BF0D8904B324A32D8904B324A324A5071
:1020D800BE6E7FEF10F0BD8ABD889FEF10F0BD8AFD
:1020E800BD989FEF10F0BD9ABD889FEF10F0BD9A84
:1020F800BD989FEF10F0010E48144A6E000E491467
:102108004B6E4B50000AD8B48CEF10F09FEF10F0D4
:102118004A50000AD8B47BEF10F0010AD8B477EF20
:1021280010F0030AD8B473EF10F0010AD8B46FEFB7
:1021380010F09FEF10F01200000E4D6E49BEA9EF8F
:1021480010F0A7EF10F0AFEF10F0486C491ED8B0B0
:10215800492A010E4D6E4BBEB6EF10F0B4EF10F0E9
:10216800BAEF10F04A6C4B1ED8B04B2A4A504B10AD
:10217800D8B4C1EF10F0C3EF10F0E7EF10F0010E84
:102188004C6ECBEF10F0D8904A364B364C2A4BAEFB
:10219800D0EF10F0D2EF10F0C7EF10F04A50485CC3
:1021A8004B504958D8A0DBEF10F0DDEF10F0E1EF0D
:1021B80010F04A50485E4B50495AD8904B324A3238
:1021C8004C2ED2EF10F04D50D8B4EDEF10F0EFEFE9
:1021D80010F0F3EF10F0486C491ED8B0492A48C0F7
:1021E80048F049C049F01200496EC6BAFEEF10F037
:1021F80000EF11F046EF11F04950040D010EF326DF
:10220800000EF422F90EF324F66E7D0EF420F76E1C
:102218000800F5CFC7FF4950040DF90EF324F66EF8
:102228007D0EF420F76E0800F5CFC6FF000EC56ED0
:102238004950040D020EF326000EF422F90EF32481
:10224800F66E7D0EF420F76E0800F5CFC8FF4950F2
:10225800040D030EF326000EF422F90EF324F66E95
:102268007D0EF420F76E0800F5CF48F04846484642
:10227800484694504818F70B4818946EC68A010EC1
:1022880047EF11F0000E1200536E69EF11F0505035
:10229800800F63EC15F086EF11F05050C00F63EC1F
:1022A80015F086EF11F05050900F63EC15F086EFA3
:1022B80011F05050D00F63EC15F086EF11F050502C
:1022C800C00F63EC15F086EF11F05350516E526A4F
:1022D8005250000AD8B473EF11F063EF11F0515067
:1022E800000AD8B44BEF11F0010AD8B451EF11F03D
:1022F800030AD8B457EF11F0010AD8B45DEF11F012
:1023080063EF11F01200000E4E6E000E4D6E4A5033
:102318004B10D8B492EF11F094EF11F0BCEF11F01C
:10232800010E4C6E9CEF11F0D8904A364B364C2A71
:102338004BAEA1EF11F0A3EF11F098EF11F0D89088
:102348004D364E364A50485C4B504958D8A0AFEFEE
:1023580011F0B1EF11F0B6EF11F04A50485E4B5052
:10236800495A4D80D8904B324A324C2EA3EF11F087
:102378004DC048F04EC049F012009D9ACA0E486EF2
:102388001F0E496EC8EC15F09D98E80E486E270E92
:10239800496EC3EC15F0080EB86E900EAB6E240EA5
:1023A800AC6E080EAF6E020EB06ECE0E486E2B0EDF
:1023B800496ED2EC15F0B80E486E2B0E496ECDEC76
:1023C80015F0BE0E486E2B0E496ED7EC15F0000EB8
:1023D800226E000E276E000E266E080E746E000E1A
:1023E800256E000E246E000E236E9D8A12008C9AB4
:1023F800000E496E050E486E83EC14F08C8A380E78
:1024080063EC15F0000E496E050E486E83EC14F06F
:10241800380E63EC15F0000E496E050E486E83EC1D
:1024280014F0380E63EC15F00C0E63EC15F0000E8A
:10243800496E050E486E83EC14F0020E63EC15F03D
:10244800000E496E050E486E83EC14F0010E63EC25
:1024580015F0000E496E050E486E83EC14F012005C
:10246800000E526E30A03BEF12F03DEF12F03EEF3F
:1024780012F0528A30A243EF12F045EF12F046EF05
:1024880012F0528830A44BEF12F04DEF12F04EEFDD
:1024980012F0528632A453EF12F055EF12F056EFB5
:1024A80012F0528432A65BEF12F05DEF12F05EEF8D
:1024B80012F0528232A863EF12F065EF12F066EF65
:1024C80012F05280000E4F6E5250DBEC14F01200E6
:1024D800000E506E000E516E000E526E000E536EBE
:1024E80048A079EF12F07BEF12F083EF12F04C5016
:1024F80050264D5051224E5052224F505322D890C0
:102508004C364D364E364F36D8904B324A324932D9
:102518004832485049104A104B10D8A496EF12F090
:1025280098EF12F074EF12F050C048F051C049F023
:1025380052C04AF053C04BF012000E0EF66E2B0E2E
:10254800F76E000EF86E00EEA0F010EE10F0090025
:10255800F5CFEEFFE550E150FAE13E0EF66E2B0E98
:10256800F76E000EF86E00EE61F010EE0FF0090045
:10257800F5CFEEFFE550E150FAE100EE80F0200ED5
:10258800EE6AE806FDE100EE01F03E0EEE6AE806AE
:10259800FDE175907592000EF86E000116EF0CF0D3
:1025A8004A504B10D8B4DBEF12F0DDEF12F001EF18
:1025B80013F0010E4C6EE5EF12F0D8904A364B3608
:1025C8004C2A4BAEEAEF12F0ECEF12F0E1EF12F00A
:1025D8004A50485C4B504958D8A0F5EF12F0F7EF35
:1025E80012F0FBEF12F04A50485E4B50495AD8900F
:1025F8004B324A324C2EECEF12F048C048F049C03A
:1026080049F0120041504210D8B40DEF13F00FEF0B
:1026180013F033EF13F0010E436E17EF13F0D89059
:1026280041364236432A42AE1CEF13F01EEF13F038
:1026380013EF13F041503F5C42504058D8A027EFA9
:1026480013F029EF13F02DEF13F041503F5E425085
:10265800405AD89042324132432E1EEF13F03FC009
:102668003FF040C040F0120042EF13F0350EE82E64
:10267800FED700F0200E485E000E495A495007E187
:10268800200E485CD8B04BEF13F04DEF13F03AEF43
:1026980013F052EF13F000D000D000F04806D8A095
:1026A8004906482806E14928D8A45DEF13F05FEFF2
:1026B80013F04FEF13F01200000E536E000E526E1F
:1026C80074EF13F04BC0D9FF4CC0DAFFDF50486EEF
:1026D8004D50D4EC13F04B4A4C2A4D2A524A532AF7
:1026E8004E504F6E506A4F50525C5350800A516E94
:1026F8005050800A5158D8A084EF13F086EF13F099
:1027080066EF13F0120030A08CEF13F08EEF13F089
:1027180092EF13F01A801A929FEF13F030A297EFFE
:1027280013F099EF13F09DEF13F01A901A829FEFB0
:1027380013F01A901A9232A8A4EF13F0A6EF13F030
:10274800A9EF13F01A84AAEF13F01A941A50AEECFA
:1027580015F01200000E516E000E506EC1EF13F00E
:102768004B5050EC15F049C0D9FF4AC0DAFFDF6E74
:102778004B2A494A4A2A504A512A4C504D6E4E6AB1
:102788004D50505C5150800A4F6E4E50800A4F5841
:10279800D8A0D1EF13F0D3EF13F0B4EF13F0120079
:1027A800496E000EF2BE010E4A6E49C0A9FF48C02C
:1027B800A8FFA69EA69CA684F29E550EA76EAA0EFA
:1027C800A76EA682A6B2EBEF13F0EDEF13F0E6EFDB
:1027D80013F0A6944AB002D0F29E01D0F28E1200F5
:1027E800080E7460FAEF13F0FCEF13F012EF14F018
:1027F800880E2624D96EDA6A000EDA22DF50AD6E12
:10280800262A070E26640BEF14F00DEF14F00FEFD5
:1028180014F0000E266E742A13EF14F09D9812001F
:1028280022EF14F051C0F6FF52C0F7FF0800F5CFB1
:1028380053F05350B4EC15F0514A522A51C0F6FFE8
:1028480052C0F7FF0800F5500009D8A42EEF14F085
:1028580030EF14F016EF14F0120049C04DF04AC0E2
:102868004EF040EF14F04DC0D9FF4EC0DAFFDF50F4
:1028780018EC15F04D4A4E2A4B06D8A04C064B28AA
:1028880006E14C28D8A44BEF14F04DEF14F037EFC5
:1028980014F01200D59CF30ED76ECB0ED66ED65020
:1028A800D7CF4AF04B6A4AC04BF04A6A4A10706E5A
:1028B8004B50716EF294F28ACC0E486E2B0E496E14
:1028C800B9EC15F0850ED56E120055C050F056C003
:1028D80051F0C80E526E010E536E95EC0EF020A406
:1028E80078EF14F07AEF14F081EF14F0000E206EF8
:1028F800000E1F6E010E82EF14F0000E12008DEF15
:1029080014F0070E4A6E7D0EE82EFED74A2EFCD72D
:1029180000F04806D8A04906482806E14928D8A466
:1029280098EF14F09AEF14F085EF14F0120072503B
:102938007310D8B4A2EF14F0A4EF14F0B1EF14F0B0
:1029480002D8B1EF14F00500FA6E7250FD6E7350A4
:10295800FE6EF850FF6EFA5012001200800E252409
:10296800D96EDA6A000EDA22AECFDFFF252A070E0B
:102978002564C1EF14F0C3EF14F0C5EF14F0000E96
:10298800256E232A1200000E8D6E1E0E8C6E000E10
:10299800896E000E8A6E000E8B6E030E966E92681C
:1029A8009368930E946E3E0E956EF18E1200506EE3
:1029B8003A0E4F24D96EDA6A000EDA22DF50800B05
:1029C800516E50507F0B51103B6E0BEC15F01200FE
:1029D800526EF3EF14F05250B4EC15F0510651500A
:1029E800D8A4F9EF14F0FBEF14F0EFEF14F0120095
:1029F800E4EC15F07EEC15F0C7EC14F0BEEC15F025
:102A08004EEC14F031EC15F0C1EC11F012003A0E56
:102A1800496E000E4A6E000E4C6E030E4B6E31EC82
:102A280014F075EC15F01200486E48C0C9FF9EA658
:102A380020EF15F022EF15F01BEF15F09E96C95008
:102A48001200496E49C048F048464846C2504818E6
:102A5800C30B4818C26EC28012001B0EC16EB50EA1
:102A6800C06E000EC36E000EC46E010EC26E120060
:102A7800C2A241EF15F044EF15F0010E45EF15F035
:102A8800000E1200C4504B6E4A6AC3504A24486E66
:102A9800000E4B20496E1200486E48C0A9FFA69C44
:102AA800A69EA68000F000F0A85012004F6E4FC0FE
:102AB8003CF03B8E0BEC15F06CEC15F012004F6EF1
:102AC8004FC03CF03B9E0BEC15F06CEC15F012007F
:102AD8008C9C000E496E030E486E38EC13F08C8CFB
:102AE80012008C8E000E496E030E486E38EC13F0FF
:102AF8008C9E1200400EC76E210EC66E010EC86E67
:102B08009496C69A12006461746100000000000087
:102B1800000000000000CB680C0EBD6E94947E0E81
:102B2800CA6EBE681200F2947150D76E70C0D6FF9C
:102B38009BEC14F012003030303030202020202060
:052B48005E7F02020F98
:102B4E00840E486E160E496EB9EC15F012004F6EDB
:102B5E004FC03AF00BEC15F01200506E50505AEC7C
:102B6E0015F0120048C072F049C073F01200720ED8
:102B7E00D36E000E9B6E120048C0B8F049C0B9F07B
:102B8E00120048C0B6F049C0B7F0120048C0B2F00B
:102B9E0049C0B3F0120048C0B4F049C0B5F01200FD
:102BAE0048C0B0F049C0B1F01200AB98AB8812002B
:102BBE00B2EC14F01200C2821200D09E120012006B
:022BCE001200F3
:107DD000000000000000000000862BCA1F902B004E
:107DE00000E827822300000000302A0000622800FB
:107DF000000000000000000000214001000A401FB8
:107E0000005265636569766520746573743A205421
:107E10007970652061206D65737361676520746892
:107E2000656E20707265737320656E7465722028AC
:107E30006D6178203136206368617273293A00439E
:107E4000616C6962726174696F6E2020202020006D
:107E500050726F6772616D205350203F20202020A8
:107E60000043616C6962726174696F6E3F2020200B
:107E7000200050726F6772616D206D6F6465202005
:107E800020200053656C656374206D6F64653A2D26
:107E90002020200052652050726F6772616D202093
:107EA0003F2020200052652043616C69627261743A
:107EB000653F202020004D6F746F72206F766572D1
:107EC0006C6F61642121004D6F746F722074656D59
:107ED0007020747269702100546F72712E20667563
:107EE0006C6C20636C6F73650056616C7665206600
:107EF000756C6C20636C6F73650056616C766520E1
:107F000066756C6C20206F70656E00546F727175B1
:107F1000652066756C6C206F70656E00456E7465CB
:107F20007220687973746572657369730048656C53
:107F30006C6F20576F726C64212025640A002E2E0E
:107F40002E2E2E2E2E2E2E2E2E2E2E2E2E00506F1C
:107F5000776572206F6E20746573742E2E005472D4
:107F6000616E736D697420746573740A00596F755E
:107F70002074797065643A20002059285E29204ECB
:107F80002876290050617373776F72643A004F75D9
:107F900074707574202000506F736974696F6E007F
:107FA00056616C7665506F7300536574506F696EDF
:107FB00074005B4D414E205D20005B4155544F5D88
:107FC0002000416E616C6F672000446967697461CD
:107FD0006C005370616E20005A65726F200043611F
:107FE0006C3F00646174610053503A000A6F6B008B
:107FF0002D2D003C3C003E3C003E3E002563000031
:020000040020DA
:08000000FFFFFFFFFFFFFFFF00
:020000040030CA
:0E000000FF021214FF8181FF0FC00FE00F40BE
:00000001FF
