:0400000007EF00F016
:1000080075829FED0EF025EF12F07DEF04F0000EE3
:10001800506E000ECCEC10F0610E516E7E0E526EDA
:1000280098EC13F0000E506E010ECCEC10F0060E9A
:10003800516E200E70EC14F0790E516E7F0E526ED8
:1000480098EC13F020A22BEF00F02DEF00F032EF28
:1000580000F0000E206E000E1F6E172A20B037EF3A
:1000680000F039EF00F040EF00F020A63EEF00F07E
:1000780040EF00F0BAEF04F0000E206E000E1F6E85
:10008800000E176E010EBBEF04F0000E506E000E4E
:10009800CCEC10F03F0E516E7E0E526E98EC13F0C1
:1000A800000E506E010ECCEC10F0840E516E7F0ED7
:1000B800526E98EC13F0040E516E200E70EC14F092
:1000C8006FC051F0526A030E536E08EC0DF06F0EBC
:1000D800506E000E516E640E526E010E536E19EC86
:1000E8000EF020A47AEF00F07CEF00F094EF00F01F
:1000F800000E1F6E000E206E0A0E6F18D8A487EF30
:1001080000F089EF00F08EEF00F00F0E6F6E172AE7
:1001180094EF00F00F0E6F6E000E176E46EF00F0B2
:1001280020A699EF00F09BEF00F0BAEF04F0000E64
:10013800206E000E1F6E0F0E6F6E000E176E46EFCC
:1001480000F0000E506E000ECCEC10F0A90E516EAF
:100158007F0E526E98EC13F0010E516E200E70EC6B
:1001680014F0DE0E516E7F0E526E98EC13F0030EF3
:10017800516E200E70EC14F0000E506E010ECCEC97
:1001880010F0060E516E200E70EC14F0790E516EC0
:100198007F0E526E98EC13F020A2D5EF00F0D7EF47
:1001A80000F0DCEF00F0000E206E000E1F6E172A24
:1001B80020A0E1EF00F0E3EF00F0E9EF00F0000E1F
:1001C800206E000E1F6E030E172620A6EEEF00F01D
:1001D800F0EF00F0BAEF04F0000E206E000E1F6E74
:1001E8000B0E176EBAEF04F0000E506E000ECCEC3A
:1001F80010F0A90E516E7F0E526E98EC13F0010E9E
:10020800516E200E70EC14F02AC048F02BC049F053
:10021800000E4B6E0A0E4A6E0BEC11F048C0BAF095
:1002280049C0BBF0BAC051F0BBC052F0030E536EC8
:1002380008EC0DF02E0E38EC15F02AC048F02BC053
:1002480049F0000E4B6E0A0E4A6E58EC12F048C088
:10025800BCF049C0BDF0BCC051F0BDC052F0010EA9
:10026800536E08EC0DF0250E38EC15F0000E506EAC
:10027800010ECCEC10F0D80E516E7F0E526E98EC39
:1002880013F037C051F0526A040E536E08EC0DF0AB
:10029800070E516E200E70EC14F0370E556E000EDE
:1002A800566EEDEC13F00009D8B45DEF01F05FEF86
:1002B80001F060EF01F0172A20A665EF01F067EF63
:1002C80001F0BAEF04F0F0EF00F0000E506E000EEF
:1002D800CCEC10F0A90E516E7F0E526E98EC13F014
:1002E800010E516E200E70EC14F02AC048F02BC09D
:1002F80049F0000E4B6E0A0E4A6E0BEC11F048C026
:10030800BAF049C0BBF0BAC051F0BBC052F0030EFE
:10031800536E08EC0DF02E0E38EC15F02AC048F09C
:100328002BC049F0000E4B6E0A0E4A6E58EC12F0C4
:1003380048C0BCF049C0BDF0BCC051F0BDC052F0CF
:10034800010E536E08EC0DF0250E38EC15F0000E7A
:10035800506E010ECCEC10F0D20E516E7F0E526E24
:1003680098EC13F036C051F0526A040E536E08EC44
:100378000DF0070E516E200E70EC14F0360E556E0F
:10038800000E566EEDEC13F00009D8B4CEEF01F074
:10039800D0EF01F0D1EF01F0172A20A6D6EF01F037
:1003A800D8EF01F0BAEF04F0F0EF00F0000E506E55
:1003B800000ECCEC10F0970E516E7F0E526E98EC3A
:1003C80013F0010E516E200E70EC14F0DE0E516E1B
:1003D8007F0E526E98EC13F0030E516E200E70ECE7
:1003E80014F0000E506E010ECCEC10F0060E516E9B
:1003F800200E70EC14F0790E516E7F0E526E98EC50
:1004080013F020A20AEF02F00CEF02F011EF02F055
:10041800000E206E000E1F6E172A20A016EF02F0A5
:1004280018EF02F01EEF02F0000E206E000E1F6E95
:10043800030E172620A623EF02F025EF02F0BAEFED
:1004480004F0F0EF00F0000E506E000ECCEC10F04F
:10045800970E516E7F0E526E98EC13F0010E516E8E
:10046800200E70EC14F028C048F029C049F0000EA6
:100478004B6E0A0E4A6E0BEC11F048C0BAF049C038
:10048800BBF0BAC051F0BBC052F0030E536E08EC7B
:100498000DF02E0E38EC15F028C048F029C049F0B0
:1004A800000E4B6E0A0E4A6E58EC12F048C0BCF0B3
:1004B80049C0BDF0BCC051F0BDC052F0010E536E32
:1004C80008EC0DF0250E38EC15F0000E506E010EFC
:1004D800CCEC10F0D80E516E7F0E526E98EC13F0E3
:1004E80035C051F0526A040E536E08EC0DF0070E39
:1004F800516E200E70EC14F0350E556E000E566ECF
:10050800EDEC13F00009D8B48CEF02F08EEF02F096
:100518008FEF02F0172A20A694EF02F096EF02F070
:10052800BAEF04F0F0EF00F0000E506E000ECCECC5
:1005380010F0970E516E7F0E526E98EC13F0010E6C
:10054800516E200E70EC14F028C048F029C049F014
:10055800000E4B6E0A0E4A6E0BEC11F048C0BAF052
:1005680049C0BBF0BAC051F0BBC052F0030E536E85
:1005780008EC0DF02E0E38EC15F028C048F029C014
:1005880049F0000E4B6E0A0E4A6E58EC12F048C045
:10059800BCF049C0BDF0BCC051F0BDC052F0010E66
:1005A800536E08EC0DF0250E38EC15F0000E506E69
:1005B800010ECCEC10F0D20E516E7F0E526E98ECFC
:1005C80013F034C051F0526A040E536E08EC0DF06B
:1005D800070E516E200E70EC14F0340E556E000E9E
:1005E800566EEDEC13F00009D8B4FDEF02F0FFEF02
:1005F80002F000EF03F0172A20A605EF03F007EF3B
:1006080003F0BAEF04F0F0EF00F0000E506E000EA9
:10061800CCEC10F08E0E516E7F0E526E98EC13F0EB
:10062800010E516E200E70EC14F0DE0E516E7F0E2E
:10063800526E98EC13F0030E516E200E70EC14F00D
:10064800000E506E010ECCEC10F0060E516E200E0E
:1006580070EC14F0790E516E7F0E526E98EC13F018
:1006680020A239EF03F03BEF03F040EF03F0000E58
:10067800206E000E1F6E172A20A045EF03F047EFEB
:1006880003F04DEF03F0000E206E000E1F6E030EF8
:10069800172620A652EF03F054EF03F0BAEF04F048
:1006A800F0EF00F0000E506E000ECCEC10F08E0E45
:1006B800516E7F0E526E98EC13F0010E516E200EA3
:1006C80070EC14F02EC048F02FC049F0000E4B6EAD
:1006D8000A0E4A6E0BEC11F048C0BAF049C0BBF0E4
:1006E800BAC051F0BBC052F0030E536E08EC0DF0C7
:1006F8002E0E38EC15F02EC048F02FC049F0000E31
:100708004B6E0A0E4A6E58EC12F048C0BCF049C055
:10071800BDF0BCC051F0BDC052F0010E536E08ECE4
:100728000DF0250E38EC15F0000E506E010ECCECD5
:1007380010F0D80E516E7F0E526E98EC13F035C043
:1007480051F0526A040E536E08EC0DF0070E516E0C
:10075800200E70EC14F0350E556E000E566EEDEC52
:1007680013F00009D8B4BBEF03F0BDEF03F0BEEF00
:1007780003F0172A20A6C3EF03F0C5EF03F0BAEF82
:1007880004F0F0EF00F0000E506E000ECCEC10F00C
:10079800970E516E7F0E526E98EC13F0010E516E4B
:1007A800200E70EC14F02EC048F02FC049F0000E57
:1007B8004B6E0A0E4A6E0BEC11F048C0BAF049C0F5
:1007C800BBF0BAC051F0BBC052F0030E536E08EC38
:1007D8000DF02E0E38EC15F02EC048F02FC049F061
:1007E800000E4B6E0A0E4A6E58EC12F048C0BCF070
:1007F80049C0BDF0BCC051F0BDC052F0010E536EEF
:1008080008EC0DF0250E38EC15F0000E506E010EB8
:10081800CCEC10F0D20E516E7F0E526E98EC13F0A5
:1008280034C051F0526A040E536E08EC0DF0070EF6
:10083800516E200E70EC14F0340E556E000E566E8C
:10084800EDEC13F00009D8B42CEF04F02EEF04F00F
:100858002FEF04F0172A20A634EF04F036EF04F047
:10086800BAEF04F0F0EF00F0000E506E000ECCEC82
:1008780010F0A50E516E7E0E526E98EC13F0000E1D
:10088800506E010ECCEC10F0060E516E200E70EC7E
:1008980014F0790E516E7F0E526E98EC13F020A270
:1008A80058EF04F05AEF04F060EF04F0000E206EE9
:1008B800000E1F6E020E176E20A065EF04F067EFA2
:1008C80004F0BAEF04F0000E206E000E1F6E000E4A
:1008D800176E340E4B6E000E4C6E020E4D6E060EE9
:1008E8004E6EE4EC12F046EF00F0000E176EBAEF11
:1008F80004F017505F6E606A6050000AD8B487EF42
:1009080004F079EF04F05F50000AD8B40BEF00F060
:10091800010AD8B449EF00F0030AD8B4A5EF00F0F3
:10092800010AD8B4F8EF00F0070AD8B469EF01F06B
:10093800010AD8B4DAEF01F0030AD8B427EF02F0BD
:10094800010AD8B498EF02F00F0AD8B409EF03F0FF
:10095800010AD8B456EF03F0030AD8B4C7EF03F07E
:10096800010AD8B438EF04F079EF04F0000E120051
:100978006DEF06F0000E506E000ECCEC10F0500E2D
:10098800516E7E0E526E98EC13F0000E506E010EF2
:10099800CCEC10F0060E516E200E70EC14F0790EAF
:1009A800516E7F0E526E98EC13F020A2DEEF04F029
:1009B800E0EF04F0E5EF04F0000E206E000E1F6E6D
:1009C800182A20B0EAEF04F0ECEF04F0F3EF04F09B
:1009D80020A6F1EF04F0F3EF04F08EEF06F0000E1E
:1009E800206E000E1F6E000E186E010E8FEF06F0BF
:1009F800000E506E000ECCEC10F0720E516E7E0E92
:100A0800526E98EC13F0000E506E010ECCEC10F004
:100A1800840E516E7F0E526E98EC13F0040E516ED8
:100A2800200E70EC14F06FC051F0526A030E536E32
:100A380008EC0DF06F0E506E000E516E640E526E83
:100A4800010E536E19EC0EF020A42DEF05F02FEFD8
:100A580005F047EF05F0000E1F6E000E206E0A0E1F
:100A68006F18D8A43AEF05F03CEF05F041EF05F018
:100A7800182A0F0E6F6E47EF05F0000E186E0F0E56
:100A88006F6EF9EF04F020A64CEF05F04EEF05F07D
:100A98008EEF06F0000E206E000E1F6E0F0E6F6EAA
:100AA800000E186EF9EF04F0000E506E000ECCEC3C
:100AB80010F01C0E516E7F0E526E98EC13F0000E63
:100AC800506E010ECCEC10F00A0E516E200E70EC38
:100AD80014F03DC048F0496A000E4B6E0A0E4A6E8B
:100AE80007EC0FF048C051F049C052F0030E536EA6
:100AF80008EC0DF02E0E38EC15F03DC048F0496AB0
:100B0800000E4B6E0A0E4A6E24EC10F048C051F0ED
:100B180049C052F0010E536E08EC0DF0250E38EC6A
:100B280015F03D0E506E000E516E640E526E010EA1
:100B3800536E19EC0EF020A4A4EF05F0A6EF05F013
:100B4800ABEF05F0000E206E000E1F6E182A20A6CF
:100B5800B0EF05F0B2EF05F08EEF06F0000E206E54
:100B6800000E1F6E040E186E8EEF06F0000E506E0B
:100B7800000ECCEC10F0830E516E7E0E526E98EC87
:100B880013F0000E506E010ECCEC10F0090E516EF1
:100B9800200E70EC14F03E04D8A4D5EF05F0D7EF82
:100BA80005F0DFEF05F0C20E516E7F0E526E98EC25
:100BB80013F0E5EF05F0CA0E516E7F0E526E98ECF9
:100BC80013F020B2EAEF05F0ECEF05F0F3EF05F0D3
:100BD80020A0F1EF05F0F3EF05F005EF06F0000EA9
:100BE800206E000E1F6E3E04D8A4FDEF05F0FFEF47
:100BF80005F003EF06F0000E3E6E05EF06F0010E5D
:100C08003E6E20A40AEF06F00CEF06F011EF06F096
:100C1800000E206E000E1F6E182A20A616EF06F092
:100C280018EF06F08EEF06F0B2EF05F0000E506EEA
:100C3800000ECCEC10F0940E516E7E0E526E98ECB5
:100C480013F0000E506E010ECCEC10F0060E516E33
:100C5800200E70EC14F0790E516E7F0E526E98ECE7
:100C680013F020A23AEF06F03CEF06F042EF06F050
:100C7800000E206E000E1F6E020E186E20B047EF99
:100C880006F049EF06F057EF06F020B44EEF06F0F5
:100C980050EF06F057EF06F020A655EF06F057EF95
:100CA80006F08EEF06F0000E206E000E1F6E3D0E51
:100CB8004B6E000E4C6E000E4D6E020E4E6EE4EC46
:100CC80012F0000E186EF9EF04F0000E186E8EEF99
:100CD80006F018505F6E606A6050000AD8B477EF6B
:100CE80006F069EF06F05F50000AD8B4BEEF04F0D2
:100CF800010AD8B4FCEF04F0030AD8B458EF05F0A1
:100D0800010AD8B4BAEF05F0070AD8B41AEF06F00A
:100D180069EF06F0000E1200000E506E000ECCECCB
:100D280010F030A49AEF06F09CEF06F0A4EF06F05E
:100D3800F60E516E7F0E526E98EC13F0C8EF06F067
:100D480030A0A9EF06F0ABEF06F0B3EF06F0F90E0E
:100D5800516E7F0E526E98EC13F0C8EF06F030A279
:100D6800B8EF06F0BAEF06F0C2EF06F0F30E516ED8
:100D78007F0E526E98EC13F0C8EF06F0F00E516E2D
:100D88007F0E526E98EC13F0A00E516E7F0E526ECD
:100D980098EC13F028C048F029C049F0000E4B6EBB
:100DA8000A0E4A6E0BEC11F048C0BAF049C0BBF00D
:100DB800BAC051F0BBC052F0030E536E08EC0DF0F0
:100DC8002E0E38EC15F028C048F029C049F0000E66
:100DD8004B6E0A0E4A6E58EC12F048C0BCF049C07F
:100DE800BDF0BCC051F0BDC052F0010E536E08EC0E
:100DF8000DF0250E38EC15F0000E506E010ECCECFF
:100E080010F0F5EF07F032A00CEF07F00EEF07F047
:100E180021EF07F00B0E516E7F0E526E98EC13F017
:100E28002150D8B41AEF07F01CEF07F01AEF08F0BA
:100E3800000E216E192A1AEF08F0192A32A227EF9C
:100E480007F029EF07F039EF07F0D80E516E7E0E44
:100E5800526E98EC13F02150D8B435EF07F037EF05
:100E680007F01AEF08F01CEF07F0192A32A43FEF39
:100E780007F041EF07F051EF07F0FA0E516E7E0EC2
:100E8800526E98EC13F02150D8B44DEF07F04FEFA5
:100E980007F01AEF08F01CEF07F0192A32A657EFEF
:100EA80007F059EF07F069EF07F0E90E516E7E0E73
:100EB800526E98EC13F02150D8B465EF07F067EF45
:100EC80007F01AEF08F01CEF07F0192A32AA6FEFA3
:100ED80007F071EF07F081EF07F0C70E516E7E0E35
:100EE800526E98EC13F02150D8B47DEF07F07FEFE5
:100EF80007F01AEF08F01CEF07F0192A32AC87EF59
:100F080007F089EF07F099EF07F0B60E516E7E0EE5
:100F1800526E98EC13F02150D8B495EF07F097EF84
:100F280007F01AEF08F01CEF07F0192A32A89FEF14
:100F380007F0A1EF07F0A9EF07F0BA0E516E7F0E88
:100F4800526E98EC13F0AFEF07F0B20E516E7F0EB1
:100F5800526E98EC13F0E80E516E7F0E526E98ECBC
:100F680013F02CC048F02DC049F0000E4B6E0A0E4D
:100F78004A6E0BEC11F048C0BAF049C0BBF0BAC0D9
:100F880051F0BBC052F0030E536E08EC0DF02E0E5C
:100F980038EC15F02CC048F02DC049F0000E4B6E0F
:100FA8000A0E4A6E58EC12F048C0BCF049C0BDF0B9
:100FB800BCC051F0BDC052F0010E536E08EC0DF0EC
:100FC800250E38EC15F02150D8B4EDEF07F0EFEF0F
:100FD80007F01AEF08F0000E216E000E196E1AEFD6
:100FE80008F019505F6E606A6050000AD8B4FFEFCD
:100FF80007F09AEF07F05F50000AD8B407EF07F040
:10100800010AD8B422EF07F0030AD8B43AEF07F080
:10101800010AD8B452EF07F0070AD8B46AEF07F00C
:10102800010AD8B482EF07F09AEF07F01200C0EC7B
:1010380014F00009D8B423EF08F025EF08F01BEFEF
:1010480008F0CAEC14F048500B2649500C22010E47
:101058006E5ED8B432EF08F034EF08F036EF08F0DF
:1010680049EF09F0020E6E6ED8900C30566E0B30B8
:101078005A6E56C05BF0000E0C6E000E0B6E34EF0D
:1010880009F037505A5C566E5B50576E000E575A2F
:10109800586A585A596A595AAA0E5624486EFF0E69
:1010A8005720496EFF0E58204A6EFF0E59204B6E8E
:1010B80036504C6E4D6A4E6A4F6AF0EC11F048C0DB
:1010C8005CF049C05DF04AC05EF04BC05FF05CC0A8
:1010D80048F05DC049F05EC04AF05FC04BF0640E56
:1010E8004C6E000E4D6E000E4E6E000E4F6E93EC61
:1010F8000DF048C05CF049C05DF04AC05EF04BC0DE
:101108005FF05FBE95EF08F05F505E105D1007E17D
:10111800020E5C5CD8B093EF08F095EF08F09BEFF7
:1011280008F0000E2B6E000E2A6EB6EF08F05FBEB8
:10113800ACEF08F05F505E1009E1E90E5C5C030E4D
:101148005D58D8B0AAEF08F0ACEF08F0B2EF08F09D
:101158005CC02AF05DC02BF0B6EF08F0030E2B6ED2
:10116800E80E2A6E1B2A1B50A9EC14F049EF09F06F
:1011780035505A5C566E5B50576E000E575A586A77
:10118800585A596A595AAA0E5624486EFF0E5720C3
:10119800496EFF0E58204A6EFF0E59204B6E345090
:1011A8004C6E4D6A4E6A4F6AF0EC11F048C05CF024
:1011B80049C05DF04AC05EF04BC05FF05CC048F0CB
:1011C8005DC049F05EC04AF05FC04BF0640E4C6EE3
:1011D800000E4D6E000E4E6E000E4F6E93EC0DF02D
:1011E80048C05CF049C05DF04AC05EF04BC05FF09B
:1011F8005FBE0CEF09F05F505E105D1007E1020E54
:101208005C5CD8B00AEF09F00CEF09F012EF09F0B6
:10121800000E296E000E286E2DEF09F05FBE23EF39
:1012280009F05F505E1009E1E90E5C5C030E5D5841
:10123800D8B021EF09F023EF09F029EF09F05CC0DD
:1012480028F05DC029F02DEF09F0030E296EE80E95
:10125800286E000E1B6E000EA9EC14F049EF09F081
:101268001B50566E576A5750000AD8B43EEF09F023
:1012780049EF09F05650000AD8B445EF08F0010AC2
:10128800D8B4BCEF08F049EF09F066EC15F012008D
:10129800000E556E000E566E32A855EF09F057EF46
:1012A80009F08DEF09F03E50D8B45DEF09F05FEF1B
:1012B80009F066EF09F030942AC02CF02BC02DF00D
:1012C800A8EF09F033A46BEF09F06DEF09F074EFA4
:1012D80009F0000E556E000E566E3084A8EF09F026
:1012E80033A079EF09F07BEF09F080EF09F0010EE8
:1012F800556E3094A8EF09F033A285EF09F087EF17
:1013080009F08BEF09F0010E566E7DEF09F0A8EF9A
:1013180009F031A492EF09F094EF09F096EF09F083
:101328006DEF09F031A09BEF09F09DEF09F09FEFF9
:1013380009F07BEF09F031A2A4EF09F0A6EF09F05C
:10134800A8EF09F087EF09F032B0ADEF09F0AFEF81
:1013580009F0D2EF09F032B2B4EF09F0B6EF09F0B4
:10136800D2EF09F032B4BBEF09F0BDEF09F0D2EFCC
:1013780009F032B6C2EF09F0C4EF09F0D2EF09F074
:1013880032BAC9EF09F0CBEF09F0D2EF09F032AC6D
:10139800D0EF09F0D2EF09F0D3EF09F0308430A490
:1013A800D8EF09F0DAEF09F0DEEF09F0309030926B
:1013B80033EF0AF03E50D8B4E4EF09F0E6EF09F055
:1013C8001BEF0AF032A8EBEF09F0EDEF09F01BEF85
:1013D8000AF03D502C24536E000E2D20546E2850D8
:1013E800535C29505458D8B0FCEF09F0FEEF09F0CF
:1013F80002EF0AF0309030821FEF0AF03D502824A7
:10140800536E000E2920546E2C50535C2D505458A6
:10141800D8B011EF0AF013EF0AF017EF0AF0308096
:1014280030921FEF0AF0309230901FEF0AF028C078
:101438002CF029C02DF05550D8B425EF0AF027EF2D
:101448000AF029EF0AF0308030925650D8B42FEFC6
:101458000AF031EF0AF033EF0AF030903082B8EC3E
:1014680011F012000F0E095C0E0E0A58D8B03FEFAB
:101478000AF041EF0AF045EF0AF0094A0A2A51EF4B
:101488000AF0000E0A6E000E096E010E216E010EA2
:10149800146E010E116E010E1D6E010E1E6E09C036
:1014A8003FF00AC040F0070E426E080E416E8AEC0B
:1014B80012F03F504010D8A464EF0AF066EF0AF02B
:1014C80068EF0AF0010E116E09C03FF00AC040F043
:1014D800000E426E1E0E416E8AEC12F03F50401014
:1014E800D8A479EF0AF07BEF0AF07FEF0AF0010E3B
:1014F800216E010E146E09C03FF00AC040F0000EC4
:10150800426E0A0E416E8AEC12F03F504010D8A489
:1015180090EF0AF092EF0AF09FEF0AF0010E126EB8
:101528000F50D8B49AEF0AF09DEF0AF0010E9EEF23
:101538000AF0000E0F6E09C03FF00AC040F0000E1E
:10154800426E050E416E8AEC12F03F504010D8A44E
:10155800B0EF0AF0B2EF0AF0BDEF0AF01050D8B4BD
:10156800B8EF0AF0BBEF0AF0010EBCEF0AF0000E6C
:10157800106E09B0C2EF0AF0C4EF0AF0C6EF0AF025
:10158800010E136E000E166E83B2CDEF0AF0CFEF88
:101598000AF0D0EF0AF0168083B4D5EF0AF0D7EF3F
:1015A8000AF0D8EF0AF0168283B6DDEF0AF0DFEF13
:1015B8000AF0E0EF0AF0168483B8E5EF0AF0E7EFE7
:1015C8000AF0E8EF0AF016861550FF0A16142012E2
:1015D80016C015F01650D8B4F4EF0AF0F6EF0AF07A
:1015E80007EF0BF06D50D8A4FCEF0AF0FEEF0AF0FD
:1015F80004EF0BF0020E6D6E16501F1209EF0BF080
:101608006D0609EF0BF0020E6D6E120080EC14F0FF
:10161800F28EF28C2BEC15F0000E7CEC10F07FECC7
:1016280011F0000E506E000ECCEC10F04E0E516E04
:101638007F0E526E98EC13F0000E506E010ECCEC3B
:1016480010F03E0E516E7F0E526E98EC13F0D1ECF6
:101658000BF00BEC13F013EC15F0000E496ECC0EEA
:10166800486ECAEC0FF004001E50D8B43EEF0BF0E1
:1016780040EF0BF082EF0BF0000E1E6E1BEC08F033
:1016880078EC0CF082EF0BF01D50D8B44EEF0BF055
:1016980050EF0BF054EF0BF0000E1D6E7FEC11F0C5
:1016A8004CEC09F090EC06F020A65DEF0BF05FEF34
:1016B8000BF09CEF0BF0000E206E000E1F6E1C2A24
:1016C8009CEF0BF04CEC09F0BCEC04F00009D8B42A
:1016D80070EF0BF072EF0BF09CEF0BF063EF0BF079
:1016E80009EC00F00009D8B47CEF0BF07EEF0BF0AA
:1016F8009CEF0BF0000E1C6E9CEF0BF01C500001D1
:10170800BE6FBF6BBF51000AD8B48DEF0BF07EEFF0
:101718000BF0BE51000AD8B448EF0BF0010AD8B458
:1017280066EF0BF0030AD8B474EF0BF07EEF0BF002
:1017380028500001BE6F2950BF6FC06BC16B020EED
:10174800D890BE37BF37C037C137E82EA4EF0BF0AB
:10175800BEC048F0BFC049F0C0C04AF0C1C04BF09D
:10176800050E4C6E000E4D6E000E4E6E000E4F6E46
:1017780093EC0DF0CC0E48242E6E000E49202F6EEF
:101788002EC048F02FC049F0CAEC0FF00BEC13F054
:10179800040038EF0BF007EF00F03D0E496E000E25
:1017A8004A6E000E4B6E020E4C6E32EC13F03D503A
:1017B800D8B4E1EF0BF0E3EF0BF0EBEF0BF0640EB6
:1017C8003D64E9EF0BF0EBEF0BF0EDEF0BF00A0ED9
:1017D8003D6E3E04D8B4F3EF0BF0F5EF0BF0FFEFDE
:1017E8000BF03E50D8B4FBEF0BF0FDEF0BF0FFEF22
:1017F8000BF0000E3E6E340E496E000E4A6E020E5D
:101808004B6E060E4C6E32EC13F03450D8B40FEF1A
:101818000CF011EF0CF019EF0CF0C80E346417EF50
:101828000CF019EF0CF01BEF0CF0640E346E355011
:10183800D8B421EF0CF023EF0CF02BEF0CF0C80E0E
:10184800356429EF0CF02BEF0CF02DEF0CF0640E43
:10185800356E3650D8B433EF0CF035EF0CF03DEF61
:101868000CF0C80E36643BEF0CF03DEF0CF03FEF88
:101878000CF0640E366E3750D8B445EF0CF047EFD5
:101888000CF04FEF0CF0C80E37644DEF0CF04FEF33
:101898000CF051EF0CF0640E376E3650D8B457EF99
:1018A8000CF059EF0CF061EF0CF0C80E36645FEFE6
:1018B8000CF061EF0CF063EF0CF0640E366E3950EB
:1018C800D8B469EF0CF06BEF0CF073EF0CF0C80EA6
:1018D800396471EF0CF073EF0CF075EF0CF0640ED7
:1018E800396E000E1A6E120081BE7DEF0CF07FEF8C
:1018F8000CF082EF0CF0318083EF0CF0319081BC5A
:1019080088EF0CF08AEF0CF08DEF0CF031828EEF3F
:101918000CF0319281BA93EF0CF095EF0CF098EF40
:101928000CF0318499EF0CF0319481B29EEF0CF0F9
:10193800A0EF0CF0A3EF0CF03280A4EF0CF0329083
:1019480081B0A9EF0CF0ABEF0CF0AEEF0CF03282E7
:10195800AFEF0CF0329281B6B4EF0CF0B6EF0CF0AA
:10196800B9EF0CF03284BAEF0CF0329481B4BFEFC7
:101978000CF0C1EF0CF0C4EF0CF03286C5EF0CF0A0
:10198800329681B8CAEF0CF0CCEF0CF0CFEF0CF028
:101998003288D0EF0CF0329882B2D5EF0CF0D7EF46
:1019A8000CF0DAEF0CF0328ADBEF0CF0329A82B0EE
:1019B800E0EF0CF0E2EF0CF0E5EF0CF0328CE6EF24
:1019C8000CF0329C80BAEBEF0CF0EDEF0CF0F0EF7E
:1019D8000CF03380F1EF0CF0339084B0F6EF0CF09C
:1019E800F8EF0CF0FBEF0CF03382FCEF0CF03392C5
:1019F80084B201EF0DF003EF0DF006EF0DF0338424
:101A080007EF0DF033941200010E5E6E20EE66F0C3
:101A180010EE58F0040EDBCFE3FFE806FCE2050EFB
:101A2800536419EF0DF01BEF0DF067EF0DF0050E85
:101A3800536E67EF0DF05E50535CD8B026EF0DF093
:101A480028EF0DF02AEF0DF06FEF0DF051C048F0C0
:101A580052C049F0000E4B6E0A0E4A6E58EC12F056
:101A680048505D6EFF0E546EFF0E556E5E50566EFA
:101A7800576A5450562655505722580E5624D96E38
:101A8800000E5720DA6E5D50300FDF6E5D50515CEE
:101A9800486E5250D8A05204496E000E4B6E0A0E82
:101AA8004A6E0BEC11F048C051F049C052F0515049
:101AB8005210D8A462EF0DF064EF0DF066EF0DF050
:101AC8006FEF0DF05E2A050E5E646DEF0DF06FEF9F
:101AD8000DF01FEF0DF053C05EF05E50D8A477EF05
:101AE8000DF079EF0DF07BEF0DF092EF0DF0FF0E9A
:101AF800546EFF0E556E5E50566E576A54505626F9
:101B080055505722580E5624D96E000E5720DA6EBB
:101B1800DF5038EC15F05E0671EF0DF01200000E84
:101B2800516E4FBE9CEF0DF09AEF0DF0A6EF0DF041
:101B38004F1E4E1E4D1E4C6C000E4D224E224F2243
:101B4800010E516E4BBEADEF0DF0ABEF0DF0B7EFE0
:101B58000DF04B1E4A1E491E486C000E49224A22AF
:101B68004B22010E511A000E526E000E536E000EDB
:101B7800546E000E556E4C504D104E104F10D8B488
:101B8800C8EF0DF0CAEF0DF000EF0EF0010E506E29
:101B9800D4EF0DF0D8904C364D364E364F36502A8D
:101BA8004FAED9EF0DF0DBEF0DF0CEEF0DF0D89082
:101BB80052365336543655364C50485C4D50495879
:101BC8004E504A584F504B58D8A0EDEF0DF0EFEF5C
:101BD8000DF0F8EF0DF04C50485E4D50495A4E50FC
:101BE8004A5A4F504B5A5280D8904F324E324D324B
:101BF8004C32502EDBEF0DF05150D8B406EF0EF0FA
:101C080008EF0EF010EF0EF0551E541E531E526CC6
:101C1800000E53225422552252C048F053C049F0B6
:101C280054C04AF055C04BF0120050C0D9FF51C003
:101C3800DAFF5350DE5CD8A024EF0EF026EF0EF04A
:101C480033EF0EF050C0D9FF51C0DAFFDE50525CBE
:101C5800D8B031EF0EF033EF0EF044EF0EF05250E3
:101C68005324486E496A4936000E4B6E020E4A6E7E
:101C780007EC0FF0485050C0D9FF51C0DAFFDF6EB3
:101C880020B249EF0EF04BEF0EF052EF0EF01FA20C
:101C980050EF0EF052EF0EF072EF0EF0000E206EC5
:101CA800000E1F6E50C0D9FF51C0DAFF5250DE5CE3
:101CB800D8B061EF0EF063EF0EF06AEF0EF050C08F
:101CC800D9FF51C0DAFFDF2A9EEF0EF050C0D9FFCE
:101CD80051C0DAFF52C0DFFF9EEF0EF020B077EF61
:101CE8000EF079EF0EF080EF0EF01FA07EEF0EF0F1
:101CF80080EF0EF09EEF0EF0000E206E000E1F6EAD
:101D080050C0D9FF51C0DAFFDE50535CD8B08FEF16
:101D18000EF091EF0EF098EF0EF050C0D9FF51C0C1
:101D2800DAFFDF069EEF0EF050C0D9FF51C0DAFF90
:101D380053C0DFFF12000600FACF44F0FBCF45F096
:101D4800D9CF46F0DACF47F0F2AAADEF0EF0AFEFF9
:101D58000EF0BAEF0EF0F2A4B4EF0EF0B6EF0EF0FC
:101D6800BAEF0EF01BEC15F0FDEF0EF0F2ACBFEF82
:101D78000EF0C1EF0EF0FDEF0EF09DA8C6EF0EF0CD
:101D8800C8EF0EF0DFEF0EF09EA8CDEF0EF0CFEF0C
:101D98000EF0DFEF0EF002D8DDEF0EF005000001C7
:101DA800FA6EB851FD6EB951FE6EF850FF6EFA50DA
:101DB8001200FDEF0EF09DAAE4EF0EF0E6EF0EF034
:101DC800FDEF0EF09EAAEBEF0EF0EDEF0EF0FDEF3B
:101DD8000EF002D8FBEF0EF005000001FA6EB651C6
:101DE800FD6EB751FE6EF850FF6EFA501200FDEF0F
:101DF8000EF047C0DAFF46C0D9FF45C0FBFF44C01C
:101E0800FAFF75921100000E4D6E4BBE10EF0FF0E9
:101E18000EEF0FF016EF0FF04A6C4B1ED8B04B2A9E
:101E2800010E4D6E49BE1DEF0FF01BEF0FF023EFB3
:101E38000FF0486C491ED8B0492A010E4D1A000E01
:101E48004F6E000E4E6E4A504B10D8B42EEF0FF066
:101E580030EF0FF058EF0FF0010E4C6E38EF0FF027
:101E6800D8904A364B364C2A4BAE3DEF0FF03FEF39
:101E78000FF034EF0FF0D8904E364F364A50485C8A
:101E88004B504958D8A04BEF0FF04DEF0FF052EFE1
:101E98000FF04A50485E4B50495A4E80D8904B320A
:101EA8004A324C2E3FEF0FF04D50D8B45EEF0FF092
:101EB80060EF0FF064EF0FF04E6C4F1ED8B04F2A52
:101EC8004EC048F04FC049F01200010E2524D96ECB
:101ED800DA6A000EDA22000EDF6EABA476EF0FF09E
:101EE80078EF0FF08DEF0FF0010E2524D96EDA6A26
:101EF800000EDA22DF8202D88DEF0FF00500000114
:101F0800FA6EB451FD6EB551FE6EF850FF6EFA5080
:101F18001200ABA292EF0FF094EF0FF0A9EF0FF0C1
:101F2800010E2524D96EDA6A000EDA22DF8402D87F
:101F3800A9EF0FF005000001FA6EB251FD6EB35122
:101F4800FE6EF850FF6EFA501200010E2524D96E6D
:101F5800DA6A000EDA22DF50D8B4B5EF0FF0B7EF27
:101F68000FF0C7EF0FF002D8C5EF0FF00500000122
:101F7800FA6EB051FD6EB151FE6EF850FF6EFA5018
:101F88001200C9EF0FF036EC14F01200040E495C91
:101F9800D8A0D1EF0FF0D3EF0FF0D6EF0FF0030E6C
:101FA800496E4868495007E1CC0E485CD8B0DFEF6D
:101FB8000FF0E1EF0FF0E5EF0FF0000E496ECC0ED9
:101FC800486E48C04AF049C04BF0D8904B324A326C
:101FD800D8904B324A324A50BE6E03EF10F0BD8A99
:101FE800BD8823EF10F0BD8ABD9823EF10F0BD9A8D
:101FF800BD8823EF10F0BD9ABD9823EF10F0010EB5
:1020080048144A6E000E49144B6E4B50000AD8B45F
:1020180010EF10F023EF10F04A50000AD8B4FFEF89
:102028000FF0010AD8B4FBEF0FF0030AD8B4F7EFAA
:102038000FF0010AD8B4F3EF0FF023EF10F01200FD
:10204800000E4D6E49BE2DEF10F02BEF10F033EF60
:1020580010F0486C491ED8B0492A010E4D6E4BBE8F
:102068003AEF10F038EF10F03EEF10F04A6C4B1ECC
:10207800D8B04B2A4A504B10D8B445EF10F047EF70
:1020880010F06BEF10F0010E4C6E4FEF10F0D8907F
:102098004A364B364C2A4BAE54EF10F056EF10F040
:1020A8004BEF10F04A50485C4B504958D8A05FEFAE
:1020B80010F061EF10F065EF10F04A50485E4B5099
:1020C800495AD8904B324A324C2E56EF10F04D50A8
:1020D800D8B471EF10F073EF10F077EF10F0486C90
:1020E800491ED8B0492A48C048F049C049F01200F2
:1020F800496EC6BA82EF10F084EF10F0CAEF10F004
:102108004950040D010EF326000EF422F90EF324B3
:10211800F66E7D0EF420F76E0800F5CFC7FF495024
:10212800040DF90EF324F66E7D0EF420F76E080008
:10213800F5CFC6FF000EC56E4950040D020EF326FA
:10214800000EF422F90EF324F66E7D0EF420F76EDD
:102158000800F5CFC8FF4950040D030EF326000E02
:10216800F422F90EF324F66E7D0EF420F76E0800C3
:10217800F5CF48F048464846484694504818F70B6B
:102188004818946EC68A010ECBEF10F0000E1200AC
:10219800536EEDEF10F05050800FE7EC14F00AEF9B
:1021A80011F05050C00FE7EC14F00AEF11F0505046
:1021B800900FE7EC14F00AEF11F05050D00FE7EC55
:1021C80014F00AEF11F05050C00FE7EC14F00AEFCA
:1021D80011F05350516E526A5250000AD8B4F7EFBA
:1021E80010F0E7EF10F05150000AD8B4CFEF10F01C
:1021F800010AD8B4D5EF10F0030AD8B4DBEF10F019
:10220800010AD8B4E1EF10F0E7EF10F01200000E69
:102218004E6E000E4D6E4A504B10D8B416EF11F0AA
:1022280018EF11F040EF11F0010E4C6E20EF11F095
:10223800D8904A364B364C2A4BAE25EF11F027EF93
:1022480011F01CEF11F0D8904D364E364A50485CCC
:102258004B504958D8A033EF11F035EF11F03AEF51
:1022680011F04A50485E4B50495A4D80D8904B3235
:102278004A324C2E27EF11F04DC048F04EC049F0BD
:1022880012009D9AD20E486E1E0E496E4CEC15F047
:102298009D98F00E486E260E496E47EC15F0080E14
:1022A800B86E900EAB6E240EAC6E080EAF6E020EBA
:1022B800B06ED60E486E2A0E496E56EC15F0C00E5A
:1022C800486E2A0E496E51EC15F0C60E486E2A0E5D
:1022D800496E5BEC15F0000E226E000E276E000EA4
:1022E800266E080E746E000E256E000E246E000E0B
:1022F800236E9D8A12008C9A000E496E050E486E58
:1023080007EC14F08C8A380EE7EC14F0000E496ED6
:10231800050E486E07EC14F0380EE7EC14F0000ECA
:10232800496E050E486E07EC14F0380EE7EC14F011
:102338000C0EE7EC14F0000E496E050E486E07EC23
:1023480014F0020EE7EC14F0000E496E050E486E0C
:1023580007EC14F0010EE7EC14F0000E496E050EC0
:10236800486E07EC14F01200000E526E30A0BFEF5A
:1023780011F0C1EF11F0C2EF11F0528A30A2C7EF8D
:1023880011F0C9EF11F0CAEF11F0528830A4CFEF65
:1023980011F0D1EF11F0D2EF11F0528632A4D7EF3D
:1023A80011F0D9EF11F0DAEF11F0528432A6DFEF15
:1023B80011F0E1EF11F0E2EF11F0528232A8E7EFED
:1023C80011F0E9EF11F0EAEF11F05280000E4F6EB4
:1023D80052505FEC14F01200000E506E000E516E59
:1023E800000E526E000E536E48A0FDEF11F0FFEF85
:1023F80011F007EF12F04C5050264D5051224E501C
:1024080052224F505322D8904C364D364E364F36C6
:10241800D8904B324A3249324832485049104A1013
:102428004B10D8A41AEF12F01CEF12F0F8EF11F0CD
:1024380050C048F051C049F052C04AF053C04BF068
:102448001200160EF66E2A0EF76E000EF86E00EEEB
:10245800A0F010EE10F00900F5CFEEFFE550E150C6
:10246800FAE1460EF66E2A0EF76E000EF86E00EED2
:1024780061F010EE0FF00900F5CFEEFFE550E150E6
:10248800FAE100EE80F0200EEE6AE806FDE100EECB
:1024980001F03E0EEE6AE806FDE175907592000EB9
:1024A800F86E00010AEF0BF04A504B10D8B45FEFFA
:1024B80012F061EF12F085EF12F0010E4C6E69EF29
:1024C80012F0D8904A364B364C2A4BAE6EEF12F0CB
:1024D80070EF12F065EF12F04A50485C4B504958C3
:1024E800D8A079EF12F07BEF12F07FEF12F04A508C
:1024F800485E4B50495AD8904B324A324C2E70EFB6
:1025080012F048C048F049C049F01200415042104A
:10251800D8B491EF12F093EF12F0B7EF12F0010E6A
:10252800436E9BEF12F0D89041364236432A42AEB2
:10253800A0EF12F0A2EF12F097EF12F041503F5CBB
:1025480042504058D8A0ABEF12F0ADEF12F0B1EF07
:1025580012F041503F5E4250405AD89042324132C8
:10256800432EA2EF12F03FC03FF040C040F01200EF
:10257800C6EF12F0350EE82EFED700F0200E485EAA
:10258800000E495A495007E1200E485CD8B0CFEFF9
:1025980012F0D1EF12F0BEEF12F0D6EF12F000D029
:1025A80000D000F04806D8A04906482806E1492886
:1025B800D8A4E1EF12F0E3EF12F0D3EF12F012001B
:1025C800000E536E000E526EF8EF12F04BC0D9FF9A
:1025D8004CC0DAFFDF50486E4D5058EC13F04B4AB0
:1025E8004C2A4D2A524A532A4E504F6E506A4F5029
:1025F800525C5350800A516E5050800A5158D8A0EE
:1026080008EF13F00AEF13F0EAEF12F0120030A00F
:1026180010EF13F012EF13F016EF13F01A801A925E
:1026280023EF13F030A21BEF13F01DEF13F021EF8F
:1026380013F01A901A8223EF13F01A901A9232A804
:1026480028EF13F02AEF13F02DEF13F01A842EEF72
:1026580013F01A941A5032EC15F01200000E516E55
:10266800000E506E45EF13F04B50D4EC14F049C0F7
:10267800D9FF4AC0DAFFDF6E4B2A494A4A2A504A34
:10268800512A4C504D6E4E6A4D50505C5150800A44
:102698004F6E4E50800A4F58D8A055EF13F057EFA1
:1026A80013F038EF13F01200496E000EF2BE010E5F
:1026B8004A6E49C0A9FF48C0A8FFA69EA69CA6844A
:1026C800F29E550EA76EAA0EA76EA682A6B26FEF4F
:1026D80013F071EF13F06AEF13F0A6944AB002D02A
:1026E800F29E01D0F28E1200080E74607EEF13F095
:1026F80080EF13F096EF13F0880E2624D96EDA6A6D
:10270800000EDA22DF50AD6E262A070E26648FEF00
:1027180013F091EF13F093EF13F0000E266E742A66
:1027280097EF13F09D981200A6EF13F051C0F6FF33
:1027380052C0F7FF0800F5CF53F0535038EC15F0AE
:10274800514A522A51C0F6FF52C0F7FF0800F5500F
:102758000009D8A4B2EF13F0B4EF13F09AEF13F016
:10276800120049C04DF04AC04EF0C4EF13F04DC0FE
:10277800D9FF4EC0DAFFDF509CEC14F04D4A4E2AC8
:102788004B06D8A04C064B2806E14C28D8A4CFEF1E
:1027980013F0D1EF13F0BBEF13F01200D59CF30E3A
:1027A800D76ECB0ED66ED650D7CF4AF04B6A4AC0FA
:1027B8004BF04A6A4A10706E4B50716EF294F28A6E
:1027C800D40E486E2A0E496E3DEC15F0850ED56E76
:1027D800120055C050F056C051F0C80E526E010E8E
:1027E800536E19EC0EF020A4FCEF13F0FEEF13F07B
:1027F80005EF14F0000E206E000E1F6E010E06EF9E
:1028080014F0000E120011EF14F0070E4A6E7D0E40
:10281800E82EFED74A2EFCD700F04806D8A0490675
:10282800482806E14928D8A41CEF14F01EEF14F03C
:1028380009EF14F0120072507310D8B426EF14F098
:1028480028EF14F035EF14F002D835EF14F0050036
:10285800FA6E7250FD6E7350FE6EF850FF6EFA50AD
:1028680012001200800E2524D96EDA6A000EDA22D0
:10287800AECFDFFF252A070E256445EF14F047EF9A
:1028880014F049EF14F0000E256E232A1200000EF2
:102898008D6E1E0E8C6E000E896E000E8A6E000EF6
:1028A8008B6E030E966E92689368930E946E3E0E2E
:1028B800956EF18E1200506E3A0E4F24D96EDA6A78
:1028C800000EDA22DF50800B516E50507F0B5110F2
:1028D8003B6E8FEC14F01200526E77EF14F05250EA
:1028E80038EC15F051065150D8A47DEF14F07FEF65
:1028F80014F073EF14F0120068EC15F002EC15F008
:102908004BEC14F042EC15F0D2EC13F0B5EC14F0EB
:1029180045EC11F012003A0E496E000E4A6E000E98
:102928004C6E030E4B6EB5EC13F0F9EC14F012007C
:10293800486E48C0C9FF9EA6A4EF14F0A6EF14F095
:102948009FEF14F09E96C9501200496E49C048F096
:1029580048464846C2504818C30B4818C26EC28041
:1029680012001B0EC16EB50EC06E000EC36E000EB7
:10297800C46E010EC26E1200C2A2C5EF14F0C8EFF9
:1029880014F0010EC9EF14F0000E1200C4504B6E83
:102998004A6AC3504A24486E000E4B20496E120002
:1029A800486E48C0A9FFA69CA69EA68000F000F02D
:1029B800A85012004F6E4FC03CF03B8E8FEC14F0C5
:1029C800F0EC14F012004F6E4FC03CF03B9E8FECC1
:1029D80014F0F0EC14F012008C9C000E496E030EFB
:1029E800486EBCEC12F08C8C12008C8E000E496E76
:1029F800030E486EBCEC12F08C9E1200400EC76E9F
:102A0800210EC66E010EC86E9496C69A12006461B5
:102A18007461000000000000000000000000CB68A6
:102A28000C0EBD6E94947E0ECA6EBE681200F294AF
:102A38007150D76E70C0D6FF1FEC14F01200303002
:0D2A480030303020202020205E7F02020F61
:102A56006C0E486E140E496E3DEC15F012004F6E6A
:102A66004FC03AF08FEC14F01200506E5050DEEC6E
:102A760014F0120048C072F049C073F01200720ED2
:102A8600D36E000E9B6E120048C0B8F049C0B9F074
:102A9600120048C0B6F049C0B7F0120048C0B2F004
:102AA60049C0B3F0120048C0B4F049C0B5F01200F6
:102AB60048C0B0F049C0B1F01200AB98AB88120024
:102AC60036EC14F01200C2821200D09E12001200E0
:022AD6001200EC
:107DD0000000000000000000008E2AD21E982A0039
:107DE00000F0268A2200000000382900006A2700DF
:107DF000000000000000000000214001000A401FB8
:107E0000005265636569766520746573743A205421
:107E10007970652061206D65737361676520746892
:107E2000656E20707265737320656E7465722028AC
:107E30006D6178203136206368617273293A00439E
:107E4000616C6962726174696F6E2020202020006D
:107E500050726F6772616D205350203F20202020A8
:107E60000043616C6962726174696F6E3F2020200B
:107E7000200050726F6772616D206D6F6465202005
:107E800020200053656C656374206D6F64653A2D26
:107E90002020200052652050726F6772616D202093
:107EA0003F2020200052652043616C69627261743A
:107EB000653F202020004D6F746F72206F766572D1
:107EC0006C6F61642121004D6F746F722074656D59
:107ED0007020747269702100546F72712E20667563
:107EE0006C6C20636C6F73650056616C7665206600
:107EF000756C6C20636C6F73650056616C766520E1
:107F000066756C6C20206F70656E00546F727175B1
:107F1000652066756C6C206F70656E00456E7465CB
:107F20007220687973746572657369730048656C53
:107F30006C6F20576F726C64212025640A002E2E0E
:107F40002E2E2E2E2E2E2E2E2E2E2E2E2E00506F1C
:107F5000776572206F6E20746573742E2E005472D4
:107F6000616E736D697420746573740A00596F755E
:107F70002074797065643A20002059285E29204ECB
:107F80002876290050617373776F72643A004F75D9
:107F900074707574202000506F736974696F6E007F
:107FA00056616C7665506F7300536574506F696EDF
:107FB00074005B4D414E205D20005B4155544F5D88
:107FC0002000416E616C6F672000446967697461CD
:107FD0006C005370616E20005A65726F200043611F
:107FE0006C3F00646174610053503A000A6F6B008B
:107FF0002D2D003C3C003E3C003E3E002563000031
:020000040020DA
:08000000FFFFFFFFFFFFFFFF00
:020000040030CA
:0E000000FF021214FF8181FF0FC00FE00F40BE
:00000001FF
