:020000040000FA
:0400000007EF00F016
:1000080076821FED0CF0DBEF0EF07DEF04F0000EB2
:100018004E6E000EF0EC0DF0610E4F6E7E0E506EBF
:10002800EBEC0FF0000E4E6E010EF0EC0DF0060E2C
:100038004F6E200EC4EC10F0790E4F6E7F0E506E8E
:10004800EBEC0FF01FA42BEF00F02DEF00F032EFD8
:1000580000F0000E1F6E000E1E6E182A1FB637EF36
:1000680000F039EF00F040EF00F01FA03EEF00F085
:1000780040EF00F0BAEF04F0000E1F6E000E1E6E87
:10008800000E186E010EBBEF04F0000E4E6E000E4F
:10009800F0EC0DF03F0E4F6E7E0E506EEBEC0FF055
:1000A800000E4E6E010EF0EC0DF0840E4F6E7F0EBA
:1000B800506EEBEC0FF0040E4F6E200EC4EC10F0F7
:1000C8006CC04FF0506A030E516E88EC0AF06C0E4B
:1000D8004E6E000E4F6E640E506E010E516E13EC94
:1000E8000BF01FA27AEF00F07CEF00F094EF00F025
:1000F800000E1E6E000E1F6E0A0E6C18D8A487EF35
:1001080000F089EF00F08EEF00F00F0E6C6E182AE9
:1001180094EF00F00F0E6C6E000E186E46EF00F0B4
:100128001FA099EF00F09BEF00F0BAEF04F0000E6B
:100138001F6E000E1E6E0F0E6C6E000E186E46EFD0
:1001480000F0000E4E6E000EF0EC0DF0A90E4F6E92
:100158007F0E506EEBEC0FF0010E4F6E200EC4ECCC
:1001680010F0DE0E4F6E7F0E506EEBEC0FF0030EAC
:100178004F6E200EC4EC10F0000E4E6E010EF0EC27
:100188000DF0060E4F6E200EC4EC10F0790E4F6E77
:100198007F0E506EEBEC0FF01FA4D5EF00F0D7EFF9
:1001A80000F0DCEF00F0000E1F6E000E1E6E182A25
:1001B8001FA6E1EF00F0E3EF00F0E9EF00F0000E1A
:1001C8001F6E000E1E6E030E18261FA0EEEF00F025
:1001D800F0EF00F0BAEF04F0000E1F6E000E1E6E76
:1001E8000B0E186EBAEF04F0000E4E6E000EF0EC17
:1001F8000DF0A90E4F6E7F0E506EEBEC0FF0010E56
:100208004F6E200EC4EC10F029C046F02AC047F00B
:10021800000E496E0A0E486E2FEC0EF046C0B0F084
:1002280047C0B1F0B0C04FF0B1C050F0030E516EEE
:1002380088EC0AF02E0E53EC11F029C046F02AC0C3
:1002480047F0000E496E0A0E486E0EEC0FF046C0DD
:10025800B2F047C0B3F0B2C04FF0B3C050F0010ED7
:10026800516E88EC0AF0250E53EC11F0000E4E6E1C
:10027800010EF0EC0DF0D80E4F6E7F0E506EEBECC9
:100288000FF036C04FF0506A040E516E88EC0AF039
:10029800070E4F6E200EC4EC10F0360E536E000E93
:1002A800546E40EC10F00009D8B45DEF01F05FEF38
:1002B80001F060EF01F0182A1FA065EF01F067EF69
:1002C80001F0BAEF04F0F0EF00F0000E4E6E000EF1
:1002D800F0EC0DF0A90E4F6E7F0E506EEBEC0FF0A8
:1002E800010E4F6E200EC4EC10F029C046F02AC053
:1002F80047F0000E496E0A0E486E2FEC0EF046C00D
:10030800B0F047C0B1F0B0C04FF0B1C050F0030E2C
:10031800516E88EC0AF02E0E53EC11F029C046F00D
:100328002AC047F0000E496E0A0E486E0EEC0FF018
:1003380046C0B2F047C0B3F0B2C04FF0B3C050F0FF
:10034800010E516E88EC0AF0250E53EC11F0000EE8
:100358004E6E010EF0EC0DF0D20E4F6E7F0E506E09
:10036800EBEC0FF035C04FF0506A040E516E88EC7C
:100378000AF0070E4F6E200EC4EC10F0350E536EC7
:10038800000E546E40EC10F00009D8B4CEEF01F026
:10039800D0EF01F0D1EF01F0182A1FA0D6EF01F03D
:1003A800D8EF01F0BAEF04F0F0EF00F0000E4E6E57
:1003B800000EF0EC0DF0970E4F6E7F0E506EEBECCA
:1003C8000FF0010E4F6E200EC4EC10F0DE0E4F6ED3
:1003D8007F0E506EEBEC0FF0030E4F6E200EC4EC48
:1003E80010F0000E4E6E010EF0EC0DF0060E4F6E82
:1003F800200EC4EC10F0790E4F6E7F0E506EEBECB1
:100408000FF01FA40AEF02F00CEF02F011EF02F058
:10041800000E1F6E000E1E6E182A1FA616EF02F0A1
:1004280018EF02F01EEF02F0000E1F6E000E1E6E97
:10043800030E18261FA023EF02F025EF02F0BAEFF3
:1004480004F0F0EF00F0000E4E6E000EF0EC0DF030
:10045800970E4F6E7F0E506EEBEC0FF0010E4F6E45
:10046800200EC4EC10F027C046F028C047F0000E5C
:10047800496E0A0E486E2FEC0EF046C0B0F047C029
:10048800B1F0B0C04FF0B1C050F0030E516E88EC1F
:100498000AF02E0E53EC11F027C046F028C047F0A2
:1004A800000E496E0A0E486E0EEC0FF046C0B2F010
:1004B80047C0B3F0B2C04FF0B3C050F0010E516E58
:1004C80088EC0AF0250E53EC11F0000E4E6E010E6A
:1004D800F0EC0DF0D80E4F6E7F0E506EEBEC0FF077
:1004E80034C04FF0506A040E516E88EC0AF0070EC3
:1004F8004F6E200EC4EC10F0340E536E000E546E86
:1005080040EC10F00009D8B48CEF02F08EEF02F046
:100518008FEF02F0182A1FA094EF02F096EF02F076
:10052800BAEF04F0F0EF00F0000E4E6E000EF0ECA3
:100538000DF0970E4F6E7F0E506EEBEC0FF0010E24
:100548004F6E200EC4EC10F027C046F028C047F0CC
:10055800000E496E0A0E486E2FEC0EF046C0B0F041
:1005680047C0B1F0B0C04FF0B1C050F0030E516EAB
:1005780088EC0AF02E0E53EC11F027C046F028C084
:1005880047F0000E496E0A0E486E0EEC0FF046C09A
:10059800B2F047C0B3F0B2C04FF0B3C050F0010E94
:1005A800516E88EC0AF0250E53EC11F0000E4E6ED9
:1005B800010EF0EC0DF0D20E4F6E7F0E506EEBEC8C
:1005C8000FF033C04FF0506A040E516E88EC0AF0F9
:1005D800070E4F6E200EC4EC10F0330E536E000E53
:1005E800546E40EC10F00009D8B4FDEF02F0FFEFB4
:1005F80002F000EF03F0182A1FA005EF03F007EF41
:1006080003F0BAEF04F0F0EF00F0000E4E6E000EAB
:10061800F0EC0DF08E0E4F6E7F0E506EEBEC0FF07F
:10062800010E4F6E200EC4EC10F0DE0E4F6E7F0EE2
:10063800506EEBEC0FF0030E4F6E200EC4EC10F072
:10064800000E4E6E010EF0EC0DF0060E4F6E200EF1
:10065800C4EC10F0790E4F6E7F0E506EEBEC0FF07D
:100668001FA439EF03F03BEF03F040EF03F0000E57
:100678001F6E000E1E6E182A1FA645EF03F047EFE7
:1006880003F04DEF03F0000E1F6E000E1E6E030EFA
:1006980018261FA052EF03F054EF03F0BAEF04F04E
:1006A800F0EF00F0000E4E6E000EF0EC0DF08E0E26
:1006B8004F6E7F0E506EEBEC0FF0010E4F6E200E5A
:1006C800C4EC10F02DC046F02EC047F0000E496E65
:1006D8000A0E486E2FEC0EF046C0B0F047C0B1F0DD
:1006E800B0C04FF0B1C050F0030E516E88EC0AF064
:1006F8002E0E53EC11F02DC046F02EC047F0000E20
:10070800496E0A0E486E0EEC0FF046C0B2F047C0B4
:10071800B3F0B2C04FF0B3C050F0010E516E88EC88
:100728000AF0250E53EC11F0000E4E6E010EF0EC9F
:100738000DF0D80E4F6E7F0E506EEBEC0FF034C0FC
:100748004FF0506A040E516E88EC0AF0070E4F6E97
:10075800200EC4EC10F0340E536E000E546E40ECB4
:1007680010F00009D8B4BBEF03F0BDEF03F0BEEF03
:1007780003F0182A1FA0C3EF03F0C5EF03F0BAEF88
:1007880004F0F0EF00F0000E4E6E000EF0EC0DF0ED
:10079800970E4F6E7F0E506EEBEC0FF0010E4F6E02
:1007A800200EC4EC10F02DC046F02EC047F0000E0D
:1007B800496E0A0E486E2FEC0EF046C0B0F047C0E6
:1007C800B1F0B0C04FF0B1C050F0030E516E88ECDC
:1007D8000AF02E0E53EC11F02DC046F02EC047F053
:1007E800000E496E0A0E486E0EEC0FF046C0B2F0CD
:1007F80047C0B3F0B2C04FF0B3C050F0010E516E15
:1008080088EC0AF0250E53EC11F0000E4E6E010E26
:10081800F0EC0DF0D20E4F6E7F0E506EEBEC0FF039
:1008280033C04FF0506A040E516E88EC0AF0070E80
:100838004F6E200EC4EC10F0330E536E000E546E43
:1008480040EC10F00009D8B42CEF04F02EEF04F0BF
:100858002FEF04F0182A1FA034EF04F036EF04F04D
:10086800BAEF04F0F0EF00F0000E4E6E000EF0EC60
:100878000DF0A50E4F6E7E0E506EEBEC0FF0000ED5
:100888004E6E010EF0EC0DF0060E4F6E200EC4EC0D
:1008980010F0790E4F6E7F0E506EEBEC0FF01FA428
:1008A80058EF04F05AEF04F060EF04F0000E1F6EEA
:1008B800000E1E6E020E186E1FA665EF04F067EF9D
:1008C80004F0BAEF04F0000E1F6E000E1E6E000E4C
:1008D800186E330E466E000E476E020E486E060EF8
:1008E800496E85EC11F046EF00F0000E186EBAEF75
:1008F80004F018505D6E5E6A5E50000AD8B487EF47
:1009080004F079EF04F05D50000AD8B40BEF00F062
:10091800010AD8B449EF00F0030AD8B4A5EF00F0F3
:10092800010AD8B4F8EF00F0070AD8B469EF01F06B
:10093800010AD8B4DAEF01F0030AD8B427EF02F0BD
:10094800010AD8B498EF02F00F0AD8B409EF03F0FF
:10095800010AD8B456EF03F0030AD8B4C7EF03F07E
:10096800010AD8B438EF04F079EF04F0000E120051
:100978006DEF06F0000E4E6E000EF0EC0DF0500E0E
:100988004F6E7E0E506EEBEC0FF0000E4E6E010EA9
:10099800F0EC0DF0060E4F6E200EC4EC10F0790E40
:1009A8004F6E7F0E506EEBEC0FF01FA4DEEF04F0DD
:1009B800E0EF04F0E5EF04F0000E1F6E000E1E6E6F
:1009C800192A1FB6EAEF04F0ECEF04F0F3EF04F095
:1009D8001FA0F1EF04F0F3EF04F08EEF06F0000E25
:1009E8001F6E000E1E6E000E196E010E8FEF06F0C0
:1009F800000E4E6E000EF0EC0DF0720E4F6E7E0E75
:100A0800506EEBEC0FF0000E4E6E010EF0EC0DF098
:100A1800840E4F6E7F0E506EEBEC0FF0040E4F6E8F
:100A2800200EC4EC10F06CC04FF0506A030E516EEB
:100A380088EC0AF06C0E4E6E000E4F6E640E506E0F
:100A4800010E516E13EC0BF01FA22DEF05F02FEFE6
:100A580005F047EF05F0000E1E6E000E1F6E0A0E21
:100A68006C18D8A43AEF05F03CEF05F041EF05F01B
:100A7800192A0F0E6C6E47EF05F0000E196E0F0E57
:100A88006C6EF9EF04F01FA04CEF05F04EEF05F087
:100A98008EEF06F0000E1F6E000E1E6E0F0E6C6EAF
:100AA800000E196EF9EF04F0000E4E6E000EF0EC19
:100AB8000DF01C0E4F6E7F0E506EEBEC0FF0000E1B
:100AC8004E6E010EF0EC0DF00A0E4F6E200EC4ECC7
:100AD80010F03BC046F0476A000E496E0A0E486E99
:100AE80085EC0CF046C04FF047C050F0030E516E35
:100AF80088EC0AF02E0E53EC11F03BC046F0476A22
:100B0800000E496E0A0E486E48EC0DF046C04FF0D4
:100B180047C050F0010E516E88EC0AF0250E53ECD8
:100B280011F03B0E4E6E000E4F6E640E506E010EAD
:100B3800516E13EC0BF01FA2A4EF05F0A6EF05F021
:100B4800ABEF05F0000E1F6E000E1E6E192A1FA0D7
:100B5800B0EF05F0B2EF05F08EEF06F0000E1F6E55
:100B6800000E1E6E040E196E8EEF06F0000E4E6E0D
:100B7800000EF0EC0DF0830E4F6E7E0E506EEBEC17
:100B88000FF0000E4E6E010EF0EC0DF0090E4F6ED8
:100B9800200EC4EC10F03C04D8A4D5EF05F0D7EF34
:100BA80005F0DFEF05F0C20E4F6E7F0E506EEBECD6
:100BB8000FF0E5EF05F0CA0E4F6E7F0E506EEBECAE
:100BC8000FF01FB4EAEF05F0ECEF05F0F3EF05F0D6
:100BD8001FA6F1EF05F0F3EF05F005EF06F0000EA4
:100BE8001F6E000E1E6E3C04D8A4FDEF05F0FFEF4B
:100BF80005F003EF06F0000E3C6E05EF06F0010E5F
:100C08003C6E1FA20AEF06F00CEF06F011EF06F09B
:100C1800000E1F6E000E1E6E192A1FA016EF06F09A
:100C280018EF06F08EEF06F0B2EF05F0000E4E6EEC
:100C3800000EF0EC0DF0940E4F6E7E0E506EEBEC45
:100C48000FF0000E4E6E010EF0EC0DF0060E4F6E1A
:100C5800200EC4EC10F0790E4F6E7F0E506EEBEC48
:100C68000FF01FA43AEF06F03CEF06F042EF06F053
:100C7800000E1F6E000E1E6E020E196E1FB647EF95
:100C880006F049EF06F057EF06F01FB24EEF06F0F8
:100C980050EF06F057EF06F01FA055EF06F057EF9C
:100CA80006F08EEF06F0000E1F6E000E1E6E3B0E55
:100CB800466E000E476E000E486E020E496E85ECB9
:100CC80011F0000E196EF9EF04F0000E196E8EEF98
:100CD80006F019505D6E5E6A5E50000AD8B477EF70
:100CE80006F069EF06F05D50000AD8B4BEEF04F0D4
:100CF800010AD8B4FCEF04F0030AD8B458EF05F0A1
:100D0800010AD8B4BAEF05F0070AD8B41AEF06F00A
:100D180069EF06F0000E1200000E4E6E000EF0ECA9
:100D28000DF02FA49AEF06F09CEF06F0A4EF06F062
:100D3800F60E4F6E7F0E506EEBEC0FF0C8EF06F01C
:100D48002FA0A9EF06F0ABEF06F0B3EF06F0F90E0F
:100D58004F6E7F0E506EEBEC0FF0C8EF06F02FA22F
:100D6800B8EF06F0BAEF06F0C2EF06F0F30E4F6EDA
:100D78007F0E506EEBEC0FF0C8EF06F0F00E4F6EE2
:100D88007F0E506EEBEC0FF0A00E4F6E7F0E506E84
:100D9800EBEC0FF027C046F028C047F0000E496E74
:100DA8000A0E486E2FEC0EF046C0B0F047C0B1F006
:100DB800B0C04FF0B1C050F0030E516E88EC0AF08D
:100DC8002E0E53EC11F027C046F028C047F0000E55
:100DD800496E0A0E486E0EEC0FF046C0B2F047C0DE
:100DE800B3F0B2C04FF0B3C050F0010E516E88ECB2
:100DF8000AF0250E53EC11F0000E4E6E010EF0ECC9
:100E08000DF0F5EF07F031A00CEF07F00EEF07F04B
:100E180021EF07F00B0E4F6E7F0E506EEBEC0FF0CC
:100E28002050D8B41AEF07F01CEF07F01AEF08F0BB
:100E3800000E206E1A2A1AEF08F01A2A31A227EF9C
:100E480007F029EF07F039EF07F0D80E4F6E7E0E46
:100E5800506EEBEC0FF02050D8B435EF07F037EFB9
:100E680007F01AEF08F01CEF07F01A2A31A43FEF39
:100E780007F041EF07F051EF07F0FA0E4F6E7E0EC4
:100E8800506EEBEC0FF02050D8B44DEF07F04FEF59
:100E980007F01AEF08F01CEF07F01A2A31A657EFEF
:100EA80007F059EF07F069EF07F0E90E4F6E7E0E75
:100EB800506EEBEC0FF02050D8B465EF07F067EFF9
:100EC80007F01AEF08F01CEF07F01A2A31AA6FEFA3
:100ED80007F071EF07F081EF07F0C70E4F6E7E0E37
:100EE800506EEBEC0FF02050D8B47DEF07F07FEF99
:100EF80007F01AEF08F01CEF07F01A2A31AC87EF59
:100F080007F089EF07F099EF07F0B60E4F6E7E0EE7
:100F1800506EEBEC0FF02050D8B495EF07F097EF38
:100F280007F01AEF08F01CEF07F01A2A31A89FEF14
:100F380007F0A1EF07F0A9EF07F0BA0E4F6E7F0E8A
:100F4800506EEBEC0FF0AFEF07F0B20E4F6E7F0E66
:100F5800506EEBEC0FF0E80E4F6E7F0E506EEBEC20
:100F68000FF02BC046F02CC047F0000E496E0A0E59
:100F7800486E2FEC0EF046C0B0F047C0B1F0B0C0DC
:100F88004FF0B1C050F0030E516E88EC0AF02E0EEF
:100F980053EC11F02BC046F02CC047F0000E496E00
:100FA8000A0E486E0EEC0FF046C0B2F047C0B3F020
:100FB800B2C04FF0B3C050F0010E516E88EC0AF089
:100FC800250E53EC11F02050D8B4EDEF07F0EFEFF9
:100FD80007F01AEF08F0000E206E000E1A6E1AEFD6
:100FE80008F01A505D6E5E6A5E50000AD8B4FFEFD2
:100FF80007F09AEF07F05D50000AD8B407EF07F042
:10100800010AD8B422EF07F0030AD8B43AEF07F080
:10101800010AD8B452EF07F0070AD8B46AEF07F00C
:10102800010AD8B482EF07F09AEF07F01200000E19
:10103800536E000E546E31A824EF08F026EF08F026
:101048005CEF08F03C50D8B42CEF08F02EEF08F015
:1010580035EF08F02F9429C02BF02AC02CF077EF39
:1010680008F032A43AEF08F03CEF08F043EF08F03C
:10107800000E536E000E546E2F8477EF08F032A0E6
:1010880048EF08F04AEF08F04FEF08F0010E536EF2
:101098002F9477EF08F032A254EF08F056EF08F0DB
:1010A8005AEF08F0010E546E4CEF08F077EF08F095
:1010B80030A461EF08F063EF08F065EF08F03CEF4B
:1010C80008F030A06AEF08F06CEF08F06EEF08F057
:1010D8004AEF08F030A273EF08F075EF08F077EFE9
:1010E80008F056EF08F031B07CEF08F07EEF08F01A
:1010F800A1EF08F031B283EF08F085EF08F0A1EF17
:1011080008F031B48AEF08F08CEF08F0A1EF08F08E
:1011180031B691EF08F093EF08F0A1EF08F031BA7B
:1011280098EF08F09AEF08F0A1EF08F031AC9FEFC4
:1011380008F0A1EF08F0A2EF08F02F842FA4A7EF82
:1011480008F0A9EF08F0ADEF08F02F902F9204EF08
:1011580009F03C50D8B4B3EF08F0B5EF08F0EAEF67
:1011680008F031A8BAEF08F0BCEF08F0EAEF08F091
:101178003B502B24516E000E2C20526E2750515C90
:1011880028505258D8B0CBEF08F0CDEF08F0D1EF87
:1011980008F02F902F8204EF09F03B502724516E5E
:1011A800000E2820526E2B50515C2C505258D8B04B
:1011B800E0EF08F0E2EF08F0E6EF08F02F802F925A
:1011C80004EF09F02F922F9004EF09F027C02BF0BD
:1011D80028C02CF05350D8B4F4EF08F0F6EF08F01C
:1011E800FAEF08F02F802F9204EF09F05450D8B48A
:1011F80000EF09F002EF09F0A9EF08F02F902F8215
:10120800A3EC0EF012000F0E095C0E0E0A58D8B0AF
:1012180010EF09F012EF09F016EF09F0094A0A2A4F
:1012280022EF09F0000E0A6E000E096E010E206E04
:10123800010E156E010E126E010E116E010E1D6E5D
:1012480009C03DF00AC03EF0070E406E080E3F6E22
:1012580040EC0FF03D503E10D8A435EF09F037EFC1
:1012680009F039EF09F0010E126E09C03DF00AC00D
:101278003EF0000E406E1E0E3F6E40EC0FF03D50EB
:101288003E10D8A44AEF09F04CEF09F050EF09F0EE
:10129800010E206E010E156E09C03DF00AC03EF029
:1012A800000E406E0A0E3F6E40EC0FF03D503E10AF
:1012B800D8A461EF09F063EF09F070EF09F0010EAF
:1012C800136E0F50D8B46BEF09F06EEF09F0010EF2
:1012D8006FEF09F0000E0F6E09C03DF00AC03EF036
:1012E800000E406E050E3F6E40EC0FF03D503E1074
:1012F800D8A481EF09F083EF09F08EEF09F01050C0
:10130800D8B489EF09F08CEF09F0010E8DEF09F0E0
:10131800000E106E09B093EF09F095EF09F097EF02
:1013280009F0010E146E000E176E83B29EEF09F0DD
:10133800A0EF09F0A1EF09F0178083B4A6EF09F038
:10134800A8EF09F0A9EF09F0178283B6AEEF09F00C
:10135800B0EF09F0B1EF09F0178483B8B6EF09F0E0
:10136800B8EF09F0B9EF09F017861650FF0A1714FD
:101378001F1217C016F01750D8B4C5EF09F0C7EF01
:1013880009F0D8EF09F06B50D8A4CDEF09F0CFEFF2
:1013980009F0D5EF09F0020E6B6E17501E12DAEF46
:1013A80009F06B06DAEF09F0020E6B6E1200D4EC4E
:1013B80010F0F28EF28C4CEC11F0000EA0EC0DF057
:1013C80072EC0FF0000E4E6E000EF0EC0DF04E0EAB
:1013D8004F6E7F0E506EEBEC0FF0000E4E6E010E4E
:1013E800F0EC0DF03E0E4F6E7F0E506EEBEC0FF0F2
:1013F80004001D50D8B403EF0AF005EF0AF039EFE6
:101408000AF0000E1D6E84EC11F039EF0AF01BECA7
:1014180008F090EC06F01FA014EF0AF016EF0AF09F
:1014280053EF0AF0000E1F6E000E1E6E1C2A53EFBB
:101438000AF01BEC08F0BCEC04F00009D8B427EF64
:101448000AF029EF0AF053EF0AF01AEF0AF009EC54
:1014580000F00009D8B433EF0AF035EF0AF053EF83
:101468000AF0000E1C6E53EF0AF01C500001B46F16
:10147800B56BB551000AD8B444EF0AF035EF0AF05D
:10148800B451000AD8B40BEF0AF0010AD8B41DEF22
:101498000AF0030AD8B42BEF0AF035EF0AF0275008
:1014A8000001B46F2850B56FB66BB76B020ED890B9
:1014B800B437B537B637B737E82E5BEF0AF0B4C0A4
:1014C80046F0B5C047F0B6C048F0B7C049F0050EC1
:1014D8004A6E000E4B6E000E4C6E000E4D6E99EC6F
:1014E8000BF0CC0E46242D6E000E47202E6E2DC01C
:1014F80046F02EC047F083EC11F086EC11F00400A2
:10150800FDEF09F007EF00F0010E5C6E20EE64F0CD
:1015180010EE56F0040EDBCFE3FFE806FCE2050E02
:10152800516499EF0AF09BEF0AF0E7EF0AF0050E15
:10153800516EE7EF0AF05C50515CD8B0A6EF0AF0A4
:10154800A8EF0AF0AAEF0AF0EFEF0AF04FC046F052
:1015580050C047F0000E496E0A0E486E0EEC0FF0B0
:1015680046505B6EFF0E526EFF0E536E5C50546E0B
:10157800556A5250542653505522560E5424D96E4B
:10158800000E5520DA6E5B50300FDF6E5B504F5CFB
:10159800466E5050D8A05004476E000E496E0A0E91
:1015A800486E2FEC0EF046C04FF047C050F04F5039
:1015B8005010D8A4E2EF0AF0E4EF0AF0E6EF0AF0E0
:1015C800EFEF0AF05C2A050E5C64EDEF0AF0EFEF2E
:1015D8000AF09FEF0AF051C05CF05C50D8A4F7EF16
:1015E8000AF0F9EF0AF0FBEF0AF012EF0BF0FF0E2A
:1015F800526EFF0E536E5C50546E556A525054260C
:1016080053505522560E5424D96E000E5520DA6ECA
:10161800DF5053EC11F05C06F1EF0AF012004EC0F7
:10162800D9FF4FC0DAFF5150DE5CD8A01EEF0BF097
:1016380020EF0BF02DEF0BF04EC0D9FF4FC0DAFFB3
:10164800DE50505CD8B02BEF0BF02DEF0BF03EEFD7
:101658000BF050505124466E476A4736000E496ECB
:10166800020E486E85EC0CF046504EC0D9FF4FC0B4
:10167800DAFFDF6E1FB443EF0BF045EF0BF04CEFD2
:101688000BF01EA44AEF0BF04CEF0BF06CEF0BF0D5
:10169800000E1F6E000E1E6E4EC0D9FF4FC0DAFF3F
:1016A8005050DE5CD8B05BEF0BF05DEF0BF064EFF1
:1016B8000BF04EC0D9FF4FC0DAFFDF2A98EF0BF0CE
:1016C8004EC0D9FF4FC0DAFF50C0DFFF98EF0BF0D4
:1016D8001FB671EF0BF073EF0BF07AEF0BF01EA64D
:1016E80078EF0BF07AEF0BF098EF0BF0000E1F6E0F
:1016F800000E1E6E4EC0D9FF4FC0DAFFDE50515C9F
:10170800D8B089EF0BF08BEF0BF092EF0BF04EC0D7
:10171800D9FF4FC0DAFFDF0698EF0BF04EC0D9FFB4
:101728004FC0DAFF51C0DFFF1200000E4F6E4DBEF2
:10173800A2EF0BF0A0EF0BF0ACEF0BF04D1E4C1E20
:101748004B1E4A6C000E4B224C224D22010E4F6E4E
:1017580049BEB3EF0BF0B1EF0BF0BDEF0BF0491E34
:10176800481E471E466C000E472248224922010E99
:101778004F1A000E506E000E516E000E526E000E83
:10178800536E4A504B104C104D10D8B4CEEF0BF09E
:10179800D0EF0BF006EF0CF0010E4E6EDAEF0BF007
:1017A800D8904A364B364C364D364E2A4DAEDFEF82
:1017B8000BF0E1EF0BF0D4EF0BF0D8905036513628
:1017C800523653364A50465C4B5047584C5048584E
:1017D8004D504958D8A0F3EF0BF0F5EF0BF0FEEFA2
:1017E8000BF04A50465E4B50475A4C50485A4D50A1
:1017F800495A5080D8904D324C324B324A324E2E94
:10180800E1EF0BF04F50D8B40CEF0CF00EEF0CF0EA
:1018180016EF0CF0531E521E511E506C000E512232
:101828005222532250C046F051C047F052C048F0EF
:1018380053C049F012000600FACF42F0FBCF43F044
:10184800D9CF44F0DACF45F0F2AA2DEF0CF02FEF04
:101858000CF03AEF0CF0F2A434EF0CF036EF0CF089
:101868003AEF0CF03DEC11F07BEF0CF0F2AC3FEFEF
:101878000CF041EF0CF07BEF0CF09DA846EF0CF05C
:1018880048EF0CF05EEF0CF09EA84DEF0CF04FEF18
:101898000CF05EEF0CF002D85CEF0CF00500FA6E6D
:1018A8007350FD6E7450FE6EF850FF6EFA501200C1
:1018B8007BEF0CF09DAA63EF0CF065EF0CF07BEF6B
:1018C8000CF09EAA6AEF0CF06CEF0CF07BEF0CF0BA
:1018D80002D879EF0CF00500FA6E7150FD6E725067
:1018E800FE6EF850FF6EFA5012007BEF0CF045C008
:1018F800DAFF44C0D9FF43C0FBFF42C0FAFF76922B
:101908001100000E4B6E49BE8EEF0CF08CEF0CF000
:1019180094EF0CF0486C491ED8B0492A010E4B6E62
:1019280047BE9BEF0CF099EF0CF0A1EF0CF0466C62
:10193800471ED8B0472A010E4B1A000E4D6E000EF6
:101948004C6E48504910D8B4ACEF0CF0AEEF0CF028
:10195800D6EF0CF0010E4A6EB6EF0CF0D890483670
:1019680049364A2A49AEBBEF0CF0BDEF0CF0B2EF96
:101978000CF0D8904C364D364850465C4950475884
:10198800D8A0C9EF0CF0CBEF0CF0D0EF0CF048501A
:10199800465E4950475A4C80D890493248324A2EC0
:1019A800BDEF0CF04B50D8B4DCEF0CF0DEEF0CF0D0
:1019B800E2EF0CF04C6C4D1ED8B04D2A4CC046F0EE
:1019C8004DC047F01200010E2424D96EDA6A000EC9
:1019D800DA22000EDF6EABA4F4EF0CF0F6EF0CF099
:1019E8000BEF0DF0010E2424D96EDA6A000EDA220C
:1019F800DF8202D80BEF0DF005000001FA6EBC5132
:101A0800FD6EBD51FE6EF850FF6EFA501200ABA28B
:101A180010EF0DF012EF0DF027EF0DF0010E24245A
:101A2800D96EDA6A000EDA22DF8402D827EF0DF0C9
:101A380005000001FA6EBA51FD6EBB51FE6EF850FA
:101A4800FF6EFA501200010E2424D96EDA6A000ED5
:101A5800DA22DF50D8B433EF0DF035EF0DF045EF53
:101A68000DF002D843EF0DF005000001FA6EB851F1
:101A7800FD6EB951FE6EF850FF6EFA50120047EF36
:101A88000DF09EEC10F01200000E4B6E47BE51EFA9
:101A98000DF04FEF0DF057EF0DF0466C471ED8B024
:101AA800472A010E4B6E49BE5EEF0DF05CEF0DF05C
:101AB80062EF0DF0486C491ED8B0492A48504910C9
:101AC800D8B469EF0DF06BEF0DF08FEF0DF0010E4C
:101AD8004A6E73EF0DF0D890483649364A2A49AE17
:101AE80078EF0DF07AEF0DF06FEF0DF04850465C8F
:101AF80049504758D8A083EF0DF085EF0DF089EFD6
:101B08000DF04850465E4950475AD89049324832FD
:101B18004A2E7AEF0DF04B50D8B495EF0DF097EFB1
:101B28000DF09BEF0DF0466C471ED8B0472A46C013
:101B380046F047C047F01200476EC6BAA6EF0DF050
:101B4800A8EF0DF0EEEF0DF04750040D010EF3264F
:101B5800000EF422F90EF324F66E7D0EF420F76ED3
:101B68000800F5CFC7FF4750040DF90EF324F66EB1
:101B78007D0EF420F76E0800F5CFC6FF000EC56E87
:101B88004750040D020EF326000EF422F90EF3243A
:101B9800F66E7D0EF420F76E0800F5CFC8FF4750AB
:101BA800040D030EF326000EF422F90EF324F66E4C
:101BB8007D0EF420F76E0800F5CF46F046464646FF
:101BC800464694504618F70B4618946EC68A010E7E
:101BD800EFEF0DF0000E1200516E11EF0EF04E50A7
:101BE800800F11EC11F02EEF0EF04E50C00F11ECDB
:101BF80011F02EEF0EF04E50900F11EC11F02EEF69
:101C08000EF04E50D00F11EC11F02EEF0EF04E509A
:101C1800C00F11EC11F02EEF0EF051504F6E506ABC
:101C28005050000AD8B41BEF0EF00BEF0EF04F50D7
:101C3800000AD8B4F3EF0DF0010AD8B4F9EF0DF0AB
:101C4800030AD8B4FFEF0DF0010AD8B405EF0EF07F
:101C58000BEF0EF01200000E4C6E000E4B6E48504B
:101C68004910D8B43AEF0EF03CEF0EF064EF0EF0E6
:101C7800010E4A6E44EF0EF0D890483649364A2A8B
:101C880049AE49EF0EF04BEF0EF040EF0EF0D89052
:101C98004B364C364850465C49504758D8A057EF09
:101CA8000EF059EF0EF05EEF0EF04850465E4950C8
:101CB800475A4B80D890493248324A2E4BEF0EF0A3
:101CC8004BC046F04CC047F012009D9ACE0E466EAF
:101CD800190E476E67EC11F09D98960E466E1F0E12
:101CE800476E62EC11F0080EB86E900EAB6E240EC3
:101CF800AC6EA00EAF6E010EB06E100E466E230EC7
:101D0800476E71EC11F0F60E466E220E476E6CECC3
:101D180011F0FC0E466E220E476E76EC11F0000EA6
:101D2800216E000E266E000E256E080E756E000ED2
:101D3800246E000E236E000E226E9D8A1200000E85
:101D4800506E2FA0AAEF0EF0ACEF0EF0ADEF0EF034
:101D580050802FA2B2EF0EF0B4EF0EF0B5EF0EF0F8
:101D680050822FA4BAEF0EF0BCEF0EF0BDEF0EF0CC
:101D7800508431A4C2EF0EF0C4EF0EF0C5EF0EF0A0
:101D8800508631A6CAEF0EF0CCEF0EF0CDEF0EF074
:101D9800508831A8D2EF0EF0D4EF0EF0D5EF0EF048
:101DA800508A000E4D6E5050B3EC10F012006A0EBF
:101DB800F66E220EF76E000EF86E00EEA0F010EE32
:101DC80010F00900F5CFEEFFE550E150FAE18A0E78
:101DD800F66E220EF76E000EF86E00EE5FF010EE53
:101DE8000EF00900F5CFEEFFE550E150FAE100EE04
:101DF80080F0200EEE6AE806FDE100EE01F03C0EF0
:101E0800EE6AE806FDE176907692000EF86E000123
:101E1800DBEF09F048504910D8B415EF0FF017EF71
:101E28000FF03BEF0FF0010E4A6E1FEF0FF0D89046
:101E3800483649364A2A49AE24EF0FF026EF0FF00C
:101E48001BEF0FF04850465C49504758D8A02FEF79
:101E58000FF031EF0FF035EF0FF04850465E495064
:101E6800475AD890493248324A2E26EF0FF046C0DA
:101E780046F047C047F012003F504010D8B447EF33
:101E88000FF049EF0FF06DEF0FF0010E416E51EFBB
:101E98000FF0D8903F364036412A40AE56EF0FF04B
:101EA80058EF0FF04DEF0FF03F503D5C40503E585B
:101EB800D8A061EF0FF063EF0FF067EF0FF03F501E
:101EC8003D5E40503E5AD89040323F32412E58EF46
:101ED8000FF03DC03DF03EC03EF01200380E11EC50
:101EE80011F0000E476E050E466E5AEC10F0380ED3
:101EF80011EC11F0000E476E050E466E5AEC10F00C
:101F0800380E11EC11F00C0E11EC11F0000E476EAA
:101F1800050E466E5AEC10F0020E11EC11F0000E90
:101F2800476E050E466E5AEC10F0010E11EC11F0DA
:101F3800000E476E050E466E5AEC10F01200ADEF1B
:101F48000FF0350EE82EFED700F0200E465E000E8C
:101F5800475A475007E1200E465CD8B0B6EF0FF05D
:101F6800B8EF0FF0A5EF0FF0BDEF0FF000D000D0E5
:101F780000F04606D8A04706462806E14728D8A418
:101F8800C8EF0FF0CAEF0FF0BAEF0FF01200080E0B
:101F98007560D1EF0FF0D3EF0FF0E9EF0FF0880E77
:101FA8002524D96EDA6A000EDA22DF50AD6E252AB2
:101FB800070E2564E2EF0FF0E4EF0FF0E6EF0FF005
:101FC800000E256E752AEAEF0FF09D981200F9EFC2
:101FD8000FF04FC0F6FF50C0F7FF0800F5CF51F0E3
:101FE800515053EC11F04F4A502A4FC0F6FF50C0E1
:101FF800F7FF0800F5500009D8A405EF10F007EF27
:1020080010F0EDEF0FF0120047C04BF048C04CF055
:1020180017EF10F04BC0D9FF4CC0DAFFDF50F0ECDF
:1020280010F04B4A4C2A4906D8A04A06492806E12E
:102038004A28D8A422EF10F024EF10F00EEF10F089
:102048001200D59CF30ED76ECB0ED66ED650D7CFD6
:1020580048F0496A48C049F0486A48106D6E4950CE
:102068006E6EF294F28A0E0E466E230E476E58EC90
:1020780011F0850ED56E120053C04EF054C04FF0CB
:10208800C80E506E010E516E13EC0BF01FA24FEFED
:1020980010F051EF10F058EF10F0000E1F6E000E08
:1020A8001E6E010E59EF10F0000E120064EF10F0D2
:1020B800070E486E7D0EE82EFED7482EFCD700F09E
:1020C8004606D8A04706462806E14728D8A46FEF59
:1020D80010F071EF10F05CEF10F012006F507010FC
:1020E800D8B479EF10F07BEF10F088EF10F002D839
:1020F80088EF10F00500FA6E6F50FD6E7050FE6E9E
:10210800F850FF6EFA5012001200000E8D6E1E0E6F
:102118008C6E000E896E000E8A6E000E8B6E070E96
:10212800966E92680F0E936E970E946E3E0E956E95
:10213800F18E1200800E2424D96EDA6A000EDA229B
:10214800AECFDFFF242A070E2464ADEF10F0AFEF07
:1021580010F0B1EF10F0000E246E222A12004E6E1D
:10216800390E4D24D96EDA6A000EDA22DF50800B60
:102178004F6E4E507F0B4F10396EE3EC10F012008B
:10218800506ECBEF10F0505053EC11F04F064F50FB
:10219800D8A4D1EF10F0D3EF10F0C7EF10F0120071
:1021A80081EC11F02CEC11F089EC10F05DEC11F0E1
:1021B80025EC10F0FDEC10F069EC0EF01200390E71
:1021C800476E000E486E000E4A6E020E496E08EC0D
:1021D80010F023EC11F01200466E46C0C9FF9EA60F
:1021E800F8EF10F0FAEF10F0F3EF10F09E96C950E8
:1021F8001200100EC16EB50EC06E000EC36E000E3A
:10220800C46E010EC26E12004D6E4DC03AF0398E8A
:10221800E3EC10F01AEC11F012004D6E4DC03AF0DC
:10222800399EE3EC10F01AEC11F012008C9C000EB1
:10223800476E030E466EA3EC0FF08C8C12008C8E4A
:10224800000E476E030E466EA3EC0FF08C9E120034
:10225800400EC76E210EC66E010EC86E9496C69AC1
:1022680012006461746100000000000000000000BA
:102278000000F2946E50D76E6DC0D6FF72EC10F06D
:102288001200303030303020202020205E7F020FB6
:102298000E0E466E120E476E58EC11F012004E6E7E
:1022A8004E5008EC11F0120046C06FF047C070F0B5
:1022B8001200720ED36E000E9B6E120046C073F0B1
:1022C80047C074F0120046C071F047C072F01200A7
:1022D80046C0BAF047C0BBF0120046C0BCF047C0C9
:1022E800BDF0120046C0B8F047C0B9F01200AB9874
:1022F800AB8812009EEC10F01200D09E1200120063
:0A2308001200120012001200120071
:107DD000000000000000000000C422CE19CE2200E6
:107DE00000961FD21C00000000E0210000102000BF
:107DF000000000000000000000214001000A401FB8
:107E0000005265636569766520746573743A205421
:107E10007970652061206D65737361676520746892
:107E2000656E20707265737320656E7465722028AC
:107E30006D6178203136206368617273293A00439E
:107E4000616C6962726174696F6E2020202020006D
:107E500050726F6772616D205350203F20202020A8
:107E60000043616C6962726174696F6E3F2020200B
:107E7000200050726F6772616D206D6F6465202005
:107E800020200053656C656374206D6F64653A2D26
:107E90002020200052652050726F6772616D202093
:107EA0003F2020200052652043616C69627261743A
:107EB000653F202020004D6F746F72206F766572D1
:107EC0006C6F61642121004D6F746F722074656D59
:107ED0007020747269702100546F72712E20667563
:107EE0006C6C20636C6F73650056616C7665206600
:107EF000756C6C20636C6F73650056616C766520E1
:107F000066756C6C20206F70656E00546F727175B1
:107F1000652066756C6C206F70656E00456E7465CB
:107F20007220687973746572657369730048656C53
:107F30006C6F20576F726C64212025640A002E2E0E
:107F40002E2E2E2E2E2E2E2E2E2E2E2E2E00506F1C
:107F5000776572206F6E20746573742E2E005472D4
:107F6000616E736D697420746573740A00596F755E
:107F70002074797065643A20002059285E29204ECB
:107F80002876290050617373776F72643A004F75D9
:107F900074707574202000506F736974696F6E007F
:107FA00056616C7665506F7300536574506F696EDF
:107FB00074005B4D414E205D20005B4155544F5D88
:107FC0002000416E616C6F672000446967697461CD
:107FD0006C005370616E20005A65726F200043611F
:107FE0006C3F00646174610053503A000A6F6B008B
:107FF0002D2D003C3C003E3C003E3E002563000031
:020000040020DA
:08000000FFFFFFFFFFFFFFFF00
:020000040030CA
:0E000000FF021214FF8181FF0FC00FE00F40BE
:00000001FF
