:020000040000FA
:0400000007EF00F016
:0A0008007082C3ED04F01AEF07F058
:100600000000000000000000008612520A90120054
:100610000006104E0D00000000A011000046100062
:10062000000000000000000000214001000A401FFF
:10063000005265636569766520746573743A205469
:100640007970652061206D657373616765207468DA
:10065000656E20707265737320656E7465722028F4
:100660006D6178203136206368617273293A0048E1
:10067000656C6C6F20576F726C64212025640A00D2
:100680002E2E2E2E2E2E2E2E2E2E2E2E2E2E2E00B8
:10069000506F776572206F6E20746573742E2E0014
:1006A0005472616E736D697420746573740A0059B5
:1006B0006F752074797065643A200064617461001C
:1006C0000A6F6B00256300000F0E195C0E0E1A589E
:1006D000D8B06DEF03F06FEF03F073EF03F0194A3A
:1006E0001A2A7FEF03F0000E1A6E000E196E010E2B
:1006F000226E010E216E010E1F6E010E1E6E010E86
:10070000236E19C032F01AC033F0070E356E080E92
:10071000346E7FEC07F032503310D8A492EF03F020
:1007200094EF03F096EF03F0010E1F6E19C032F044
:100730001AC033F0000E356E1E0E346E7FEC07F0DB
:1007400032503310D8A4A7EF03F0A9EF03F0ADEFB8
:1007500003F0010E226E010E216E19C032F01AC094
:1007600033F0000E356E0A0E346E7FEC07F0325017
:100770003310D8A4BEEF03F0C0EF03F0CDEF03F0C9
:10078000010E296E2850D8B4C8EF03F0CBEF03F068
:10079000010ECCEF03F0000E286E19C032F01AC023
:1007A00033F0000E356E050E346E7FEC07F03250DC
:1007B0003310D8A4DEEF03F0E0EF03F0EBEF03F02B
:1007C0001D50D8B4E6EF03F0E9EF03F0010EEAEFB5
:1007D00003F0000E1D6E19B0F0EF03F0F2EF03F01E
:1007E000F4EF03F0010E206E000E256E83B2FBEFD6
:1007F00003F0FDEF03F0FEEF03F0258083B403EF79
:1008000004F005EF04F006EF04F0258283B60BEF49
:1008100004F00DEF04F00EEF04F0258483B813EF1D
:1008200004F015EF04F016EF04F025862450FF0ABB
:100830002514271225C024F02550D8B422EF04F047
:1008400024EF04F035EF04F06F50D8A42AEF04F041
:100850002CEF04F032EF04F0020E6F6E25502612DA
:1008600037EF04F06F0637EF04F0020E6F6E1200E0
:10087000010E516E20EE68F010EE4BF0040EDBCF4F
:10088000E3FFE806FCE2050E466449EF04F04BEF97
:1008900004F097EF04F0050E466E97EF04F0515008
:1008A000465CD8B056EF04F058EF04F05AEF04F06D
:1008B0009FEF04F044C03BF045C03CF0000E3E6E9C
:1008C0000A0E3D6E4DEC07F03B50506EFF0E476E2A
:1008D000FF0E486E5150496E4A6A475049264850AB
:1008E0004A224B0E4924D96E000E4A20DA6E50502F
:1008F000300FDF6E5050445C3B6E4550D8A045042D
:100900003C6E000E3E6E0A0E3D6E6DEC06F03BC076
:1009100044F03CC045F044504510D8A492EF04F098
:1009200094EF04F096EF04F09FEF04F0512A050EC7
:1009300051649DEF04F09FEF04F04FEF04F046C0C8
:1009400051F05150D8A4A7EF04F0A9EF04F0ABEF99
:1009500004F0C2EF04F0FF0E476EFF0E486E5150D8
:10096000496E4A6A4750492648504A224B0E49244C
:10097000D96E000E4A20DA6EDF5034EC09F05106D1
:10098000A1EF04F012000600FACF37F0FBCF38F0E9
:10099000D9CF39F0DACF3AF0F2AAD1EF04F0D3EFA1
:1009A00004F0DEEF04F0F2A4D8EF04F0DAEF04F084
:1009B000DEEF04F002EC09F01FEF05F0F2ACE3EF1C
:1009C00004F0E5EF04F01FEF05F09DA8EAEF04F056
:1009D000ECEF04F002EF05F09EA8F1EF04F0F3EF66
:1009E00004F002EF05F002D800EF05F00500FA6E02
:1009F0006050FD6E6150FE6EF850FF6EFA501200AE
:100A00001FEF05F09DAA07EF05F009EF05F01FEFB6
:100A100005F09EAA0EEF05F010EF05F01FEF05F0B0
:100A200002D81DEF05F00500FA6E5E50FD6E5F50B6
:100A3000FE6EF850FF6EFA5012001FEF05F03AC03C
:100A4000DAFF39C0D9FF38C0FBFF37C0FAFF709218
:100A50001100010E2D24D96EDA6A000EDA22000E82
:100A6000DF6EABA436EF05F038EF05F04CEF05F084
:100A7000010E2D24D96EDA6A000EDA22DF8202D846
:100A80004CEF05F00500FA6E5850FD6E5950FE6EA1
:100A9000F850FF6EFA501200ABA251EF05F053EF81
:100AA00005F067EF05F0010E2D24D96EDA6A000E0D
:100AB000DA22DF8402D867EF05F00500FA6E56509F
:100AC000FD6E5750FE6EF850FF6EFA501200010E88
:100AD0002D24D96EDA6A000EDA22DF50D8B473EF13
:100AE00005F075EF05F084EF05F002D882EF05F010
:100AF0000500FA6E5450FD6E5550FE6EF850FF6EB4
:100B0000FA50120086EF05F09FEC08F01200B4ECEA
:100B100008F0F28EF28C26EC09F0E1EC06F0000E03
:100B2000436E000E2EEC06F0900E486E060E496ED7
:100B30000AEC09F0000E436E010E2EEC06F0800E5A
:100B4000486E060E496E0AEC09F0000E536E000E58
:100B5000526E2950D8B4AFEF05F0B1EF05F0C2EFF7
:100B600005F0000E296E524A532A000E436E000E05
:100B70002EEC06F052C044F053C045F0030E466E12
:100B800038EC04F083A2C7EF05F0C9EF05F0CCEF15
:100B900005F08A8CCDEF05F08A9C2850D8B4D3EFAD
:100BA00005F0D5EF05F0D8EF05F08A8ED9EF05F006
:100BB0008A9E0400A9EF05F007EF00F03C6EC6BA6C
:100BC000E4EF05F0E6EF05F02CEF06F03C50040DE5
:100BD000010EF326000EF422290EF324F66E060E03
:100BE000F420F76E0800F5CFC7FF3C50040D290E26
:100BF000F324F66E060EF420F76E0800F5CFC6FF5C
:100C0000000EC56E3C50040D020EF326000EF422B9
:100C1000290EF324F66E060EF420F76E0800F5CFC9
:100C2000C8FF3C50040D030EF326000EF422290EDB
:100C3000F324F66E060EF420F76E0800F5CF3BF0B5
:100C40003B463B463B4694503B18F70B3B18946E93
:100C5000C68A010E2DEF06F0000E1200466E4FEF11
:100C600006F04350800F1FEC09F06CEF06F0435084
:100C7000C00F1FEC09F06CEF06F04350900F1FEC13
:100C800009F06CEF06F04350D00F1FEC09F06CEF49
:100C900006F04350C00F1FEC09F06CEF06F0465011
:100CA000446E456A4550000AD8B459EF06F049EF42
:100CB00006F04450000AD8B431EF06F0010AD8B467
:100CC00037EF06F0030AD8B43DEF06F0010AD8B4B6
:100CD00043EF06F049EF06F01200000E406E000EE2
:100CE0003F6E3D503E10D8B478EF06F07AEF06F034
:100CF000A2EF06F0010E416E82EF06F0D8903D366D
:100D00003E36412A3EAE87EF06F089EF06F07EEFD1
:100D100006F0D8903F3640363D503B5C3E503C5844
:100D2000D8A095EF06F097EF06F09CEF06F03D5047
:100D30003B5E3E503C5A3F80D8903E323D32412E81
:100D400089EF06F03FC03BF040C03CF012009D9A96
:100D5000520E3B6E0A0E3C6E48EC09F09D98060E52
:100D60003B6E100E3C6E43EC09F0080EB86E900E10
:100D7000AB6E240EAC6EA00EAF6E010EB06ECA0E3E
:100D80003B6E120E3C6E52EC09F0B80E3B6E120E2A
:100D90003C6E4DEC09F0BE0E3B6E120E3C6E57ECF5
:100DA00009F0000E2A6E000E2F6E000E2E6E080E39
:100DB000626E000E2D6E000E2C6E000E2B6E9D8A44
:100DC000120018EC09F0000E3C6E190E3B6E5BEC45
:100DD00008F0380E1FEC09F0000E3C6E190E3B6E49
:100DE0005BEC08F0380E1FEC09F0000E3C6E190E9B
:100DF0003B6E5BEC08F0380E1FEC09F00C0E1FEC9C
:100E000009F0000E3C6E190E3B6E5BEC08F0020E12
:100E10001FEC09F0000E3C6E190E3B6E5BEC08F007
:100E2000010E1FEC09F0000E3C6E190E3B6E5BECE0
:100E300008F01200F40EF66E110EF76E000EF86E4A
:100E400000EE90F010EE10F00900F5CFEEFFE55047
:100E5000E150FAE15A0EF66E120EF76E000EF86EC1
:100E600000EE63F010EE0DF00900F5CFEEFFE55057
:100E7000E150FAE100EE80F0100EEE6AE806FDE1C6
:100E800000EE01F0310EEE6AE806FDE1709070921E
:100E9000000EF86E000187EF05F03D503E10D8B40B
:100EA00054EF07F056EF07F07AEF07F0010E3F6EB0
:100EB0005EEF07F0D8903D363E363F2A3EAE63EFF8
:100EC00007F065EF07F05AEF07F03D503B5C3E50EE
:100ED0003C58D8A06EEF07F070EF07F074EF07F002
:100EE0003D503B5E3E503C5AD8903E323D323F2E04
:100EF00065EF07F03BC03BF03CC03CF012003450C3
:100F00003510D8B486EF07F088EF07F0ACEF07F0A4
:100F1000010E366E90EF07F0D89034363536362A0B
:100F200035AE95EF07F097EF07F08CEF07F03450F0
:100F3000325C35503358D8A0A0EF07F0A2EF07F08D
:100F4000A6EF07F03450325E3550335AD890353220
:100F50003432362E97EF07F032C032F033C033F020
:100F60001200000E476ECCEF07F044C0F6FF45C0FC
:100F7000F7FF0800F5CF46F0465034EC09F0444A3C
:100F8000452A472A140E4764C8EF07F0CAEF07F056
:100F9000CCEF07F0DAEF07F044C0F6FF45C0F7FFEB
:100FA0000800F5500009D8A4D8EF07F0DAEF07F0F1
:100FB000B5EF07F01200E5EF07F0350EE82EFED78B
:100FC00000F0200E3B5E000E3C5A3C5007E1200E24
:100FD0003B5CD8B0EEEF07F0F0EF07F0DDEF07F085
:100FE000F5EF07F000D000D000F03B06D8A03C069B
:100FF0003B2806E13C28D8A400EF08F002EF08F0F7
:10100000F2EF07F01200080E626009EF08F00BEF34
:1010100008F021EF08F0110E2E24D96EDA6A000EC6
:10102000DA22DF50AD6E2E2A070E2E641AEF08F07A
:101030001CEF08F01EEF08F0000E2E6E622A22EF61
:1010400008F09D9812003CC040F03DC041F032EFE6
:1010500008F040C0D9FF41C0DAFFDF50D0EC08F003
:10106000404A412A3E06D8A03F063E2806E13F28D6
:10107000D8A43DEF08F03FEF08F029EF08F0120088
:10108000D59CF30ED76ECB0ED66ED650D7CF3DF093
:101090003E6A3DC03EF03D6A3D105A6E3E505B6E6A
:1010A000F294F28AC80E3B6E120E3C6E39EC09F0D7
:1010B000850ED56E120065EF08F0070E3D6E7D0EB1
:1010C000E82EFED73D2EFCD700F03B06D8A03C060C
:1010D0003B2806E13C28D8A470EF08F072EF08F036
:1010E0005DEF08F012005C505D10D8B47AEF08F0A4
:1010F0007CEF08F089EF08F002D889EF08F00500CE
:10110000FA6E5C50FD6E5D50FE6EF850FF6EFA5048
:1011100012001200000E8D6E1E0E8C6E000E896E77
:10112000000E8A6E000E8B6E070E966E92680F0E82
:10113000936E970E946E1E0E956EF18E1200090E30
:101140002D24D96EDA6A000EDA22AECFDFFF2D2A07
:10115000070E2D64AEEF08F0B0EF08F0B2EF08F024
:10116000000E2D6E2B2A120062EC09F0F1EC08F053
:101170008AEC08F03EEC09F040EC08F0DDEC08F0F9
:10118000A7EC06F01200300E3C6E000E3D6E000E15
:101190003F6E020E3E6E23EC08F0E8EC08F0120001
:1011A0003B6E3BC0C9FF9EA6D8EF08F0DAEF08F00F
:1011B000D3EF08F09E96C9501200100EC16EB50E06
:1011C000C06E000EC36E000EC46E010EC26E120021
:1011D0008C9E000E3C6E200E3B6EDBEC07F08C8E7E
:1011E0001200400EC76E210EC66E010EC86E949698
:1011F000C69A1200646174610000000000000000E3
:1012000000000000F2945B50D76E5AC0D6FF73EC1A
:1012100008F0120048C044F049C045F0B1EC07F0B6
:101220001200426E42C030F0319EC3EC08F0120052
:101230008C8EF1EC08F0000EDEEC05F01200426E30
:1012400042C030F0319EC3EC08F01200C80E3B6E75
:10125000060E3C6E39EC09F0120030303030302090
:0712600020202020A006025F
:10126800436E435011EC09F012003BC05CF03CC0E7
:101278005DF01200720ED36E000E9B6E12003BC022
:1012880060F03CC061F012003BC05EF03CC05FF013
:1012980012003BC056F03CC057F012003BC058F05B
:1012A8003CC059F012003BC054F03CC055F012004D
:1012B800AB98AB8812009FEC08F01200D09E120089
:0412C80012001200FE
:020000040020DA
:08000000FFFFFFFFFFFFFFFF00
:020000040030CA
:0E000000FF021214FF8181FF0FC00FE00F40BE
:00000001FF
